{
	"contracts/multiSig.sol": {
		"MultisigWallet": {
			"abi": [
				{
					"inputs": [
						{
							"internalType": "address[]",
							"name": "_owners",
							"type": "address[]"
						},
						{
							"internalType": "uint256",
							"name": "_minAuth",
							"type": "uint256"
						}
					],
					"stateMutability": "nonpayable",
					"type": "constructor"
				},
				{
					"anonymous": false,
					"inputs": [
						{
							"indexed": true,
							"internalType": "address",
							"name": "owner",
							"type": "address"
						},
						{
							"indexed": true,
							"internalType": "uint256",
							"name": "txId",
							"type": "uint256"
						}
					],
					"name": "Approve",
					"type": "event"
				},
				{
					"anonymous": false,
					"inputs": [
						{
							"indexed": true,
							"internalType": "address",
							"name": "sender",
							"type": "address"
						},
						{
							"indexed": false,
							"internalType": "uint256",
							"name": "amount",
							"type": "uint256"
						}
					],
					"name": "Deposit",
					"type": "event"
				},
				{
					"anonymous": false,
					"inputs": [
						{
							"indexed": true,
							"internalType": "uint256",
							"name": "txId",
							"type": "uint256"
						}
					],
					"name": "Execute",
					"type": "event"
				},
				{
					"anonymous": false,
					"inputs": [
						{
							"indexed": true,
							"internalType": "address",
							"name": "owner",
							"type": "address"
						},
						{
							"indexed": true,
							"internalType": "uint256",
							"name": "txId",
							"type": "uint256"
						}
					],
					"name": "Revoke",
					"type": "event"
				},
				{
					"anonymous": false,
					"inputs": [
						{
							"indexed": true,
							"internalType": "uint256",
							"name": "txId",
							"type": "uint256"
						}
					],
					"name": "Submit",
					"type": "event"
				},
				{
					"inputs": [
						{
							"internalType": "uint256",
							"name": "_txId",
							"type": "uint256"
						}
					],
					"name": "approve",
					"outputs": [],
					"stateMutability": "nonpayable",
					"type": "function"
				},
				{
					"inputs": [
						{
							"internalType": "uint256",
							"name": "",
							"type": "uint256"
						},
						{
							"internalType": "address",
							"name": "",
							"type": "address"
						}
					],
					"name": "approved",
					"outputs": [
						{
							"internalType": "bool",
							"name": "",
							"type": "bool"
						}
					],
					"stateMutability": "view",
					"type": "function"
				},
				{
					"inputs": [
						{
							"internalType": "uint256",
							"name": "_txId",
							"type": "uint256"
						}
					],
					"name": "execute",
					"outputs": [],
					"stateMutability": "nonpayable",
					"type": "function"
				},
				{
					"inputs": [
						{
							"internalType": "address",
							"name": "",
							"type": "address"
						}
					],
					"name": "isOwner",
					"outputs": [
						{
							"internalType": "bool",
							"name": "",
							"type": "bool"
						}
					],
					"stateMutability": "view",
					"type": "function"
				},
				{
					"inputs": [],
					"name": "minAuthorization",
					"outputs": [
						{
							"internalType": "uint256",
							"name": "",
							"type": "uint256"
						}
					],
					"stateMutability": "view",
					"type": "function"
				},
				{
					"inputs": [
						{
							"internalType": "uint256",
							"name": "",
							"type": "uint256"
						}
					],
					"name": "owners",
					"outputs": [
						{
							"internalType": "address",
							"name": "",
							"type": "address"
						}
					],
					"stateMutability": "view",
					"type": "function"
				},
				{
					"inputs": [
						{
							"internalType": "uint256",
							"name": "_txId",
							"type": "uint256"
						}
					],
					"name": "revoke",
					"outputs": [],
					"stateMutability": "nonpayable",
					"type": "function"
				},
				{
					"inputs": [
						{
							"internalType": "address",
							"name": "_to",
							"type": "address"
						},
						{
							"internalType": "uint256",
							"name": "_value",
							"type": "uint256"
						},
						{
							"internalType": "bytes",
							"name": "_data",
							"type": "bytes"
						}
					],
					"name": "submit",
					"outputs": [],
					"stateMutability": "nonpayable",
					"type": "function"
				},
				{
					"inputs": [
						{
							"internalType": "uint256",
							"name": "",
							"type": "uint256"
						}
					],
					"name": "transactions",
					"outputs": [
						{
							"internalType": "address",
							"name": "to",
							"type": "address"
						},
						{
							"internalType": "uint256",
							"name": "value",
							"type": "uint256"
						},
						{
							"internalType": "bytes",
							"name": "data",
							"type": "bytes"
						},
						{
							"internalType": "bool",
							"name": "executed",
							"type": "bool"
						}
					],
					"stateMutability": "view",
					"type": "function"
				},
				{
					"stateMutability": "payable",
					"type": "receive"
				}
			],
			"devdoc": {
				"kind": "dev",
				"methods": {},
				"version": 1
			},
			"evm": {
				"assembly": "    /* \"contracts/multiSig.sol\":28:3902  contract MultisigWallet{... */\n  mstore(0x40, 0x80)\n    /* \"contracts/multiSig.sol\":1512:2223  constructor(address[] memory _owners, uint _minAuth){... */\n  callvalue\n  dup1\n  iszero\n  tag_1\n  jumpi\n  0x00\n  dup1\n  revert\ntag_1:\n  pop\n  mload(0x40)\n  sub(codesize, bytecodeSize)\n  dup1\n  bytecodeSize\n  dup4\n  codecopy\n  dup2\n  dup2\n  add\n  0x40\n  mstore\n  dup2\n  add\n  swap1\n  tag_2\n  swap2\n  swap1\n  tag_3\n  jump\t// in\ntag_2:\n    /* \"contracts/multiSig.sol\":1600:1601  0 */\n  0x00\n    /* \"contracts/multiSig.sol\":1583:1590  _owners */\n  dup3\n    /* \"contracts/multiSig.sol\":1583:1597  _owners.length */\n  mload\n    /* \"contracts/multiSig.sol\":1583:1601  _owners.length > 0 */\n  gt\n    /* \"contracts/multiSig.sol\":1575:1614  require(_owners.length > 0,\"No Owners\") */\n  tag_6\n  jumpi\n  mload(0x40)\n  0x08c379a000000000000000000000000000000000000000000000000000000000\n  dup2\n  mstore\n  0x04\n  add\n  tag_7\n  swap1\n  tag_8\n  jump\t// in\ntag_7:\n  mload(0x40)\n  dup1\n  swap2\n  sub\n  swap1\n  revert\ntag_6:\n    /* \"contracts/multiSig.sol\":1645:1661  minAuthorization */\n  sload(0x02)\n    /* \"contracts/multiSig.sol\":1633:1641  _minAuth */\n  dup2\n    /* \"contracts/multiSig.sol\":1633:1661  _minAuth >= minAuthorization */\n  lt\n  iszero\n    /* \"contracts/multiSig.sol\":1633:1691  _minAuth >= minAuthorization && _minAuth <= _owners.length */\n  dup1\n  iszero\n  tag_9\n  jumpi\n  pop\n    /* \"contracts/multiSig.sol\":1677:1684  _owners */\n  dup2\n    /* \"contracts/multiSig.sol\":1677:1691  _owners.length */\n  mload\n    /* \"contracts/multiSig.sol\":1665:1673  _minAuth */\n  dup2\n    /* \"contracts/multiSig.sol\":1665:1691  _minAuth <= _owners.length */\n  gt\n  iszero\n    /* \"contracts/multiSig.sol\":1633:1691  _minAuth >= minAuthorization && _minAuth <= _owners.length */\ntag_9:\n    /* \"contracts/multiSig.sol\":1625:1711  require(_minAuth >= minAuthorization && _minAuth <= _owners.length,\"Not Authorized !\") */\n  tag_10\n  jumpi\n  mload(0x40)\n  0x08c379a000000000000000000000000000000000000000000000000000000000\n  dup2\n  mstore\n  0x04\n  add\n  tag_11\n  swap1\n  tag_12\n  jump\t// in\ntag_11:\n  mload(0x40)\n  dup1\n  swap2\n  sub\n  swap1\n  revert\ntag_10:\n    /* \"contracts/multiSig.sol\":1728:1734  uint i */\n  0x00\n    /* \"contracts/multiSig.sol\":1724:2175  for(uint i;i< _owners.length;i++){ //to check if owner and address[0] are not same and they are unique... */\ntag_13:\n    /* \"contracts/multiSig.sol\":1738:1745  _owners */\n  dup3\n    /* \"contracts/multiSig.sol\":1738:1752  _owners.length */\n  mload\n    /* \"contracts/multiSig.sol\":1735:1736  i */\n  dup2\n    /* \"contracts/multiSig.sol\":1735:1752  i< _owners.length */\n  lt\n    /* \"contracts/multiSig.sol\":1724:2175  for(uint i;i< _owners.length;i++){ //to check if owner and address[0] are not same and they are unique... */\n  iszero\n  tag_14\n  jumpi\n    /* \"contracts/multiSig.sol\":1840:1853  address owner */\n  0x00\n    /* \"contracts/multiSig.sol\":1855:1862  _owners */\n  dup4\n    /* \"contracts/multiSig.sol\":1863:1864  i */\n  dup3\n    /* \"contracts/multiSig.sol\":1855:1865  _owners[i] */\n  dup2\n  mload\n  dup2\n  lt\n  tag_16\n  jumpi\n  tag_17\n  tag_18\n  jump\t// in\ntag_17:\ntag_16:\n  0x20\n  mul\n  0x20\n  add\n  add\n  mload\n    /* \"contracts/multiSig.sol\":1840:1865  address owner= _owners[i] */\n  swap1\n  pop\n    /* \"contracts/multiSig.sol\":1905:1906  0 */\n  0x00\n    /* \"contracts/multiSig.sol\":1888:1907  owner != address(0) */\n  0xffffffffffffffffffffffffffffffffffffffff\n  and\n    /* \"contracts/multiSig.sol\":1888:1893  owner */\n  dup2\n    /* \"contracts/multiSig.sol\":1888:1907  owner != address(0) */\n  0xffffffffffffffffffffffffffffffffffffffff\n  and\n  eq\n  iszero\n    /* \"contracts/multiSig.sol\":1880:1921  require(owner != address(0), \"Not owner\") */\n  tag_19\n  jumpi\n  mload(0x40)\n  0x08c379a000000000000000000000000000000000000000000000000000000000\n  dup2\n  mstore\n  0x04\n  add\n  tag_20\n  swap1\n  tag_21\n  jump\t// in\ntag_20:\n  mload(0x40)\n  dup1\n  swap2\n  sub\n  swap1\n  revert\ntag_19:\n    /* \"contracts/multiSig.sol\":1945:1952  isOwner */\n  0x01\n    /* \"contracts/multiSig.sol\":1945:1959  isOwner[owner] */\n  0x00\n    /* \"contracts/multiSig.sol\":1953:1958  owner */\n  dup3\n    /* \"contracts/multiSig.sol\":1945:1959  isOwner[owner] */\n  0xffffffffffffffffffffffffffffffffffffffff\n  and\n  0xffffffffffffffffffffffffffffffffffffffff\n  and\n  dup2\n  mstore\n  0x20\n  add\n  swap1\n  dup2\n  mstore\n  0x20\n  add\n  0x00\n  keccak256\n  0x00\n  swap1\n  sload\n  swap1\n  0x0100\n  exp\n  swap1\n  div\n  0xff\n  and\n    /* \"contracts/multiSig.sol\":1944:1959  !isOwner[owner] */\n  iszero\n    /* \"contracts/multiSig.sol\":1936:1989  require(!isOwner[owner],\"Owners already in the list\") */\n  tag_22\n  jumpi\n  mload(0x40)\n  0x08c379a000000000000000000000000000000000000000000000000000000000\n  dup2\n  mstore\n  0x04\n  add\n  tag_23\n  swap1\n  tag_24\n  jump\t// in\ntag_23:\n  mload(0x40)\n  dup1\n  swap2\n  sub\n  swap1\n  revert\ntag_22:\n    /* \"contracts/multiSig.sol\":2075:2079  true */\n  0x01\n    /* \"contracts/multiSig.sol\":2058:2065  isOwner */\n  dup1\n    /* \"contracts/multiSig.sol\":2058:2072  isOwner[owner] */\n  0x00\n    /* \"contracts/multiSig.sol\":2066:2071  owner */\n  dup4\n    /* \"contracts/multiSig.sol\":2058:2072  isOwner[owner] */\n  0xffffffffffffffffffffffffffffffffffffffff\n  and\n  0xffffffffffffffffffffffffffffffffffffffff\n  and\n  dup2\n  mstore\n  0x20\n  add\n  swap1\n  dup2\n  mstore\n  0x20\n  add\n  0x00\n  keccak256\n  0x00\n    /* \"contracts/multiSig.sol\":2058:2079  isOwner[owner] = true */\n  0x0100\n  exp\n  dup2\n  sload\n  dup2\n  0xff\n  mul\n  not\n  and\n  swap1\n  dup4\n  iszero\n  iszero\n  mul\n  or\n  swap1\n  sstore\n  pop\n    /* \"contracts/multiSig.sol\":2094:2100  owners */\n  0x00\n    /* \"contracts/multiSig.sol\":2106:2111  owner */\n  dup2\n    /* \"contracts/multiSig.sol\":2094:2112  owners.push(owner) */\n  swap1\n  dup1\n  0x01\n  dup2\n  sload\n  add\n  dup1\n  dup3\n  sstore\n  dup1\n  swap2\n  pop\n  pop\n  0x01\n  swap1\n  sub\n  swap1\n  0x00\n  mstore\n  keccak256(0x00, 0x20)\n  add\n  0x00\n  swap1\n  swap2\n  swap1\n  swap2\n  swap1\n  swap2\n  0x0100\n  exp\n  dup2\n  sload\n  dup2\n  0xffffffffffffffffffffffffffffffffffffffff\n  mul\n  not\n  and\n  swap1\n  dup4\n  0xffffffffffffffffffffffffffffffffffffffff\n  and\n  mul\n  or\n  swap1\n  sstore\n  pop\n    /* \"contracts/multiSig.sol\":1757:2175  { //to check if owner and address[0] are not same and they are unique... */\n  pop\n    /* \"contracts/multiSig.sol\":1753:1756  i++ */\n  dup1\n  dup1\n  tag_26\n  swap1\n  tag_27\n  jump\t// in\ntag_26:\n  swap2\n  pop\n  pop\n    /* \"contracts/multiSig.sol\":1724:2175  for(uint i;i< _owners.length;i++){ //to check if owner and address[0] are not same and they are unique... */\n  jump(tag_13)\ntag_14:\n  pop\n    /* \"contracts/multiSig.sol\":2203:2211  _minAuth */\n  dup1\n    /* \"contracts/multiSig.sol\":2186:2202  minAuthorization */\n  0x02\n    /* \"contracts/multiSig.sol\":2186:2211  minAuthorization=_minAuth */\n  dup2\n  swap1\n  sstore\n  pop\n    /* \"contracts/multiSig.sol\":1512:2223  constructor(address[] memory _owners, uint _minAuth){... */\n  pop\n  pop\n    /* \"contracts/multiSig.sol\":28:3902  contract MultisigWallet{... */\n  jump(tag_28)\n    /* \"#utility.yul\":7:82   */\ntag_29:\n    /* \"#utility.yul\":40:46   */\n  0x00\n    /* \"#utility.yul\":73:75   */\n  0x40\n    /* \"#utility.yul\":67:76   */\n  mload\n    /* \"#utility.yul\":57:76   */\n  swap1\n  pop\n    /* \"#utility.yul\":7:82   */\n  swap1\n  jump\t// out\n    /* \"#utility.yul\":88:205   */\ntag_30:\n    /* \"#utility.yul\":197:198   */\n  0x00\n    /* \"#utility.yul\":194:195   */\n  dup1\n    /* \"#utility.yul\":187:199   */\n  revert\n    /* \"#utility.yul\":211:328   */\ntag_31:\n    /* \"#utility.yul\":320:321   */\n  0x00\n    /* \"#utility.yul\":317:318   */\n  dup1\n    /* \"#utility.yul\":310:322   */\n  revert\n    /* \"#utility.yul\":334:451   */\ntag_32:\n    /* \"#utility.yul\":443:444   */\n  0x00\n    /* \"#utility.yul\":440:441   */\n  dup1\n    /* \"#utility.yul\":433:445   */\n  revert\n    /* \"#utility.yul\":457:559   */\ntag_33:\n    /* \"#utility.yul\":498:504   */\n  0x00\n    /* \"#utility.yul\":549:551   */\n  0x1f\n    /* \"#utility.yul\":545:552   */\n  not\n    /* \"#utility.yul\":540:542   */\n  0x1f\n    /* \"#utility.yul\":533:538   */\n  dup4\n    /* \"#utility.yul\":529:543   */\n  add\n    /* \"#utility.yul\":525:553   */\n  and\n    /* \"#utility.yul\":515:553   */\n  swap1\n  pop\n    /* \"#utility.yul\":457:559   */\n  swap2\n  swap1\n  pop\n  jump\t// out\n    /* \"#utility.yul\":565:745   */\ntag_34:\n    /* \"#utility.yul\":613:690   */\n  0x4e487b7100000000000000000000000000000000000000000000000000000000\n    /* \"#utility.yul\":610:611   */\n  0x00\n    /* \"#utility.yul\":603:691   */\n  mstore\n    /* \"#utility.yul\":710:714   */\n  0x41\n    /* \"#utility.yul\":707:708   */\n  0x04\n    /* \"#utility.yul\":700:715   */\n  mstore\n    /* \"#utility.yul\":734:738   */\n  0x24\n    /* \"#utility.yul\":731:732   */\n  0x00\n    /* \"#utility.yul\":724:739   */\n  revert\n    /* \"#utility.yul\":751:1032   */\ntag_35:\n    /* \"#utility.yul\":834:861   */\n  tag_66\n    /* \"#utility.yul\":856:860   */\n  dup3\n    /* \"#utility.yul\":834:861   */\n  tag_33\n  jump\t// in\ntag_66:\n    /* \"#utility.yul\":826:832   */\n  dup2\n    /* \"#utility.yul\":822:862   */\n  add\n    /* \"#utility.yul\":964:970   */\n  dup2\n    /* \"#utility.yul\":952:962   */\n  dup2\n    /* \"#utility.yul\":949:971   */\n  lt\n    /* \"#utility.yul\":928:946   */\n  0xffffffffffffffff\n    /* \"#utility.yul\":916:926   */\n  dup3\n    /* \"#utility.yul\":913:947   */\n  gt\n    /* \"#utility.yul\":910:972   */\n  or\n    /* \"#utility.yul\":907:995   */\n  iszero\n  tag_67\n  jumpi\n    /* \"#utility.yul\":975:993   */\n  tag_68\n  tag_34\n  jump\t// in\ntag_68:\n    /* \"#utility.yul\":907:995   */\ntag_67:\n    /* \"#utility.yul\":1015:1025   */\n  dup1\n    /* \"#utility.yul\":1011:1013   */\n  0x40\n    /* \"#utility.yul\":1004:1026   */\n  mstore\n    /* \"#utility.yul\":794:1032   */\n  pop\n    /* \"#utility.yul\":751:1032   */\n  pop\n  pop\n  jump\t// out\n    /* \"#utility.yul\":1038:1167   */\ntag_36:\n    /* \"#utility.yul\":1072:1078   */\n  0x00\n    /* \"#utility.yul\":1099:1119   */\n  tag_70\n  tag_29\n  jump\t// in\ntag_70:\n    /* \"#utility.yul\":1089:1119   */\n  swap1\n  pop\n    /* \"#utility.yul\":1128:1161   */\n  tag_71\n    /* \"#utility.yul\":1156:1160   */\n  dup3\n    /* \"#utility.yul\":1148:1154   */\n  dup3\n    /* \"#utility.yul\":1128:1161   */\n  tag_35\n  jump\t// in\ntag_71:\n    /* \"#utility.yul\":1038:1167   */\n  swap2\n  swap1\n  pop\n  jump\t// out\n    /* \"#utility.yul\":1173:1484   */\ntag_37:\n    /* \"#utility.yul\":1250:1254   */\n  0x00\n    /* \"#utility.yul\":1340:1358   */\n  0xffffffffffffffff\n    /* \"#utility.yul\":1332:1338   */\n  dup3\n    /* \"#utility.yul\":1329:1359   */\n  gt\n    /* \"#utility.yul\":1326:1382   */\n  iszero\n  tag_73\n  jumpi\n    /* \"#utility.yul\":1362:1380   */\n  tag_74\n  tag_34\n  jump\t// in\ntag_74:\n    /* \"#utility.yul\":1326:1382   */\ntag_73:\n    /* \"#utility.yul\":1412:1416   */\n  0x20\n    /* \"#utility.yul\":1404:1410   */\n  dup3\n    /* \"#utility.yul\":1400:1417   */\n  mul\n    /* \"#utility.yul\":1392:1417   */\n  swap1\n  pop\n    /* \"#utility.yul\":1472:1476   */\n  0x20\n    /* \"#utility.yul\":1466:1470   */\n  dup2\n    /* \"#utility.yul\":1462:1477   */\n  add\n    /* \"#utility.yul\":1454:1477   */\n  swap1\n  pop\n    /* \"#utility.yul\":1173:1484   */\n  swap2\n  swap1\n  pop\n  jump\t// out\n    /* \"#utility.yul\":1490:1607   */\ntag_38:\n    /* \"#utility.yul\":1599:1600   */\n  0x00\n    /* \"#utility.yul\":1596:1597   */\n  dup1\n    /* \"#utility.yul\":1589:1601   */\n  revert\n    /* \"#utility.yul\":1613:1739   */\ntag_39:\n    /* \"#utility.yul\":1650:1657   */\n  0x00\n    /* \"#utility.yul\":1690:1732   */\n  0xffffffffffffffffffffffffffffffffffffffff\n    /* \"#utility.yul\":1683:1688   */\n  dup3\n    /* \"#utility.yul\":1679:1733   */\n  and\n    /* \"#utility.yul\":1668:1733   */\n  swap1\n  pop\n    /* \"#utility.yul\":1613:1739   */\n  swap2\n  swap1\n  pop\n  jump\t// out\n    /* \"#utility.yul\":1745:1841   */\ntag_40:\n    /* \"#utility.yul\":1782:1789   */\n  0x00\n    /* \"#utility.yul\":1811:1835   */\n  tag_78\n    /* \"#utility.yul\":1829:1834   */\n  dup3\n    /* \"#utility.yul\":1811:1835   */\n  tag_39\n  jump\t// in\ntag_78:\n    /* \"#utility.yul\":1800:1835   */\n  swap1\n  pop\n    /* \"#utility.yul\":1745:1841   */\n  swap2\n  swap1\n  pop\n  jump\t// out\n    /* \"#utility.yul\":1847:1969   */\ntag_41:\n    /* \"#utility.yul\":1920:1944   */\n  tag_80\n    /* \"#utility.yul\":1938:1943   */\n  dup2\n    /* \"#utility.yul\":1920:1944   */\n  tag_40\n  jump\t// in\ntag_80:\n    /* \"#utility.yul\":1913:1918   */\n  dup2\n    /* \"#utility.yul\":1910:1945   */\n  eq\n    /* \"#utility.yul\":1900:1963   */\n  tag_81\n  jumpi\n    /* \"#utility.yul\":1959:1960   */\n  0x00\n    /* \"#utility.yul\":1956:1957   */\n  dup1\n    /* \"#utility.yul\":1949:1961   */\n  revert\n    /* \"#utility.yul\":1900:1963   */\ntag_81:\n    /* \"#utility.yul\":1847:1969   */\n  pop\n  jump\t// out\n    /* \"#utility.yul\":1975:2118   */\ntag_42:\n    /* \"#utility.yul\":2032:2037   */\n  0x00\n    /* \"#utility.yul\":2063:2069   */\n  dup2\n    /* \"#utility.yul\":2057:2070   */\n  mload\n    /* \"#utility.yul\":2048:2070   */\n  swap1\n  pop\n    /* \"#utility.yul\":2079:2112   */\n  tag_83\n    /* \"#utility.yul\":2106:2111   */\n  dup2\n    /* \"#utility.yul\":2079:2112   */\n  tag_41\n  jump\t// in\ntag_83:\n    /* \"#utility.yul\":1975:2118   */\n  swap3\n  swap2\n  pop\n  pop\n  jump\t// out\n    /* \"#utility.yul\":2141:2873   */\ntag_43:\n    /* \"#utility.yul\":2248:2253   */\n  0x00\n    /* \"#utility.yul\":2273:2354   */\n  tag_85\n    /* \"#utility.yul\":2289:2353   */\n  tag_86\n    /* \"#utility.yul\":2346:2352   */\n  dup5\n    /* \"#utility.yul\":2289:2353   */\n  tag_37\n  jump\t// in\ntag_86:\n    /* \"#utility.yul\":2273:2354   */\n  tag_36\n  jump\t// in\ntag_85:\n    /* \"#utility.yul\":2264:2354   */\n  swap1\n  pop\n    /* \"#utility.yul\":2374:2379   */\n  dup1\n    /* \"#utility.yul\":2403:2409   */\n  dup4\n    /* \"#utility.yul\":2396:2401   */\n  dup3\n    /* \"#utility.yul\":2389:2410   */\n  mstore\n    /* \"#utility.yul\":2437:2441   */\n  0x20\n    /* \"#utility.yul\":2430:2435   */\n  dup3\n    /* \"#utility.yul\":2426:2442   */\n  add\n    /* \"#utility.yul\":2419:2442   */\n  swap1\n  pop\n    /* \"#utility.yul\":2490:2494   */\n  0x20\n    /* \"#utility.yul\":2482:2488   */\n  dup5\n    /* \"#utility.yul\":2478:2495   */\n  mul\n    /* \"#utility.yul\":2470:2476   */\n  dup4\n    /* \"#utility.yul\":2466:2496   */\n  add\n    /* \"#utility.yul\":2519:2522   */\n  dup6\n    /* \"#utility.yul\":2511:2517   */\n  dup2\n    /* \"#utility.yul\":2508:2523   */\n  gt\n    /* \"#utility.yul\":2505:2627   */\n  iszero\n  tag_87\n  jumpi\n    /* \"#utility.yul\":2538:2617   */\n  tag_88\n  tag_38\n  jump\t// in\ntag_88:\n    /* \"#utility.yul\":2505:2627   */\ntag_87:\n    /* \"#utility.yul\":2653:2659   */\n  dup4\n    /* \"#utility.yul\":2636:2867   */\ntag_89:\n    /* \"#utility.yul\":2670:2676   */\n  dup2\n    /* \"#utility.yul\":2665:2668   */\n  dup2\n    /* \"#utility.yul\":2662:2677   */\n  lt\n    /* \"#utility.yul\":2636:2867   */\n  iszero\n  tag_91\n  jumpi\n    /* \"#utility.yul\":2745:2748   */\n  dup1\n    /* \"#utility.yul\":2774:2822   */\n  tag_92\n    /* \"#utility.yul\":2818:2821   */\n  dup9\n    /* \"#utility.yul\":2806:2816   */\n  dup3\n    /* \"#utility.yul\":2774:2822   */\n  tag_42\n  jump\t// in\ntag_92:\n    /* \"#utility.yul\":2769:2772   */\n  dup5\n    /* \"#utility.yul\":2762:2823   */\n  mstore\n    /* \"#utility.yul\":2852:2856   */\n  0x20\n    /* \"#utility.yul\":2847:2850   */\n  dup5\n    /* \"#utility.yul\":2843:2857   */\n  add\n    /* \"#utility.yul\":2836:2857   */\n  swap4\n  pop\n    /* \"#utility.yul\":2712:2867   */\n  pop\n    /* \"#utility.yul\":2696:2700   */\n  0x20\n    /* \"#utility.yul\":2691:2694   */\n  dup2\n    /* \"#utility.yul\":2687:2701   */\n  add\n    /* \"#utility.yul\":2680:2701   */\n  swap1\n  pop\n    /* \"#utility.yul\":2636:2867   */\n  jump(tag_89)\ntag_91:\n    /* \"#utility.yul\":2640:2661   */\n  pop\n    /* \"#utility.yul\":2254:2873   */\n  pop\n  pop\n    /* \"#utility.yul\":2141:2873   */\n  swap4\n  swap3\n  pop\n  pop\n  pop\n  jump\t// out\n    /* \"#utility.yul\":2896:3281   */\ntag_44:\n    /* \"#utility.yul\":2978:2983   */\n  0x00\n    /* \"#utility.yul\":3027:3030   */\n  dup3\n    /* \"#utility.yul\":3020:3024   */\n  0x1f\n    /* \"#utility.yul\":3012:3018   */\n  dup4\n    /* \"#utility.yul\":3008:3025   */\n  add\n    /* \"#utility.yul\":3004:3031   */\n  slt\n    /* \"#utility.yul\":2994:3116   */\n  tag_94\n  jumpi\n    /* \"#utility.yul\":3035:3114   */\n  tag_95\n  tag_32\n  jump\t// in\ntag_95:\n    /* \"#utility.yul\":2994:3116   */\ntag_94:\n    /* \"#utility.yul\":3145:3151   */\n  dup2\n    /* \"#utility.yul\":3139:3152   */\n  mload\n    /* \"#utility.yul\":3170:3275   */\n  tag_96\n    /* \"#utility.yul\":3271:3274   */\n  dup5\n    /* \"#utility.yul\":3263:3269   */\n  dup3\n    /* \"#utility.yul\":3256:3260   */\n  0x20\n    /* \"#utility.yul\":3248:3254   */\n  dup7\n    /* \"#utility.yul\":3244:3261   */\n  add\n    /* \"#utility.yul\":3170:3275   */\n  tag_43\n  jump\t// in\ntag_96:\n    /* \"#utility.yul\":3161:3275   */\n  swap2\n  pop\n    /* \"#utility.yul\":2984:3281   */\n  pop\n    /* \"#utility.yul\":2896:3281   */\n  swap3\n  swap2\n  pop\n  pop\n  jump\t// out\n    /* \"#utility.yul\":3287:3364   */\ntag_45:\n    /* \"#utility.yul\":3324:3331   */\n  0x00\n    /* \"#utility.yul\":3353:3358   */\n  dup2\n    /* \"#utility.yul\":3342:3358   */\n  swap1\n  pop\n    /* \"#utility.yul\":3287:3364   */\n  swap2\n  swap1\n  pop\n  jump\t// out\n    /* \"#utility.yul\":3370:3492   */\ntag_46:\n    /* \"#utility.yul\":3443:3467   */\n  tag_99\n    /* \"#utility.yul\":3461:3466   */\n  dup2\n    /* \"#utility.yul\":3443:3467   */\n  tag_45\n  jump\t// in\ntag_99:\n    /* \"#utility.yul\":3436:3441   */\n  dup2\n    /* \"#utility.yul\":3433:3468   */\n  eq\n    /* \"#utility.yul\":3423:3486   */\n  tag_100\n  jumpi\n    /* \"#utility.yul\":3482:3483   */\n  0x00\n    /* \"#utility.yul\":3479:3480   */\n  dup1\n    /* \"#utility.yul\":3472:3484   */\n  revert\n    /* \"#utility.yul\":3423:3486   */\ntag_100:\n    /* \"#utility.yul\":3370:3492   */\n  pop\n  jump\t// out\n    /* \"#utility.yul\":3498:3641   */\ntag_47:\n    /* \"#utility.yul\":3555:3560   */\n  0x00\n    /* \"#utility.yul\":3586:3592   */\n  dup2\n    /* \"#utility.yul\":3580:3593   */\n  mload\n    /* \"#utility.yul\":3571:3593   */\n  swap1\n  pop\n    /* \"#utility.yul\":3602:3635   */\n  tag_102\n    /* \"#utility.yul\":3629:3634   */\n  dup2\n    /* \"#utility.yul\":3602:3635   */\n  tag_46\n  jump\t// in\ntag_102:\n    /* \"#utility.yul\":3498:3641   */\n  swap3\n  swap2\n  pop\n  pop\n  jump\t// out\n    /* \"#utility.yul\":3647:4357   */\ntag_3:\n    /* \"#utility.yul\":3751:3757   */\n  0x00\n    /* \"#utility.yul\":3759:3765   */\n  dup1\n    /* \"#utility.yul\":3808:3810   */\n  0x40\n    /* \"#utility.yul\":3796:3805   */\n  dup4\n    /* \"#utility.yul\":3787:3794   */\n  dup6\n    /* \"#utility.yul\":3783:3806   */\n  sub\n    /* \"#utility.yul\":3779:3811   */\n  slt\n    /* \"#utility.yul\":3776:3895   */\n  iszero\n  tag_104\n  jumpi\n    /* \"#utility.yul\":3814:3893   */\n  tag_105\n  tag_30\n  jump\t// in\ntag_105:\n    /* \"#utility.yul\":3776:3895   */\ntag_104:\n    /* \"#utility.yul\":3955:3956   */\n  0x00\n    /* \"#utility.yul\":3944:3953   */\n  dup4\n    /* \"#utility.yul\":3940:3957   */\n  add\n    /* \"#utility.yul\":3934:3958   */\n  mload\n    /* \"#utility.yul\":3985:4003   */\n  0xffffffffffffffff\n    /* \"#utility.yul\":3977:3983   */\n  dup2\n    /* \"#utility.yul\":3974:4004   */\n  gt\n    /* \"#utility.yul\":3971:4088   */\n  iszero\n  tag_106\n  jumpi\n    /* \"#utility.yul\":4007:4086   */\n  tag_107\n  tag_31\n  jump\t// in\ntag_107:\n    /* \"#utility.yul\":3971:4088   */\ntag_106:\n    /* \"#utility.yul\":4112:4201   */\n  tag_108\n    /* \"#utility.yul\":4193:4200   */\n  dup6\n    /* \"#utility.yul\":4184:4190   */\n  dup3\n    /* \"#utility.yul\":4173:4182   */\n  dup7\n    /* \"#utility.yul\":4169:4191   */\n  add\n    /* \"#utility.yul\":4112:4201   */\n  tag_44\n  jump\t// in\ntag_108:\n    /* \"#utility.yul\":4102:4201   */\n  swap3\n  pop\n    /* \"#utility.yul\":3905:4211   */\n  pop\n    /* \"#utility.yul\":4250:4252   */\n  0x20\n    /* \"#utility.yul\":4276:4340   */\n  tag_109\n    /* \"#utility.yul\":4332:4339   */\n  dup6\n    /* \"#utility.yul\":4323:4329   */\n  dup3\n    /* \"#utility.yul\":4312:4321   */\n  dup7\n    /* \"#utility.yul\":4308:4330   */\n  add\n    /* \"#utility.yul\":4276:4340   */\n  tag_47\n  jump\t// in\ntag_109:\n    /* \"#utility.yul\":4266:4340   */\n  swap2\n  pop\n    /* \"#utility.yul\":4221:4350   */\n  pop\n    /* \"#utility.yul\":3647:4357   */\n  swap3\n  pop\n  swap3\n  swap1\n  pop\n  jump\t// out\n    /* \"#utility.yul\":4363:4532   */\ntag_48:\n    /* \"#utility.yul\":4447:4458   */\n  0x00\n    /* \"#utility.yul\":4481:4487   */\n  dup3\n    /* \"#utility.yul\":4476:4479   */\n  dup3\n    /* \"#utility.yul\":4469:4488   */\n  mstore\n    /* \"#utility.yul\":4521:4525   */\n  0x20\n    /* \"#utility.yul\":4516:4519   */\n  dup3\n    /* \"#utility.yul\":4512:4526   */\n  add\n    /* \"#utility.yul\":4497:4526   */\n  swap1\n  pop\n    /* \"#utility.yul\":4363:4532   */\n  swap3\n  swap2\n  pop\n  pop\n  jump\t// out\n    /* \"#utility.yul\":4538:4697   */\ntag_49:\n    /* \"#utility.yul\":4678:4689   */\n  0x4e6f204f776e6572730000000000000000000000000000000000000000000000\n    /* \"#utility.yul\":4674:4675   */\n  0x00\n    /* \"#utility.yul\":4666:4672   */\n  dup3\n    /* \"#utility.yul\":4662:4676   */\n  add\n    /* \"#utility.yul\":4655:4690   */\n  mstore\n    /* \"#utility.yul\":4538:4697   */\n  pop\n  jump\t// out\n    /* \"#utility.yul\":4703:5068   */\ntag_50:\n    /* \"#utility.yul\":4845:4848   */\n  0x00\n    /* \"#utility.yul\":4866:4932   */\n  tag_113\n    /* \"#utility.yul\":4930:4931   */\n  0x09\n    /* \"#utility.yul\":4925:4928   */\n  dup4\n    /* \"#utility.yul\":4866:4932   */\n  tag_48\n  jump\t// in\ntag_113:\n    /* \"#utility.yul\":4859:4932   */\n  swap2\n  pop\n    /* \"#utility.yul\":4941:5034   */\n  tag_114\n    /* \"#utility.yul\":5030:5033   */\n  dup3\n    /* \"#utility.yul\":4941:5034   */\n  tag_49\n  jump\t// in\ntag_114:\n    /* \"#utility.yul\":5059:5061   */\n  0x20\n    /* \"#utility.yul\":5054:5057   */\n  dup3\n    /* \"#utility.yul\":5050:5062   */\n  add\n    /* \"#utility.yul\":5043:5062   */\n  swap1\n  pop\n    /* \"#utility.yul\":4703:5068   */\n  swap2\n  swap1\n  pop\n  jump\t// out\n    /* \"#utility.yul\":5074:5493   */\ntag_8:\n    /* \"#utility.yul\":5240:5244   */\n  0x00\n    /* \"#utility.yul\":5278:5280   */\n  0x20\n    /* \"#utility.yul\":5267:5276   */\n  dup3\n    /* \"#utility.yul\":5263:5281   */\n  add\n    /* \"#utility.yul\":5255:5281   */\n  swap1\n  pop\n    /* \"#utility.yul\":5327:5336   */\n  dup2\n    /* \"#utility.yul\":5321:5325   */\n  dup2\n    /* \"#utility.yul\":5317:5337   */\n  sub\n    /* \"#utility.yul\":5313:5314   */\n  0x00\n    /* \"#utility.yul\":5302:5311   */\n  dup4\n    /* \"#utility.yul\":5298:5315   */\n  add\n    /* \"#utility.yul\":5291:5338   */\n  mstore\n    /* \"#utility.yul\":5355:5486   */\n  tag_116\n    /* \"#utility.yul\":5481:5485   */\n  dup2\n    /* \"#utility.yul\":5355:5486   */\n  tag_50\n  jump\t// in\ntag_116:\n    /* \"#utility.yul\":5347:5486   */\n  swap1\n  pop\n    /* \"#utility.yul\":5074:5493   */\n  swap2\n  swap1\n  pop\n  jump\t// out\n    /* \"#utility.yul\":5499:5665   */\ntag_51:\n    /* \"#utility.yul\":5639:5657   */\n  0x4e6f7420417574686f72697a6564202100000000000000000000000000000000\n    /* \"#utility.yul\":5635:5636   */\n  0x00\n    /* \"#utility.yul\":5627:5633   */\n  dup3\n    /* \"#utility.yul\":5623:5637   */\n  add\n    /* \"#utility.yul\":5616:5658   */\n  mstore\n    /* \"#utility.yul\":5499:5665   */\n  pop\n  jump\t// out\n    /* \"#utility.yul\":5671:6037   */\ntag_52:\n    /* \"#utility.yul\":5813:5816   */\n  0x00\n    /* \"#utility.yul\":5834:5901   */\n  tag_119\n    /* \"#utility.yul\":5898:5900   */\n  0x10\n    /* \"#utility.yul\":5893:5896   */\n  dup4\n    /* \"#utility.yul\":5834:5901   */\n  tag_48\n  jump\t// in\ntag_119:\n    /* \"#utility.yul\":5827:5901   */\n  swap2\n  pop\n    /* \"#utility.yul\":5910:6003   */\n  tag_120\n    /* \"#utility.yul\":5999:6002   */\n  dup3\n    /* \"#utility.yul\":5910:6003   */\n  tag_51\n  jump\t// in\ntag_120:\n    /* \"#utility.yul\":6028:6030   */\n  0x20\n    /* \"#utility.yul\":6023:6026   */\n  dup3\n    /* \"#utility.yul\":6019:6031   */\n  add\n    /* \"#utility.yul\":6012:6031   */\n  swap1\n  pop\n    /* \"#utility.yul\":5671:6037   */\n  swap2\n  swap1\n  pop\n  jump\t// out\n    /* \"#utility.yul\":6043:6462   */\ntag_12:\n    /* \"#utility.yul\":6209:6213   */\n  0x00\n    /* \"#utility.yul\":6247:6249   */\n  0x20\n    /* \"#utility.yul\":6236:6245   */\n  dup3\n    /* \"#utility.yul\":6232:6250   */\n  add\n    /* \"#utility.yul\":6224:6250   */\n  swap1\n  pop\n    /* \"#utility.yul\":6296:6305   */\n  dup2\n    /* \"#utility.yul\":6290:6294   */\n  dup2\n    /* \"#utility.yul\":6286:6306   */\n  sub\n    /* \"#utility.yul\":6282:6283   */\n  0x00\n    /* \"#utility.yul\":6271:6280   */\n  dup4\n    /* \"#utility.yul\":6267:6284   */\n  add\n    /* \"#utility.yul\":6260:6307   */\n  mstore\n    /* \"#utility.yul\":6324:6455   */\n  tag_122\n    /* \"#utility.yul\":6450:6454   */\n  dup2\n    /* \"#utility.yul\":6324:6455   */\n  tag_52\n  jump\t// in\ntag_122:\n    /* \"#utility.yul\":6316:6455   */\n  swap1\n  pop\n    /* \"#utility.yul\":6043:6462   */\n  swap2\n  swap1\n  pop\n  jump\t// out\n    /* \"#utility.yul\":6468:6648   */\ntag_18:\n    /* \"#utility.yul\":6516:6593   */\n  0x4e487b7100000000000000000000000000000000000000000000000000000000\n    /* \"#utility.yul\":6513:6514   */\n  0x00\n    /* \"#utility.yul\":6506:6594   */\n  mstore\n    /* \"#utility.yul\":6613:6617   */\n  0x32\n    /* \"#utility.yul\":6610:6611   */\n  0x04\n    /* \"#utility.yul\":6603:6618   */\n  mstore\n    /* \"#utility.yul\":6637:6641   */\n  0x24\n    /* \"#utility.yul\":6634:6635   */\n  0x00\n    /* \"#utility.yul\":6627:6642   */\n  revert\n    /* \"#utility.yul\":6654:6813   */\ntag_53:\n    /* \"#utility.yul\":6794:6805   */\n  0x4e6f74206f776e65720000000000000000000000000000000000000000000000\n    /* \"#utility.yul\":6790:6791   */\n  0x00\n    /* \"#utility.yul\":6782:6788   */\n  dup3\n    /* \"#utility.yul\":6778:6792   */\n  add\n    /* \"#utility.yul\":6771:6806   */\n  mstore\n    /* \"#utility.yul\":6654:6813   */\n  pop\n  jump\t// out\n    /* \"#utility.yul\":6819:7184   */\ntag_54:\n    /* \"#utility.yul\":6961:6964   */\n  0x00\n    /* \"#utility.yul\":6982:7048   */\n  tag_126\n    /* \"#utility.yul\":7046:7047   */\n  0x09\n    /* \"#utility.yul\":7041:7044   */\n  dup4\n    /* \"#utility.yul\":6982:7048   */\n  tag_48\n  jump\t// in\ntag_126:\n    /* \"#utility.yul\":6975:7048   */\n  swap2\n  pop\n    /* \"#utility.yul\":7057:7150   */\n  tag_127\n    /* \"#utility.yul\":7146:7149   */\n  dup3\n    /* \"#utility.yul\":7057:7150   */\n  tag_53\n  jump\t// in\ntag_127:\n    /* \"#utility.yul\":7175:7177   */\n  0x20\n    /* \"#utility.yul\":7170:7173   */\n  dup3\n    /* \"#utility.yul\":7166:7178   */\n  add\n    /* \"#utility.yul\":7159:7178   */\n  swap1\n  pop\n    /* \"#utility.yul\":6819:7184   */\n  swap2\n  swap1\n  pop\n  jump\t// out\n    /* \"#utility.yul\":7190:7609   */\ntag_21:\n    /* \"#utility.yul\":7356:7360   */\n  0x00\n    /* \"#utility.yul\":7394:7396   */\n  0x20\n    /* \"#utility.yul\":7383:7392   */\n  dup3\n    /* \"#utility.yul\":7379:7397   */\n  add\n    /* \"#utility.yul\":7371:7397   */\n  swap1\n  pop\n    /* \"#utility.yul\":7443:7452   */\n  dup2\n    /* \"#utility.yul\":7437:7441   */\n  dup2\n    /* \"#utility.yul\":7433:7453   */\n  sub\n    /* \"#utility.yul\":7429:7430   */\n  0x00\n    /* \"#utility.yul\":7418:7427   */\n  dup4\n    /* \"#utility.yul\":7414:7431   */\n  add\n    /* \"#utility.yul\":7407:7454   */\n  mstore\n    /* \"#utility.yul\":7471:7602   */\n  tag_129\n    /* \"#utility.yul\":7597:7601   */\n  dup2\n    /* \"#utility.yul\":7471:7602   */\n  tag_54\n  jump\t// in\ntag_129:\n    /* \"#utility.yul\":7463:7602   */\n  swap1\n  pop\n    /* \"#utility.yul\":7190:7609   */\n  swap2\n  swap1\n  pop\n  jump\t// out\n    /* \"#utility.yul\":7615:7791   */\ntag_55:\n    /* \"#utility.yul\":7755:7783   */\n  0x4f776e65727320616c726561647920696e20746865206c697374000000000000\n    /* \"#utility.yul\":7751:7752   */\n  0x00\n    /* \"#utility.yul\":7743:7749   */\n  dup3\n    /* \"#utility.yul\":7739:7753   */\n  add\n    /* \"#utility.yul\":7732:7784   */\n  mstore\n    /* \"#utility.yul\":7615:7791   */\n  pop\n  jump\t// out\n    /* \"#utility.yul\":7797:8163   */\ntag_56:\n    /* \"#utility.yul\":7939:7942   */\n  0x00\n    /* \"#utility.yul\":7960:8027   */\n  tag_132\n    /* \"#utility.yul\":8024:8026   */\n  0x1a\n    /* \"#utility.yul\":8019:8022   */\n  dup4\n    /* \"#utility.yul\":7960:8027   */\n  tag_48\n  jump\t// in\ntag_132:\n    /* \"#utility.yul\":7953:8027   */\n  swap2\n  pop\n    /* \"#utility.yul\":8036:8129   */\n  tag_133\n    /* \"#utility.yul\":8125:8128   */\n  dup3\n    /* \"#utility.yul\":8036:8129   */\n  tag_55\n  jump\t// in\ntag_133:\n    /* \"#utility.yul\":8154:8156   */\n  0x20\n    /* \"#utility.yul\":8149:8152   */\n  dup3\n    /* \"#utility.yul\":8145:8157   */\n  add\n    /* \"#utility.yul\":8138:8157   */\n  swap1\n  pop\n    /* \"#utility.yul\":7797:8163   */\n  swap2\n  swap1\n  pop\n  jump\t// out\n    /* \"#utility.yul\":8169:8588   */\ntag_24:\n    /* \"#utility.yul\":8335:8339   */\n  0x00\n    /* \"#utility.yul\":8373:8375   */\n  0x20\n    /* \"#utility.yul\":8362:8371   */\n  dup3\n    /* \"#utility.yul\":8358:8376   */\n  add\n    /* \"#utility.yul\":8350:8376   */\n  swap1\n  pop\n    /* \"#utility.yul\":8422:8431   */\n  dup2\n    /* \"#utility.yul\":8416:8420   */\n  dup2\n    /* \"#utility.yul\":8412:8432   */\n  sub\n    /* \"#utility.yul\":8408:8409   */\n  0x00\n    /* \"#utility.yul\":8397:8406   */\n  dup4\n    /* \"#utility.yul\":8393:8410   */\n  add\n    /* \"#utility.yul\":8386:8433   */\n  mstore\n    /* \"#utility.yul\":8450:8581   */\n  tag_135\n    /* \"#utility.yul\":8576:8580   */\n  dup2\n    /* \"#utility.yul\":8450:8581   */\n  tag_56\n  jump\t// in\ntag_135:\n    /* \"#utility.yul\":8442:8581   */\n  swap1\n  pop\n    /* \"#utility.yul\":8169:8588   */\n  swap2\n  swap1\n  pop\n  jump\t// out\n    /* \"#utility.yul\":8594:8774   */\ntag_57:\n    /* \"#utility.yul\":8642:8719   */\n  0x4e487b7100000000000000000000000000000000000000000000000000000000\n    /* \"#utility.yul\":8639:8640   */\n  0x00\n    /* \"#utility.yul\":8632:8720   */\n  mstore\n    /* \"#utility.yul\":8739:8743   */\n  0x11\n    /* \"#utility.yul\":8736:8737   */\n  0x04\n    /* \"#utility.yul\":8729:8744   */\n  mstore\n    /* \"#utility.yul\":8763:8767   */\n  0x24\n    /* \"#utility.yul\":8760:8761   */\n  0x00\n    /* \"#utility.yul\":8753:8768   */\n  revert\n    /* \"#utility.yul\":8780:9013   */\ntag_27:\n    /* \"#utility.yul\":8819:8822   */\n  0x00\n    /* \"#utility.yul\":8842:8866   */\n  tag_138\n    /* \"#utility.yul\":8860:8865   */\n  dup3\n    /* \"#utility.yul\":8842:8866   */\n  tag_45\n  jump\t// in\ntag_138:\n    /* \"#utility.yul\":8833:8866   */\n  swap2\n  pop\n    /* \"#utility.yul\":8888:8954   */\n  0xffffffffffffffffffffffffffffffffffffffffffffffffffffffffffffffff\n    /* \"#utility.yul\":8881:8886   */\n  dup3\n    /* \"#utility.yul\":8878:8955   */\n  eq\n    /* \"#utility.yul\":8875:8978   */\n  iszero\n  tag_139\n  jumpi\n    /* \"#utility.yul\":8958:8976   */\n  tag_140\n  tag_57\n  jump\t// in\ntag_140:\n    /* \"#utility.yul\":8875:8978   */\ntag_139:\n    /* \"#utility.yul\":9005:9006   */\n  0x01\n    /* \"#utility.yul\":8998:9003   */\n  dup3\n    /* \"#utility.yul\":8994:9007   */\n  add\n    /* \"#utility.yul\":8987:9007   */\n  swap1\n  pop\n    /* \"#utility.yul\":8780:9013   */\n  swap2\n  swap1\n  pop\n  jump\t// out\n    /* \"contracts/multiSig.sol\":28:3902  contract MultisigWallet{... */\ntag_28:\n  dataSize(sub_0)\n  dup1\n  dataOffset(sub_0)\n  0x00\n  codecopy\n  0x00\n  return\nstop\n\nsub_0: assembly {\n        /* \"contracts/multiSig.sol\":28:3902  contract MultisigWallet{... */\n      mstore(0x40, 0x80)\n      jumpi(tag_1, lt(calldatasize, 0x04))\n      shr(0xe0, calldataload(0x00))\n      dup1\n      0x8253951a\n      gt\n      tag_12\n      jumpi\n      dup1\n      0x8253951a\n      eq\n      tag_7\n      jumpi\n      dup1\n      0x8c97f558\n      eq\n      tag_8\n      jumpi\n      dup1\n      0x9ace38c2\n      eq\n      tag_9\n      jumpi\n      dup1\n      0xb759f954\n      eq\n      tag_10\n      jumpi\n      dup1\n      0xfe0d94c1\n      eq\n      tag_11\n      jumpi\n      jump(tag_2)\n    tag_12:\n      dup1\n      0x025e7c27\n      eq\n      tag_3\n      jumpi\n      dup1\n      0x14de327f\n      eq\n      tag_4\n      jumpi\n      dup1\n      0x20c5429b\n      eq\n      tag_5\n      jumpi\n      dup1\n      0x2f54bf6e\n      eq\n      tag_6\n      jumpi\n      jump(tag_2)\n    tag_1:\n      jumpi(tag_2, calldatasize)\n        /* \"contracts/multiSig.sol\":2283:2293  msg.sender */\n      caller\n        /* \"contracts/multiSig.sol\":2275:2304  Deposit(msg.sender,msg.value) */\n      0xffffffffffffffffffffffffffffffffffffffff\n      and\n      0xe1fffcc4923d04b559f4d29a8bfc6cda04eb5b0d3c460751c2402c5c5cc9109c\n        /* \"contracts/multiSig.sol\":2294:2303  msg.value */\n      callvalue\n        /* \"contracts/multiSig.sol\":2275:2304  Deposit(msg.sender,msg.value) */\n      mload(0x40)\n      tag_15\n      swap2\n      swap1\n      tag_16\n      jump\t// in\n    tag_15:\n      mload(0x40)\n      dup1\n      swap2\n      sub\n      swap1\n      log2\n        /* \"contracts/multiSig.sol\":28:3902  contract MultisigWallet{... */\n      stop\n    tag_2:\n      0x00\n      dup1\n      revert\n        /* \"contracts/multiSig.sol\":442:465  address[] public owners */\n    tag_3:\n      callvalue\n      dup1\n      iszero\n      tag_17\n      jumpi\n      0x00\n      dup1\n      revert\n    tag_17:\n      pop\n      tag_18\n      0x04\n      dup1\n      calldatasize\n      sub\n      dup2\n      add\n      swap1\n      tag_19\n      swap2\n      swap1\n      tag_20\n      jump\t// in\n    tag_19:\n      tag_21\n      jump\t// in\n    tag_18:\n      mload(0x40)\n      tag_22\n      swap2\n      swap1\n      tag_23\n      jump\t// in\n    tag_22:\n      mload(0x40)\n      dup1\n      swap2\n      sub\n      swap1\n      return\n        /* \"contracts/multiSig.sol\":2325:2619  function submit(address _to, uint _value, bytes calldata _data) external onlyOwner{... */\n    tag_4:\n      callvalue\n      dup1\n      iszero\n      tag_24\n      jumpi\n      0x00\n      dup1\n      revert\n    tag_24:\n      pop\n      tag_25\n      0x04\n      dup1\n      calldatasize\n      sub\n      dup2\n      add\n      swap1\n      tag_26\n      swap2\n      swap1\n      tag_27\n      jump\t// in\n    tag_26:\n      tag_28\n      jump\t// in\n    tag_25:\n      stop\n        /* \"contracts/multiSig.sol\":3650:3899  function revoke(uint _txId) external onlyOwner txExists(_txId) notExecuted(_txId){... */\n    tag_5:\n      callvalue\n      dup1\n      iszero\n      tag_29\n      jumpi\n      0x00\n      dup1\n      revert\n    tag_29:\n      pop\n      tag_30\n      0x04\n      dup1\n      calldatasize\n      sub\n      dup2\n      add\n      swap1\n      tag_31\n      swap2\n      swap1\n      tag_20\n      jump\t// in\n    tag_31:\n      tag_32\n      jump\t// in\n    tag_30:\n      stop\n        /* \"contracts/multiSig.sol\":562:601  mapping(address => bool) public isOwner */\n    tag_6:\n      callvalue\n      dup1\n      iszero\n      tag_33\n      jumpi\n      0x00\n      dup1\n      revert\n    tag_33:\n      pop\n      tag_34\n      0x04\n      dup1\n      calldatasize\n      sub\n      dup2\n      add\n      swap1\n      tag_35\n      swap2\n      swap1\n      tag_36\n      jump\t// in\n    tag_35:\n      tag_37\n      jump\t// in\n    tag_34:\n      mload(0x40)\n      tag_38\n      swap2\n      swap1\n      tag_39\n      jump\t// in\n    tag_38:\n      mload(0x40)\n      dup1\n      swap2\n      sub\n      swap1\n      return\n        /* \"contracts/multiSig.sol\":810:867  mapping(uint => mapping(address => bool)) public approved */\n    tag_7:\n      callvalue\n      dup1\n      iszero\n      tag_40\n      jumpi\n      0x00\n      dup1\n      revert\n    tag_40:\n      pop\n      tag_41\n      0x04\n      dup1\n      calldatasize\n      sub\n      dup2\n      add\n      swap1\n      tag_42\n      swap2\n      swap1\n      tag_43\n      jump\t// in\n    tag_42:\n      tag_44\n      jump\t// in\n    tag_41:\n      mload(0x40)\n      tag_45\n      swap2\n      swap1\n      tag_39\n      jump\t// in\n    tag_45:\n      mload(0x40)\n      dup1\n      swap2\n      sub\n      swap1\n      return\n        /* \"contracts/multiSig.sol\":664:692  uint public minAuthorization */\n    tag_8:\n      callvalue\n      dup1\n      iszero\n      tag_46\n      jumpi\n      0x00\n      dup1\n      revert\n    tag_46:\n      pop\n      tag_47\n      tag_48\n      jump\t// in\n    tag_47:\n      mload(0x40)\n      tag_49\n      swap2\n      swap1\n      tag_16\n      jump\t// in\n    tag_49:\n      mload(0x40)\n      dup1\n      swap2\n      sub\n      swap1\n      return\n        /* \"contracts/multiSig.sol\":732:765  Transaction[] public transactions */\n    tag_9:\n      callvalue\n      dup1\n      iszero\n      tag_50\n      jumpi\n      0x00\n      dup1\n      revert\n    tag_50:\n      pop\n      tag_51\n      0x04\n      dup1\n      calldatasize\n      sub\n      dup2\n      add\n      swap1\n      tag_52\n      swap2\n      swap1\n      tag_20\n      jump\t// in\n    tag_52:\n      tag_53\n      jump\t// in\n    tag_51:\n      mload(0x40)\n      tag_54\n      swap5\n      swap4\n      swap3\n      swap2\n      swap1\n      tag_55\n      jump\t// in\n    tag_54:\n      mload(0x40)\n      dup1\n      swap2\n      sub\n      swap1\n      return\n        /* \"contracts/multiSig.sol\":2627:2821  function approve(uint _txId) external onlyOwner txExists(_txId) notApproved(_txId) notExecuted(_txId){ ... */\n    tag_10:\n      callvalue\n      dup1\n      iszero\n      tag_56\n      jumpi\n      0x00\n      dup1\n      revert\n    tag_56:\n      pop\n      tag_57\n      0x04\n      dup1\n      calldatasize\n      sub\n      dup2\n      add\n      swap1\n      tag_58\n      swap2\n      swap1\n      tag_20\n      jump\t// in\n    tag_58:\n      tag_59\n      jump\t// in\n    tag_57:\n      stop\n        /* \"contracts/multiSig.sol\":3170:3642  function execute(uint _txId) external txExists(_txId) notExecuted(_txId){... */\n    tag_11:\n      callvalue\n      dup1\n      iszero\n      tag_60\n      jumpi\n      0x00\n      dup1\n      revert\n    tag_60:\n      pop\n      tag_61\n      0x04\n      dup1\n      calldatasize\n      sub\n      dup2\n      add\n      swap1\n      tag_62\n      swap2\n      swap1\n      tag_20\n      jump\t// in\n    tag_62:\n      tag_63\n      jump\t// in\n    tag_61:\n      stop\n        /* \"contracts/multiSig.sol\":442:465  address[] public owners */\n    tag_21:\n      0x00\n      dup2\n      dup2\n      sload\n      dup2\n      lt\n      tag_64\n      jumpi\n      0x00\n      dup1\n      revert\n    tag_64:\n      swap1\n      0x00\n      mstore\n      keccak256(0x00, 0x20)\n      add\n      0x00\n      swap2\n      pop\n      sload\n      swap1\n      0x0100\n      exp\n      swap1\n      div\n      0xffffffffffffffffffffffffffffffffffffffff\n      and\n      dup2\n      jump\t// out\n        /* \"contracts/multiSig.sol\":2325:2619  function submit(address _to, uint _value, bytes calldata _data) external onlyOwner{... */\n    tag_28:\n        /* \"contracts/multiSig.sol\":972:979  isOwner */\n      0x01\n        /* \"contracts/multiSig.sol\":972:991  isOwner[msg.sender] */\n      0x00\n        /* \"contracts/multiSig.sol\":980:990  msg.sender */\n      caller\n        /* \"contracts/multiSig.sol\":972:991  isOwner[msg.sender] */\n      0xffffffffffffffffffffffffffffffffffffffff\n      and\n      0xffffffffffffffffffffffffffffffffffffffff\n      and\n      dup2\n      mstore\n      0x20\n      add\n      swap1\n      dup2\n      mstore\n      0x20\n      add\n      0x00\n      keccak256\n      0x00\n      swap1\n      sload\n      swap1\n      0x0100\n      exp\n      swap1\n      div\n      0xff\n      and\n        /* \"contracts/multiSig.sol\":964:1004  require(isOwner[msg.sender],\"Not Owner\") */\n      tag_67\n      jumpi\n      mload(0x40)\n      0x08c379a000000000000000000000000000000000000000000000000000000000\n      dup2\n      mstore\n      0x04\n      add\n      tag_68\n      swap1\n      tag_69\n      jump\t// in\n    tag_68:\n      mload(0x40)\n      dup1\n      swap2\n      sub\n      swap1\n      revert\n    tag_67:\n        /* \"contracts/multiSig.sol\":2418:2430  transactions */\n      0x03\n        /* \"contracts/multiSig.sol\":2436:2563  Transaction({... */\n      mload(0x40)\n      dup1\n      0x80\n      add\n      0x40\n      mstore\n      dup1\n        /* \"contracts/multiSig.sol\":2466:2469  _to */\n      dup7\n        /* \"contracts/multiSig.sol\":2436:2563  Transaction({... */\n      0xffffffffffffffffffffffffffffffffffffffff\n      and\n      dup2\n      mstore\n      0x20\n      add\n        /* \"contracts/multiSig.sol\":2490:2496  _value */\n      dup6\n        /* \"contracts/multiSig.sol\":2436:2563  Transaction({... */\n      dup2\n      mstore\n      0x20\n      add\n        /* \"contracts/multiSig.sol\":2516:2521  _data */\n      dup5\n      dup5\n        /* \"contracts/multiSig.sol\":2436:2563  Transaction({... */\n      dup1\n      dup1\n      0x1f\n      add\n      0x20\n      dup1\n      swap2\n      div\n      mul\n      0x20\n      add\n      mload(0x40)\n      swap1\n      dup2\n      add\n      0x40\n      mstore\n      dup1\n      swap4\n      swap3\n      swap2\n      swap1\n      dup2\n      dup2\n      mstore\n      0x20\n      add\n      dup4\n      dup4\n      dup1\n      dup3\n      dup5\n      calldatacopy\n      0x00\n      dup2\n      dup5\n      add\n      mstore\n      not(0x1f)\n      0x1f\n      dup3\n      add\n      and\n      swap1\n      pop\n      dup1\n      dup4\n      add\n      swap3\n      pop\n      pop\n      pop\n      pop\n      pop\n      pop\n      pop\n      dup2\n      mstore\n      0x20\n      add\n        /* \"contracts/multiSig.sol\":2546:2551  false */\n      0x00\n        /* \"contracts/multiSig.sol\":2436:2563  Transaction({... */\n      iszero\n      iszero\n      dup2\n      mstore\n      pop\n        /* \"contracts/multiSig.sol\":2418:2564  transactions.push(Transaction({... */\n      swap1\n      dup1\n      0x01\n      dup2\n      sload\n      add\n      dup1\n      dup3\n      sstore\n      dup1\n      swap2\n      pop\n      pop\n      0x01\n      swap1\n      sub\n      swap1\n      0x00\n      mstore\n      keccak256(0x00, 0x20)\n      swap1\n      0x04\n      mul\n      add\n      0x00\n      swap1\n      swap2\n      swap1\n      swap2\n      swap1\n      swap2\n      pop\n      0x00\n      dup3\n      add\n      mload\n      dup2\n      0x00\n      add\n      exp(0x0100, 0x00)\n      dup2\n      sload\n      dup2\n      0xffffffffffffffffffffffffffffffffffffffff\n      mul\n      not\n      and\n      swap1\n      dup4\n      0xffffffffffffffffffffffffffffffffffffffff\n      and\n      mul\n      or\n      swap1\n      sstore\n      pop\n      0x20\n      dup3\n      add\n      mload\n      dup2\n      0x01\n      add\n      sstore\n      0x40\n      dup3\n      add\n      mload\n      dup2\n      0x02\n      add\n      swap1\n      dup1\n      mload\n      swap1\n      0x20\n      add\n      swap1\n      tag_72\n      swap3\n      swap2\n      swap1\n      tag_73\n      jump\t// in\n    tag_72:\n      pop\n      0x60\n      dup3\n      add\n      mload\n      dup2\n      0x03\n      add\n      exp(0x0100, 0x00)\n      dup2\n      sload\n      dup2\n      0xff\n      mul\n      not\n      and\n      swap1\n      dup4\n      iszero\n      iszero\n      mul\n      or\n      swap1\n      sstore\n      pop\n      pop\n      pop\n        /* \"contracts/multiSig.sol\":2609:2610  1 */\n      0x01\n        /* \"contracts/multiSig.sol\":2587:2599  transactions */\n      0x03\n        /* \"contracts/multiSig.sol\":2587:2606  transactions.length */\n      dup1\n      sload\n      swap1\n      pop\n        /* \"contracts/multiSig.sol\":2587:2610  transactions.length - 1 */\n      tag_74\n      swap2\n      swap1\n      tag_75\n      jump\t// in\n    tag_74:\n        /* \"contracts/multiSig.sol\":2580:2611  Submit(transactions.length - 1) */\n      0x08324b3d745b914e3abd4ffbfead91e3b78391a98c173202129215ab933adfbe\n      mload(0x40)\n      mload(0x40)\n      dup1\n      swap2\n      sub\n      swap1\n      log2\n        /* \"contracts/multiSig.sol\":2325:2619  function submit(address _to, uint _value, bytes calldata _data) external onlyOwner{... */\n      pop\n      pop\n      pop\n      pop\n      jump\t// out\n        /* \"contracts/multiSig.sol\":3650:3899  function revoke(uint _txId) external onlyOwner txExists(_txId) notExecuted(_txId){... */\n    tag_32:\n        /* \"contracts/multiSig.sol\":972:979  isOwner */\n      0x01\n        /* \"contracts/multiSig.sol\":972:991  isOwner[msg.sender] */\n      0x00\n        /* \"contracts/multiSig.sol\":980:990  msg.sender */\n      caller\n        /* \"contracts/multiSig.sol\":972:991  isOwner[msg.sender] */\n      0xffffffffffffffffffffffffffffffffffffffff\n      and\n      0xffffffffffffffffffffffffffffffffffffffff\n      and\n      dup2\n      mstore\n      0x20\n      add\n      swap1\n      dup2\n      mstore\n      0x20\n      add\n      0x00\n      keccak256\n      0x00\n      swap1\n      sload\n      swap1\n      0x0100\n      exp\n      swap1\n      div\n      0xff\n      and\n        /* \"contracts/multiSig.sol\":964:1004  require(isOwner[msg.sender],\"Not Owner\") */\n      tag_77\n      jumpi\n      mload(0x40)\n      0x08c379a000000000000000000000000000000000000000000000000000000000\n      dup2\n      mstore\n      0x04\n      add\n      tag_78\n      swap1\n      tag_69\n      jump\t// in\n    tag_78:\n      mload(0x40)\n      dup1\n      swap2\n      sub\n      swap1\n      revert\n    tag_77:\n        /* \"contracts/multiSig.sol\":3706:3711  _txId */\n      dup1\n        /* \"contracts/multiSig.sol\":1088:1100  transactions */\n      0x03\n        /* \"contracts/multiSig.sol\":1088:1107  transactions.length */\n      dup1\n      sload\n      swap1\n      pop\n        /* \"contracts/multiSig.sol\":1080:1085  _txId */\n      dup2\n        /* \"contracts/multiSig.sol\":1080:1107  _txId < transactions.length */\n      lt\n        /* \"contracts/multiSig.sol\":1072:1137  require(_txId < transactions.length,\"Transaction does not exist\") */\n      tag_80\n      jumpi\n      mload(0x40)\n      0x08c379a000000000000000000000000000000000000000000000000000000000\n      dup2\n      mstore\n      0x04\n      add\n      tag_81\n      swap1\n      tag_82\n      jump\t// in\n    tag_81:\n      mload(0x40)\n      dup1\n      swap2\n      sub\n      swap1\n      revert\n    tag_80:\n        /* \"contracts/multiSig.sol\":3725:3730  _txId */\n      dup2\n        /* \"contracts/multiSig.sol\":1425:1437  transactions */\n      0x03\n        /* \"contracts/multiSig.sol\":1438:1443  _txId */\n      dup2\n        /* \"contracts/multiSig.sol\":1425:1444  transactions[_txId] */\n      dup2\n      sload\n      dup2\n      lt\n      tag_84\n      jumpi\n      tag_85\n      tag_86\n      jump\t// in\n    tag_85:\n    tag_84:\n      swap1\n      0x00\n      mstore\n      keccak256(0x00, 0x20)\n      swap1\n      0x04\n      mul\n      add\n        /* \"contracts/multiSig.sol\":1425:1453  transactions[_txId].executed */\n      0x03\n      add\n      0x00\n      swap1\n      sload\n      swap1\n      0x0100\n      exp\n      swap1\n      div\n      0xff\n      and\n        /* \"contracts/multiSig.sol\":1424:1453  !transactions[_txId].executed */\n      iszero\n        /* \"contracts/multiSig.sol\":1416:1486  require(!transactions[_txId].executed, \"Transaction already executed\") */\n      tag_88\n      jumpi\n      mload(0x40)\n      0x08c379a000000000000000000000000000000000000000000000000000000000\n      dup2\n      mstore\n      0x04\n      add\n      tag_89\n      swap1\n      tag_90\n      jump\t// in\n    tag_89:\n      mload(0x40)\n      dup1\n      swap2\n      sub\n      swap1\n      revert\n    tag_88:\n        /* \"contracts/multiSig.sol\":3750:3758  approved */\n      0x04\n        /* \"contracts/multiSig.sol\":3750:3765  approved[_txId] */\n      0x00\n        /* \"contracts/multiSig.sol\":3759:3764  _txId */\n      dup5\n        /* \"contracts/multiSig.sol\":3750:3765  approved[_txId] */\n      dup2\n      mstore\n      0x20\n      add\n      swap1\n      dup2\n      mstore\n      0x20\n      add\n      0x00\n      keccak256\n        /* \"contracts/multiSig.sol\":3750:3777  approved[_txId][msg.sender] */\n      0x00\n        /* \"contracts/multiSig.sol\":3766:3776  msg.sender */\n      caller\n        /* \"contracts/multiSig.sol\":3750:3777  approved[_txId][msg.sender] */\n      0xffffffffffffffffffffffffffffffffffffffff\n      and\n      0xffffffffffffffffffffffffffffffffffffffff\n      and\n      dup2\n      mstore\n      0x20\n      add\n      swap1\n      dup2\n      mstore\n      0x20\n      add\n      0x00\n      keccak256\n      0x00\n      swap1\n      sload\n      swap1\n      0x0100\n      exp\n      swap1\n      div\n      0xff\n      and\n        /* \"contracts/multiSig.sol\":3742:3805  require(approved[_txId][msg.sender],\"Transaction not approved\") */\n      tag_92\n      jumpi\n      mload(0x40)\n      0x08c379a000000000000000000000000000000000000000000000000000000000\n      dup2\n      mstore\n      0x04\n      add\n      tag_93\n      swap1\n      tag_94\n      jump\t// in\n    tag_93:\n      mload(0x40)\n      dup1\n      swap2\n      sub\n      swap1\n      revert\n    tag_92:\n        /* \"contracts/multiSig.sol\":3846:3851  false */\n      0x00\n        /* \"contracts/multiSig.sol\":3816:3824  approved */\n      0x04\n        /* \"contracts/multiSig.sol\":3816:3831  approved[_txId] */\n      0x00\n        /* \"contracts/multiSig.sol\":3825:3830  _txId */\n      dup6\n        /* \"contracts/multiSig.sol\":3816:3831  approved[_txId] */\n      dup2\n      mstore\n      0x20\n      add\n      swap1\n      dup2\n      mstore\n      0x20\n      add\n      0x00\n      keccak256\n        /* \"contracts/multiSig.sol\":3816:3843  approved[_txId][msg.sender] */\n      0x00\n        /* \"contracts/multiSig.sol\":3832:3842  msg.sender */\n      caller\n        /* \"contracts/multiSig.sol\":3816:3843  approved[_txId][msg.sender] */\n      0xffffffffffffffffffffffffffffffffffffffff\n      and\n      0xffffffffffffffffffffffffffffffffffffffff\n      and\n      dup2\n      mstore\n      0x20\n      add\n      swap1\n      dup2\n      mstore\n      0x20\n      add\n      0x00\n      keccak256\n      0x00\n        /* \"contracts/multiSig.sol\":3816:3851  approved[_txId][msg.sender] = false */\n      0x0100\n      exp\n      dup2\n      sload\n      dup2\n      0xff\n      mul\n      not\n      and\n      swap1\n      dup4\n      iszero\n      iszero\n      mul\n      or\n      swap1\n      sstore\n      pop\n        /* \"contracts/multiSig.sol\":3885:3890  _txId */\n      dup3\n        /* \"contracts/multiSig.sol\":3874:3884  msg.sender */\n      caller\n        /* \"contracts/multiSig.sol\":3867:3891  Revoke(msg.sender,_txId) */\n      0xffffffffffffffffffffffffffffffffffffffff\n      and\n      0xec9ab91322523c899ede7830ec9bfc992b5981cdcc27b91162fb23de5791117b\n      mload(0x40)\n      mload(0x40)\n      dup1\n      swap2\n      sub\n      swap1\n      log3\n        /* \"contracts/multiSig.sol\":1148:1149  _ */\n      pop\n        /* \"contracts/multiSig.sol\":1015:1016  _ */\n      pop\n        /* \"contracts/multiSig.sol\":3650:3899  function revoke(uint _txId) external onlyOwner txExists(_txId) notExecuted(_txId){... */\n      pop\n      jump\t// out\n        /* \"contracts/multiSig.sol\":562:601  mapping(address => bool) public isOwner */\n    tag_37:\n      mstore(0x20, 0x01)\n      dup1\n      0x00\n      mstore\n      keccak256(0x00, 0x40)\n      0x00\n      swap2\n      pop\n      sload\n      swap1\n      0x0100\n      exp\n      swap1\n      div\n      0xff\n      and\n      dup2\n      jump\t// out\n        /* \"contracts/multiSig.sol\":810:867  mapping(uint => mapping(address => bool)) public approved */\n    tag_44:\n      mstore(0x20, 0x04)\n      dup2\n      0x00\n      mstore\n      mstore(0x20, keccak256(0x00, 0x40))\n      dup1\n      0x00\n      mstore\n      keccak256(0x00, 0x40)\n      0x00\n      swap2\n      pop\n      swap2\n      pop\n      swap1\n      sload\n      swap1\n      0x0100\n      exp\n      swap1\n      div\n      0xff\n      and\n      dup2\n      jump\t// out\n        /* \"contracts/multiSig.sol\":664:692  uint public minAuthorization */\n    tag_48:\n      sload(0x02)\n      dup2\n      jump\t// out\n        /* \"contracts/multiSig.sol\":732:765  Transaction[] public transactions */\n    tag_53:\n      0x03\n      dup2\n      dup2\n      sload\n      dup2\n      lt\n      tag_95\n      jumpi\n      0x00\n      dup1\n      revert\n    tag_95:\n      swap1\n      0x00\n      mstore\n      keccak256(0x00, 0x20)\n      swap1\n      0x04\n      mul\n      add\n      0x00\n      swap2\n      pop\n      swap1\n      pop\n      dup1\n      0x00\n      add\n      0x00\n      swap1\n      sload\n      swap1\n      0x0100\n      exp\n      swap1\n      div\n      0xffffffffffffffffffffffffffffffffffffffff\n      and\n      swap1\n      dup1\n      0x01\n      add\n      sload\n      swap1\n      dup1\n      0x02\n      add\n      dup1\n      sload\n      tag_97\n      swap1\n      tag_98\n      jump\t// in\n    tag_97:\n      dup1\n      0x1f\n      add\n      0x20\n      dup1\n      swap2\n      div\n      mul\n      0x20\n      add\n      mload(0x40)\n      swap1\n      dup2\n      add\n      0x40\n      mstore\n      dup1\n      swap3\n      swap2\n      swap1\n      dup2\n      dup2\n      mstore\n      0x20\n      add\n      dup3\n      dup1\n      sload\n      tag_99\n      swap1\n      tag_98\n      jump\t// in\n    tag_99:\n      dup1\n      iszero\n      tag_100\n      jumpi\n      dup1\n      0x1f\n      lt\n      tag_101\n      jumpi\n      0x0100\n      dup1\n      dup4\n      sload\n      div\n      mul\n      dup4\n      mstore\n      swap2\n      0x20\n      add\n      swap2\n      jump(tag_100)\n    tag_101:\n      dup3\n      add\n      swap2\n      swap1\n      0x00\n      mstore\n      keccak256(0x00, 0x20)\n      swap1\n    tag_102:\n      dup2\n      sload\n      dup2\n      mstore\n      swap1\n      0x01\n      add\n      swap1\n      0x20\n      add\n      dup1\n      dup4\n      gt\n      tag_102\n      jumpi\n      dup3\n      swap1\n      sub\n      0x1f\n      and\n      dup3\n      add\n      swap2\n    tag_100:\n      pop\n      pop\n      pop\n      pop\n      pop\n      swap1\n      dup1\n      0x03\n      add\n      0x00\n      swap1\n      sload\n      swap1\n      0x0100\n      exp\n      swap1\n      div\n      0xff\n      and\n      swap1\n      pop\n      dup5\n      jump\t// out\n        /* \"contracts/multiSig.sol\":2627:2821  function approve(uint _txId) external onlyOwner txExists(_txId) notApproved(_txId) notExecuted(_txId){ ... */\n    tag_59:\n        /* \"contracts/multiSig.sol\":972:979  isOwner */\n      0x01\n        /* \"contracts/multiSig.sol\":972:991  isOwner[msg.sender] */\n      0x00\n        /* \"contracts/multiSig.sol\":980:990  msg.sender */\n      caller\n        /* \"contracts/multiSig.sol\":972:991  isOwner[msg.sender] */\n      0xffffffffffffffffffffffffffffffffffffffff\n      and\n      0xffffffffffffffffffffffffffffffffffffffff\n      and\n      dup2\n      mstore\n      0x20\n      add\n      swap1\n      dup2\n      mstore\n      0x20\n      add\n      0x00\n      keccak256\n      0x00\n      swap1\n      sload\n      swap1\n      0x0100\n      exp\n      swap1\n      div\n      0xff\n      and\n        /* \"contracts/multiSig.sol\":964:1004  require(isOwner[msg.sender],\"Not Owner\") */\n      tag_104\n      jumpi\n      mload(0x40)\n      0x08c379a000000000000000000000000000000000000000000000000000000000\n      dup2\n      mstore\n      0x04\n      add\n      tag_105\n      swap1\n      tag_69\n      jump\t// in\n    tag_105:\n      mload(0x40)\n      dup1\n      swap2\n      sub\n      swap1\n      revert\n    tag_104:\n        /* \"contracts/multiSig.sol\":2684:2689  _txId */\n      dup1\n        /* \"contracts/multiSig.sol\":1088:1100  transactions */\n      0x03\n        /* \"contracts/multiSig.sol\":1088:1107  transactions.length */\n      dup1\n      sload\n      swap1\n      pop\n        /* \"contracts/multiSig.sol\":1080:1085  _txId */\n      dup2\n        /* \"contracts/multiSig.sol\":1080:1107  _txId < transactions.length */\n      lt\n        /* \"contracts/multiSig.sol\":1072:1137  require(_txId < transactions.length,\"Transaction does not exist\") */\n      tag_107\n      jumpi\n      mload(0x40)\n      0x08c379a000000000000000000000000000000000000000000000000000000000\n      dup2\n      mstore\n      0x04\n      add\n      tag_108\n      swap1\n      tag_82\n      jump\t// in\n    tag_108:\n      mload(0x40)\n      dup1\n      swap2\n      sub\n      swap1\n      revert\n    tag_107:\n        /* \"contracts/multiSig.sol\":2703:2708  _txId */\n      dup2\n        /* \"contracts/multiSig.sol\":1221:1229  approved */\n      0x04\n        /* \"contracts/multiSig.sol\":1221:1236  approved[_txId] */\n      0x00\n        /* \"contracts/multiSig.sol\":1230:1235  _txId */\n      dup3\n        /* \"contracts/multiSig.sol\":1221:1236  approved[_txId] */\n      dup2\n      mstore\n      0x20\n      add\n      swap1\n      dup2\n      mstore\n      0x20\n      add\n      0x00\n      keccak256\n        /* \"contracts/multiSig.sol\":1221:1248  approved[_txId][msg.sender] */\n      0x00\n        /* \"contracts/multiSig.sol\":1237:1247  msg.sender */\n      caller\n        /* \"contracts/multiSig.sol\":1221:1248  approved[_txId][msg.sender] */\n      0xffffffffffffffffffffffffffffffffffffffff\n      and\n      0xffffffffffffffffffffffffffffffffffffffff\n      and\n      dup2\n      mstore\n      0x20\n      add\n      swap1\n      dup2\n      mstore\n      0x20\n      add\n      0x00\n      keccak256\n      0x00\n      swap1\n      sload\n      swap1\n      0x0100\n      exp\n      swap1\n      div\n      0xff\n      and\n        /* \"contracts/multiSig.sol\":1220:1248  !approved[_txId][msg.sender] */\n      iszero\n        /* \"contracts/multiSig.sol\":1212:1280  require(!approved[_txId][msg.sender],\"Transaction already approved\") */\n      tag_110\n      jumpi\n      mload(0x40)\n      0x08c379a000000000000000000000000000000000000000000000000000000000\n      dup2\n      mstore\n      0x04\n      add\n      tag_111\n      swap1\n      tag_112\n      jump\t// in\n    tag_111:\n      mload(0x40)\n      dup1\n      swap2\n      sub\n      swap1\n      revert\n    tag_110:\n        /* \"contracts/multiSig.sol\":2722:2727  _txId */\n      dup3\n        /* \"contracts/multiSig.sol\":1425:1437  transactions */\n      0x03\n        /* \"contracts/multiSig.sol\":1438:1443  _txId */\n      dup2\n        /* \"contracts/multiSig.sol\":1425:1444  transactions[_txId] */\n      dup2\n      sload\n      dup2\n      lt\n      tag_114\n      jumpi\n      tag_115\n      tag_86\n      jump\t// in\n    tag_115:\n    tag_114:\n      swap1\n      0x00\n      mstore\n      keccak256(0x00, 0x20)\n      swap1\n      0x04\n      mul\n      add\n        /* \"contracts/multiSig.sol\":1425:1453  transactions[_txId].executed */\n      0x03\n      add\n      0x00\n      swap1\n      sload\n      swap1\n      0x0100\n      exp\n      swap1\n      div\n      0xff\n      and\n        /* \"contracts/multiSig.sol\":1424:1453  !transactions[_txId].executed */\n      iszero\n        /* \"contracts/multiSig.sol\":1416:1486  require(!transactions[_txId].executed, \"Transaction already executed\") */\n      tag_117\n      jumpi\n      mload(0x40)\n      0x08c379a000000000000000000000000000000000000000000000000000000000\n      dup2\n      mstore\n      0x04\n      add\n      tag_118\n      swap1\n      tag_90\n      jump\t// in\n    tag_118:\n      mload(0x40)\n      dup1\n      swap2\n      sub\n      swap1\n      revert\n    tag_117:\n        /* \"contracts/multiSig.sol\":2768:2772  true */\n      0x01\n        /* \"contracts/multiSig.sol\":2740:2748  approved */\n      0x04\n        /* \"contracts/multiSig.sol\":2740:2755  approved[_txId] */\n      0x00\n        /* \"contracts/multiSig.sol\":2749:2754  _txId */\n      dup7\n        /* \"contracts/multiSig.sol\":2740:2755  approved[_txId] */\n      dup2\n      mstore\n      0x20\n      add\n      swap1\n      dup2\n      mstore\n      0x20\n      add\n      0x00\n      keccak256\n        /* \"contracts/multiSig.sol\":2740:2767  approved[_txId][msg.sender] */\n      0x00\n        /* \"contracts/multiSig.sol\":2756:2766  msg.sender */\n      caller\n        /* \"contracts/multiSig.sol\":2740:2767  approved[_txId][msg.sender] */\n      0xffffffffffffffffffffffffffffffffffffffff\n      and\n      0xffffffffffffffffffffffffffffffffffffffff\n      and\n      dup2\n      mstore\n      0x20\n      add\n      swap1\n      dup2\n      mstore\n      0x20\n      add\n      0x00\n      keccak256\n      0x00\n        /* \"contracts/multiSig.sol\":2740:2772  approved[_txId][msg.sender]=true */\n      0x0100\n      exp\n      dup2\n      sload\n      dup2\n      0xff\n      mul\n      not\n      and\n      swap1\n      dup4\n      iszero\n      iszero\n      mul\n      or\n      swap1\n      sstore\n      pop\n        /* \"contracts/multiSig.sol\":2807:2812  _txId */\n      dup4\n        /* \"contracts/multiSig.sol\":2796:2806  msg.sender */\n      caller\n        /* \"contracts/multiSig.sol\":2788:2813  Approve(msg.sender,_txId) */\n      0xffffffffffffffffffffffffffffffffffffffff\n      and\n      0x90ec57f18fa7b15c6b8d5e4d1deb90796c74b2ff23d4d0cecad0cb42a96b3128\n      mload(0x40)\n      mload(0x40)\n      dup1\n      swap2\n      sub\n      swap1\n      log3\n        /* \"contracts/multiSig.sol\":1291:1292  _ */\n      pop\n        /* \"contracts/multiSig.sol\":1148:1149  _ */\n      pop\n        /* \"contracts/multiSig.sol\":1015:1016  _ */\n      pop\n        /* \"contracts/multiSig.sol\":2627:2821  function approve(uint _txId) external onlyOwner txExists(_txId) notApproved(_txId) notExecuted(_txId){ ... */\n      pop\n      jump\t// out\n        /* \"contracts/multiSig.sol\":3170:3642  function execute(uint _txId) external txExists(_txId) notExecuted(_txId){... */\n    tag_63:\n        /* \"contracts/multiSig.sol\":3217:3222  _txId */\n      dup1\n        /* \"contracts/multiSig.sol\":1088:1100  transactions */\n      0x03\n        /* \"contracts/multiSig.sol\":1088:1107  transactions.length */\n      dup1\n      sload\n      swap1\n      pop\n        /* \"contracts/multiSig.sol\":1080:1085  _txId */\n      dup2\n        /* \"contracts/multiSig.sol\":1080:1107  _txId < transactions.length */\n      lt\n        /* \"contracts/multiSig.sol\":1072:1137  require(_txId < transactions.length,\"Transaction does not exist\") */\n      tag_121\n      jumpi\n      mload(0x40)\n      0x08c379a000000000000000000000000000000000000000000000000000000000\n      dup2\n      mstore\n      0x04\n      add\n      tag_122\n      swap1\n      tag_82\n      jump\t// in\n    tag_122:\n      mload(0x40)\n      dup1\n      swap2\n      sub\n      swap1\n      revert\n    tag_121:\n        /* \"contracts/multiSig.sol\":3236:3241  _txId */\n      dup2\n        /* \"contracts/multiSig.sol\":1425:1437  transactions */\n      0x03\n        /* \"contracts/multiSig.sol\":1438:1443  _txId */\n      dup2\n        /* \"contracts/multiSig.sol\":1425:1444  transactions[_txId] */\n      dup2\n      sload\n      dup2\n      lt\n      tag_124\n      jumpi\n      tag_125\n      tag_86\n      jump\t// in\n    tag_125:\n    tag_124:\n      swap1\n      0x00\n      mstore\n      keccak256(0x00, 0x20)\n      swap1\n      0x04\n      mul\n      add\n        /* \"contracts/multiSig.sol\":1425:1453  transactions[_txId].executed */\n      0x03\n      add\n      0x00\n      swap1\n      sload\n      swap1\n      0x0100\n      exp\n      swap1\n      div\n      0xff\n      and\n        /* \"contracts/multiSig.sol\":1424:1453  !transactions[_txId].executed */\n      iszero\n        /* \"contracts/multiSig.sol\":1416:1486  require(!transactions[_txId].executed, \"Transaction already executed\") */\n      tag_127\n      jumpi\n      mload(0x40)\n      0x08c379a000000000000000000000000000000000000000000000000000000000\n      dup2\n      mstore\n      0x04\n      add\n      tag_128\n      swap1\n      tag_90\n      jump\t// in\n    tag_128:\n      mload(0x40)\n      dup1\n      swap2\n      sub\n      swap1\n      revert\n    tag_127:\n        /* \"contracts/multiSig.sol\":3282:3298  minAuthorization */\n      sload(0x02)\n        /* \"contracts/multiSig.sol\":3261:3280  ApproveCount(_txId) */\n      tag_130\n        /* \"contracts/multiSig.sol\":3274:3279  _txId */\n      dup5\n        /* \"contracts/multiSig.sol\":3261:3273  ApproveCount */\n      tag_131\n        /* \"contracts/multiSig.sol\":3261:3280  ApproveCount(_txId) */\n      jump\t// in\n    tag_130:\n        /* \"contracts/multiSig.sol\":3261:3298  ApproveCount(_txId)>=minAuthorization */\n      lt\n      iszero\n        /* \"contracts/multiSig.sol\":3253:3333  require(ApproveCount(_txId)>=minAuthorization,\"approvals are not more than 60%\") */\n      tag_132\n      jumpi\n      mload(0x40)\n      0x08c379a000000000000000000000000000000000000000000000000000000000\n      dup2\n      mstore\n      0x04\n      add\n      tag_133\n      swap1\n      tag_134\n      jump\t// in\n    tag_133:\n      mload(0x40)\n      dup1\n      swap2\n      sub\n      swap1\n      revert\n    tag_132:\n        /* \"contracts/multiSig.sol\":3344:3375  Transaction storage transaction */\n      0x00\n        /* \"contracts/multiSig.sol\":3378:3390  transactions */\n      0x03\n        /* \"contracts/multiSig.sol\":3391:3396  _txId */\n      dup5\n        /* \"contracts/multiSig.sol\":3378:3397  transactions[_txId] */\n      dup2\n      sload\n      dup2\n      lt\n      tag_135\n      jumpi\n      tag_136\n      tag_86\n      jump\t// in\n    tag_136:\n    tag_135:\n      swap1\n      0x00\n      mstore\n      keccak256(0x00, 0x20)\n      swap1\n      0x04\n      mul\n      add\n        /* \"contracts/multiSig.sol\":3344:3397  Transaction storage transaction = transactions[_txId] */\n      swap1\n      pop\n        /* \"contracts/multiSig.sol\":3433:3437  true */\n      0x01\n        /* \"contracts/multiSig.sol\":3410:3421  transaction */\n      dup2\n        /* \"contracts/multiSig.sol\":3410:3430  transaction.executed */\n      0x03\n      add\n      0x00\n        /* \"contracts/multiSig.sol\":3410:3437  transaction.executed = true */\n      0x0100\n      exp\n      dup2\n      sload\n      dup2\n      0xff\n      mul\n      not\n      and\n      swap1\n      dup4\n      iszero\n      iszero\n      mul\n      or\n      swap1\n      sstore\n      pop\n        /* \"contracts/multiSig.sol\":3451:3463  bool success */\n      0x00\n        /* \"contracts/multiSig.sol\":3467:3478  transaction */\n      dup2\n        /* \"contracts/multiSig.sol\":3467:3481  transaction.to */\n      0x00\n      add\n      0x00\n      swap1\n      sload\n      swap1\n      0x0100\n      exp\n      swap1\n      div\n      0xffffffffffffffffffffffffffffffffffffffff\n      and\n        /* \"contracts/multiSig.sol\":3467:3486  transaction.to.call */\n      0xffffffffffffffffffffffffffffffffffffffff\n      and\n        /* \"contracts/multiSig.sol\":3494:3505  transaction */\n      dup3\n        /* \"contracts/multiSig.sol\":3494:3511  transaction.value */\n      0x01\n      add\n      sload\n        /* \"contracts/multiSig.sol\":3527:3538  transaction */\n      dup4\n        /* \"contracts/multiSig.sol\":3527:3543  transaction.data */\n      0x02\n      add\n        /* \"contracts/multiSig.sol\":3467:3554  transaction.to.call{value: transaction.value}(... */\n      mload(0x40)\n      tag_138\n      swap2\n      swap1\n      tag_139\n      jump\t// in\n    tag_138:\n      0x00\n      mload(0x40)\n      dup1\n      dup4\n      sub\n      dup2\n      dup6\n      dup8\n      gas\n      call\n      swap3\n      pop\n      pop\n      pop\n      returndatasize\n      dup1\n      0x00\n      dup2\n      eq\n      tag_142\n      jumpi\n      mload(0x40)\n      swap2\n      pop\n      and(add(returndatasize, 0x3f), not(0x1f))\n      dup3\n      add\n      0x40\n      mstore\n      returndatasize\n      dup3\n      mstore\n      returndatasize\n      0x00\n      0x20\n      dup5\n      add\n      returndatacopy\n      jump(tag_141)\n    tag_142:\n      0x60\n      swap2\n      pop\n    tag_141:\n      pop\n        /* \"contracts/multiSig.sol\":3450:3554  (bool success, )=transaction.to.call{value: transaction.value}(... */\n      pop\n      swap1\n      pop\n        /* \"contracts/multiSig.sol\":3573:3580  success */\n      dup1\n        /* \"contracts/multiSig.sol\":3565:3602  require(success,\"Transaction failed\") */\n      tag_143\n      jumpi\n      mload(0x40)\n      0x08c379a000000000000000000000000000000000000000000000000000000000\n      dup2\n      mstore\n      0x04\n      add\n      tag_144\n      swap1\n      tag_145\n      jump\t// in\n    tag_144:\n      mload(0x40)\n      dup1\n      swap2\n      sub\n      swap1\n      revert\n    tag_143:\n        /* \"contracts/multiSig.sol\":3628:3633  _txId */\n      dup5\n        /* \"contracts/multiSig.sol\":3620:3634  Execute(_txId) */\n      0xddb556f1d2c1ec821e910b019d3685b229db152a0ecd517ca7e24b8bd7139289\n      mload(0x40)\n      mload(0x40)\n      dup1\n      swap2\n      sub\n      swap1\n      log2\n        /* \"contracts/multiSig.sol\":3242:3642  {... */\n      pop\n      pop\n        /* \"contracts/multiSig.sol\":1148:1149  _ */\n      pop\n        /* \"contracts/multiSig.sol\":3170:3642  function execute(uint _txId) external txExists(_txId) notExecuted(_txId){... */\n      pop\n      pop\n      jump\t// out\n        /* \"contracts/multiSig.sol\":2829:3162  function ApproveCount(uint _txId) private view returns(uint){... */\n    tag_131:\n        /* \"contracts/multiSig.sol\":2884:2888  uint */\n      0x00\n        /* \"contracts/multiSig.sol\":2900:2910  uint count */\n      dup1\n        /* \"contracts/multiSig.sol\":2911:2912  0 */\n      0x00\n        /* \"contracts/multiSig.sol\":2900:2912  uint count=0 */\n      swap1\n      pop\n        /* \"contracts/multiSig.sol\":2927:2933  uint i */\n      0x00\n        /* \"contracts/multiSig.sol\":2923:3053  for(uint i;i<owners.length;i++){... */\n    tag_147:\n        /* \"contracts/multiSig.sol\":2936:2942  owners */\n      0x00\n        /* \"contracts/multiSig.sol\":2936:2949  owners.length */\n      dup1\n      sload\n      swap1\n      pop\n        /* \"contracts/multiSig.sol\":2934:2935  i */\n      dup2\n        /* \"contracts/multiSig.sol\":2934:2949  i<owners.length */\n      lt\n        /* \"contracts/multiSig.sol\":2923:3053  for(uint i;i<owners.length;i++){... */\n      iszero\n      tag_148\n      jumpi\n        /* \"contracts/multiSig.sol\":2972:2980  approved */\n      0x04\n        /* \"contracts/multiSig.sol\":2972:2987  approved[_txId] */\n      0x00\n        /* \"contracts/multiSig.sol\":2981:2986  _txId */\n      dup6\n        /* \"contracts/multiSig.sol\":2972:2987  approved[_txId] */\n      dup2\n      mstore\n      0x20\n      add\n      swap1\n      dup2\n      mstore\n      0x20\n      add\n      0x00\n      keccak256\n        /* \"contracts/multiSig.sol\":2972:2998  approved[_txId][owners[i]] */\n      0x00\n        /* \"contracts/multiSig.sol\":2988:2994  owners */\n      dup1\n        /* \"contracts/multiSig.sol\":2995:2996  i */\n      dup4\n        /* \"contracts/multiSig.sol\":2988:2997  owners[i] */\n      dup2\n      sload\n      dup2\n      lt\n      tag_150\n      jumpi\n      tag_151\n      tag_86\n      jump\t// in\n    tag_151:\n    tag_150:\n      swap1\n      0x00\n      mstore\n      keccak256(0x00, 0x20)\n      add\n      0x00\n      swap1\n      sload\n      swap1\n      0x0100\n      exp\n      swap1\n      div\n      0xffffffffffffffffffffffffffffffffffffffff\n      and\n        /* \"contracts/multiSig.sol\":2972:2998  approved[_txId][owners[i]] */\n      0xffffffffffffffffffffffffffffffffffffffff\n      and\n      0xffffffffffffffffffffffffffffffffffffffff\n      and\n      dup2\n      mstore\n      0x20\n      add\n      swap1\n      dup2\n      mstore\n      0x20\n      add\n      0x00\n      keccak256\n      0x00\n      swap1\n      sload\n      swap1\n      0x0100\n      exp\n      swap1\n      div\n      0xff\n      and\n        /* \"contracts/multiSig.sol\":2969:3042  if(approved[_txId][owners[i]]){... */\n      iszero\n      tag_153\n      jumpi\n        /* \"contracts/multiSig.sol\":3025:3026  1 */\n      0x01\n        /* \"contracts/multiSig.sol\":3018:3026  count+=1 */\n      dup3\n      tag_154\n      swap2\n      swap1\n      tag_155\n      jump\t// in\n    tag_154:\n      swap2\n      pop\n        /* \"contracts/multiSig.sol\":2969:3042  if(approved[_txId][owners[i]]){... */\n    tag_153:\n        /* \"contracts/multiSig.sol\":2950:2953  i++ */\n      dup1\n      dup1\n      tag_156\n      swap1\n      tag_157\n      jump\t// in\n    tag_156:\n      swap2\n      pop\n      pop\n        /* \"contracts/multiSig.sol\":2923:3053  for(uint i;i<owners.length;i++){... */\n      jump(tag_147)\n    tag_148:\n      pop\n        /* \"contracts/multiSig.sol\":2889:3162  {... */\n      pop\n        /* \"contracts/multiSig.sol\":2829:3162  function ApproveCount(uint _txId) private view returns(uint){... */\n      swap2\n      swap1\n      pop\n      jump\t// out\n    tag_73:\n      dup3\n      dup1\n      sload\n      tag_158\n      swap1\n      tag_98\n      jump\t// in\n    tag_158:\n      swap1\n      0x00\n      mstore\n      keccak256(0x00, 0x20)\n      swap1\n      0x1f\n      add\n      0x20\n      swap1\n      div\n      dup2\n      add\n      swap3\n      dup3\n      tag_160\n      jumpi\n      0x00\n      dup6\n      sstore\n      jump(tag_159)\n    tag_160:\n      dup3\n      0x1f\n      lt\n      tag_161\n      jumpi\n      dup1\n      mload\n      not(0xff)\n      and\n      dup4\n      dup1\n      add\n      or\n      dup6\n      sstore\n      jump(tag_159)\n    tag_161:\n      dup3\n      dup1\n      add\n      0x01\n      add\n      dup6\n      sstore\n      dup3\n      iszero\n      tag_159\n      jumpi\n      swap2\n      dup3\n      add\n    tag_162:\n      dup3\n      dup2\n      gt\n      iszero\n      tag_163\n      jumpi\n      dup3\n      mload\n      dup3\n      sstore\n      swap2\n      0x20\n      add\n      swap2\n      swap1\n      0x01\n      add\n      swap1\n      jump(tag_162)\n    tag_163:\n    tag_159:\n      pop\n      swap1\n      pop\n      tag_164\n      swap2\n      swap1\n      tag_165\n      jump\t// in\n    tag_164:\n      pop\n      swap1\n      jump\t// out\n    tag_165:\n    tag_166:\n      dup1\n      dup3\n      gt\n      iszero\n      tag_167\n      jumpi\n      0x00\n      dup2\n      0x00\n      swap1\n      sstore\n      pop\n      0x01\n      add\n      jump(tag_166)\n    tag_167:\n      pop\n      swap1\n      jump\t// out\n        /* \"#utility.yul\":7:84   */\n    tag_168:\n        /* \"#utility.yul\":44:51   */\n      0x00\n        /* \"#utility.yul\":73:78   */\n      dup2\n        /* \"#utility.yul\":62:78   */\n      swap1\n      pop\n        /* \"#utility.yul\":7:84   */\n      swap2\n      swap1\n      pop\n      jump\t// out\n        /* \"#utility.yul\":90:208   */\n    tag_169:\n        /* \"#utility.yul\":177:201   */\n      tag_214\n        /* \"#utility.yul\":195:200   */\n      dup2\n        /* \"#utility.yul\":177:201   */\n      tag_168\n      jump\t// in\n    tag_214:\n        /* \"#utility.yul\":172:175   */\n      dup3\n        /* \"#utility.yul\":165:202   */\n      mstore\n        /* \"#utility.yul\":90:208   */\n      pop\n      pop\n      jump\t// out\n        /* \"#utility.yul\":214:436   */\n    tag_16:\n        /* \"#utility.yul\":307:311   */\n      0x00\n        /* \"#utility.yul\":345:347   */\n      0x20\n        /* \"#utility.yul\":334:343   */\n      dup3\n        /* \"#utility.yul\":330:348   */\n      add\n        /* \"#utility.yul\":322:348   */\n      swap1\n      pop\n        /* \"#utility.yul\":358:429   */\n      tag_216\n        /* \"#utility.yul\":426:427   */\n      0x00\n        /* \"#utility.yul\":415:424   */\n      dup4\n        /* \"#utility.yul\":411:428   */\n      add\n        /* \"#utility.yul\":402:408   */\n      dup5\n        /* \"#utility.yul\":358:429   */\n      tag_169\n      jump\t// in\n    tag_216:\n        /* \"#utility.yul\":214:436   */\n      swap3\n      swap2\n      pop\n      pop\n      jump\t// out\n        /* \"#utility.yul\":523:640   */\n    tag_171:\n        /* \"#utility.yul\":632:633   */\n      0x00\n        /* \"#utility.yul\":629:630   */\n      dup1\n        /* \"#utility.yul\":622:634   */\n      revert\n        /* \"#utility.yul\":646:763   */\n    tag_172:\n        /* \"#utility.yul\":755:756   */\n      0x00\n        /* \"#utility.yul\":752:753   */\n      dup1\n        /* \"#utility.yul\":745:757   */\n      revert\n        /* \"#utility.yul\":769:891   */\n    tag_173:\n        /* \"#utility.yul\":842:866   */\n      tag_221\n        /* \"#utility.yul\":860:865   */\n      dup2\n        /* \"#utility.yul\":842:866   */\n      tag_168\n      jump\t// in\n    tag_221:\n        /* \"#utility.yul\":835:840   */\n      dup2\n        /* \"#utility.yul\":832:867   */\n      eq\n        /* \"#utility.yul\":822:885   */\n      tag_222\n      jumpi\n        /* \"#utility.yul\":881:882   */\n      0x00\n        /* \"#utility.yul\":878:879   */\n      dup1\n        /* \"#utility.yul\":871:883   */\n      revert\n        /* \"#utility.yul\":822:885   */\n    tag_222:\n        /* \"#utility.yul\":769:891   */\n      pop\n      jump\t// out\n        /* \"#utility.yul\":897:1036   */\n    tag_174:\n        /* \"#utility.yul\":943:948   */\n      0x00\n        /* \"#utility.yul\":981:987   */\n      dup2\n        /* \"#utility.yul\":968:988   */\n      calldataload\n        /* \"#utility.yul\":959:988   */\n      swap1\n      pop\n        /* \"#utility.yul\":997:1030   */\n      tag_224\n        /* \"#utility.yul\":1024:1029   */\n      dup2\n        /* \"#utility.yul\":997:1030   */\n      tag_173\n      jump\t// in\n    tag_224:\n        /* \"#utility.yul\":897:1036   */\n      swap3\n      swap2\n      pop\n      pop\n      jump\t// out\n        /* \"#utility.yul\":1042:1371   */\n    tag_20:\n        /* \"#utility.yul\":1101:1107   */\n      0x00\n        /* \"#utility.yul\":1150:1152   */\n      0x20\n        /* \"#utility.yul\":1138:1147   */\n      dup3\n        /* \"#utility.yul\":1129:1136   */\n      dup5\n        /* \"#utility.yul\":1125:1148   */\n      sub\n        /* \"#utility.yul\":1121:1153   */\n      slt\n        /* \"#utility.yul\":1118:1237   */\n      iszero\n      tag_226\n      jumpi\n        /* \"#utility.yul\":1156:1235   */\n      tag_227\n      tag_171\n      jump\t// in\n    tag_227:\n        /* \"#utility.yul\":1118:1237   */\n    tag_226:\n        /* \"#utility.yul\":1276:1277   */\n      0x00\n        /* \"#utility.yul\":1301:1354   */\n      tag_228\n        /* \"#utility.yul\":1346:1353   */\n      dup5\n        /* \"#utility.yul\":1337:1343   */\n      dup3\n        /* \"#utility.yul\":1326:1335   */\n      dup6\n        /* \"#utility.yul\":1322:1344   */\n      add\n        /* \"#utility.yul\":1301:1354   */\n      tag_174\n      jump\t// in\n    tag_228:\n        /* \"#utility.yul\":1291:1354   */\n      swap2\n      pop\n        /* \"#utility.yul\":1247:1364   */\n      pop\n        /* \"#utility.yul\":1042:1371   */\n      swap3\n      swap2\n      pop\n      pop\n      jump\t// out\n        /* \"#utility.yul\":1377:1503   */\n    tag_175:\n        /* \"#utility.yul\":1414:1421   */\n      0x00\n        /* \"#utility.yul\":1454:1496   */\n      0xffffffffffffffffffffffffffffffffffffffff\n        /* \"#utility.yul\":1447:1452   */\n      dup3\n        /* \"#utility.yul\":1443:1497   */\n      and\n        /* \"#utility.yul\":1432:1497   */\n      swap1\n      pop\n        /* \"#utility.yul\":1377:1503   */\n      swap2\n      swap1\n      pop\n      jump\t// out\n        /* \"#utility.yul\":1509:1605   */\n    tag_176:\n        /* \"#utility.yul\":1546:1553   */\n      0x00\n        /* \"#utility.yul\":1575:1599   */\n      tag_231\n        /* \"#utility.yul\":1593:1598   */\n      dup3\n        /* \"#utility.yul\":1575:1599   */\n      tag_175\n      jump\t// in\n    tag_231:\n        /* \"#utility.yul\":1564:1599   */\n      swap1\n      pop\n        /* \"#utility.yul\":1509:1605   */\n      swap2\n      swap1\n      pop\n      jump\t// out\n        /* \"#utility.yul\":1611:1729   */\n    tag_177:\n        /* \"#utility.yul\":1698:1722   */\n      tag_233\n        /* \"#utility.yul\":1716:1721   */\n      dup2\n        /* \"#utility.yul\":1698:1722   */\n      tag_176\n      jump\t// in\n    tag_233:\n        /* \"#utility.yul\":1693:1696   */\n      dup3\n        /* \"#utility.yul\":1686:1723   */\n      mstore\n        /* \"#utility.yul\":1611:1729   */\n      pop\n      pop\n      jump\t// out\n        /* \"#utility.yul\":1735:1957   */\n    tag_23:\n        /* \"#utility.yul\":1828:1832   */\n      0x00\n        /* \"#utility.yul\":1866:1868   */\n      0x20\n        /* \"#utility.yul\":1855:1864   */\n      dup3\n        /* \"#utility.yul\":1851:1869   */\n      add\n        /* \"#utility.yul\":1843:1869   */\n      swap1\n      pop\n        /* \"#utility.yul\":1879:1950   */\n      tag_235\n        /* \"#utility.yul\":1947:1948   */\n      0x00\n        /* \"#utility.yul\":1936:1945   */\n      dup4\n        /* \"#utility.yul\":1932:1949   */\n      add\n        /* \"#utility.yul\":1923:1929   */\n      dup5\n        /* \"#utility.yul\":1879:1950   */\n      tag_177\n      jump\t// in\n    tag_235:\n        /* \"#utility.yul\":1735:1957   */\n      swap3\n      swap2\n      pop\n      pop\n      jump\t// out\n        /* \"#utility.yul\":1963:2085   */\n    tag_178:\n        /* \"#utility.yul\":2036:2060   */\n      tag_237\n        /* \"#utility.yul\":2054:2059   */\n      dup2\n        /* \"#utility.yul\":2036:2060   */\n      tag_176\n      jump\t// in\n    tag_237:\n        /* \"#utility.yul\":2029:2034   */\n      dup2\n        /* \"#utility.yul\":2026:2061   */\n      eq\n        /* \"#utility.yul\":2016:2079   */\n      tag_238\n      jumpi\n        /* \"#utility.yul\":2075:2076   */\n      0x00\n        /* \"#utility.yul\":2072:2073   */\n      dup1\n        /* \"#utility.yul\":2065:2077   */\n      revert\n        /* \"#utility.yul\":2016:2079   */\n    tag_238:\n        /* \"#utility.yul\":1963:2085   */\n      pop\n      jump\t// out\n        /* \"#utility.yul\":2091:2230   */\n    tag_179:\n        /* \"#utility.yul\":2137:2142   */\n      0x00\n        /* \"#utility.yul\":2175:2181   */\n      dup2\n        /* \"#utility.yul\":2162:2182   */\n      calldataload\n        /* \"#utility.yul\":2153:2182   */\n      swap1\n      pop\n        /* \"#utility.yul\":2191:2224   */\n      tag_240\n        /* \"#utility.yul\":2218:2223   */\n      dup2\n        /* \"#utility.yul\":2191:2224   */\n      tag_178\n      jump\t// in\n    tag_240:\n        /* \"#utility.yul\":2091:2230   */\n      swap3\n      swap2\n      pop\n      pop\n      jump\t// out\n        /* \"#utility.yul\":2236:2353   */\n    tag_180:\n        /* \"#utility.yul\":2345:2346   */\n      0x00\n        /* \"#utility.yul\":2342:2343   */\n      dup1\n        /* \"#utility.yul\":2335:2347   */\n      revert\n        /* \"#utility.yul\":2359:2476   */\n    tag_181:\n        /* \"#utility.yul\":2468:2469   */\n      0x00\n        /* \"#utility.yul\":2465:2466   */\n      dup1\n        /* \"#utility.yul\":2458:2470   */\n      revert\n        /* \"#utility.yul\":2482:2599   */\n    tag_182:\n        /* \"#utility.yul\":2591:2592   */\n      0x00\n        /* \"#utility.yul\":2588:2589   */\n      dup1\n        /* \"#utility.yul\":2581:2593   */\n      revert\n        /* \"#utility.yul\":2618:3170   */\n    tag_183:\n        /* \"#utility.yul\":2675:2683   */\n      0x00\n        /* \"#utility.yul\":2685:2691   */\n      dup1\n        /* \"#utility.yul\":2735:2738   */\n      dup4\n        /* \"#utility.yul\":2728:2732   */\n      0x1f\n        /* \"#utility.yul\":2720:2726   */\n      dup5\n        /* \"#utility.yul\":2716:2733   */\n      add\n        /* \"#utility.yul\":2712:2739   */\n      slt\n        /* \"#utility.yul\":2702:2824   */\n      tag_245\n      jumpi\n        /* \"#utility.yul\":2743:2822   */\n      tag_246\n      tag_180\n      jump\t// in\n    tag_246:\n        /* \"#utility.yul\":2702:2824   */\n    tag_245:\n        /* \"#utility.yul\":2856:2862   */\n      dup3\n        /* \"#utility.yul\":2843:2863   */\n      calldataload\n        /* \"#utility.yul\":2833:2863   */\n      swap1\n      pop\n        /* \"#utility.yul\":2886:2904   */\n      0xffffffffffffffff\n        /* \"#utility.yul\":2878:2884   */\n      dup2\n        /* \"#utility.yul\":2875:2905   */\n      gt\n        /* \"#utility.yul\":2872:2989   */\n      iszero\n      tag_247\n      jumpi\n        /* \"#utility.yul\":2908:2987   */\n      tag_248\n      tag_181\n      jump\t// in\n    tag_248:\n        /* \"#utility.yul\":2872:2989   */\n    tag_247:\n        /* \"#utility.yul\":3022:3026   */\n      0x20\n        /* \"#utility.yul\":3014:3020   */\n      dup4\n        /* \"#utility.yul\":3010:3027   */\n      add\n        /* \"#utility.yul\":2998:3027   */\n      swap2\n      pop\n        /* \"#utility.yul\":3076:3079   */\n      dup4\n        /* \"#utility.yul\":3068:3072   */\n      0x01\n        /* \"#utility.yul\":3060:3066   */\n      dup3\n        /* \"#utility.yul\":3056:3073   */\n      mul\n        /* \"#utility.yul\":3046:3054   */\n      dup4\n        /* \"#utility.yul\":3042:3074   */\n      add\n        /* \"#utility.yul\":3039:3080   */\n      gt\n        /* \"#utility.yul\":3036:3164   */\n      iszero\n      tag_249\n      jumpi\n        /* \"#utility.yul\":3083:3162   */\n      tag_250\n      tag_182\n      jump\t// in\n    tag_250:\n        /* \"#utility.yul\":3036:3164   */\n    tag_249:\n        /* \"#utility.yul\":2618:3170   */\n      swap3\n      pop\n      swap3\n      swap1\n      pop\n      jump\t// out\n        /* \"#utility.yul\":3176:3993   */\n    tag_27:\n        /* \"#utility.yul\":3264:3270   */\n      0x00\n        /* \"#utility.yul\":3272:3278   */\n      dup1\n        /* \"#utility.yul\":3280:3286   */\n      0x00\n        /* \"#utility.yul\":3288:3294   */\n      dup1\n        /* \"#utility.yul\":3337:3339   */\n      0x60\n        /* \"#utility.yul\":3325:3334   */\n      dup6\n        /* \"#utility.yul\":3316:3323   */\n      dup8\n        /* \"#utility.yul\":3312:3335   */\n      sub\n        /* \"#utility.yul\":3308:3340   */\n      slt\n        /* \"#utility.yul\":3305:3424   */\n      iszero\n      tag_252\n      jumpi\n        /* \"#utility.yul\":3343:3422   */\n      tag_253\n      tag_171\n      jump\t// in\n    tag_253:\n        /* \"#utility.yul\":3305:3424   */\n    tag_252:\n        /* \"#utility.yul\":3463:3464   */\n      0x00\n        /* \"#utility.yul\":3488:3541   */\n      tag_254\n        /* \"#utility.yul\":3533:3540   */\n      dup8\n        /* \"#utility.yul\":3524:3530   */\n      dup3\n        /* \"#utility.yul\":3513:3522   */\n      dup9\n        /* \"#utility.yul\":3509:3531   */\n      add\n        /* \"#utility.yul\":3488:3541   */\n      tag_179\n      jump\t// in\n    tag_254:\n        /* \"#utility.yul\":3478:3541   */\n      swap5\n      pop\n        /* \"#utility.yul\":3434:3551   */\n      pop\n        /* \"#utility.yul\":3590:3592   */\n      0x20\n        /* \"#utility.yul\":3616:3669   */\n      tag_255\n        /* \"#utility.yul\":3661:3668   */\n      dup8\n        /* \"#utility.yul\":3652:3658   */\n      dup3\n        /* \"#utility.yul\":3641:3650   */\n      dup9\n        /* \"#utility.yul\":3637:3659   */\n      add\n        /* \"#utility.yul\":3616:3669   */\n      tag_174\n      jump\t// in\n    tag_255:\n        /* \"#utility.yul\":3606:3669   */\n      swap4\n      pop\n        /* \"#utility.yul\":3561:3679   */\n      pop\n        /* \"#utility.yul\":3746:3748   */\n      0x40\n        /* \"#utility.yul\":3735:3744   */\n      dup6\n        /* \"#utility.yul\":3731:3749   */\n      add\n        /* \"#utility.yul\":3718:3750   */\n      calldataload\n        /* \"#utility.yul\":3777:3795   */\n      0xffffffffffffffff\n        /* \"#utility.yul\":3769:3775   */\n      dup2\n        /* \"#utility.yul\":3766:3796   */\n      gt\n        /* \"#utility.yul\":3763:3880   */\n      iszero\n      tag_256\n      jumpi\n        /* \"#utility.yul\":3799:3878   */\n      tag_257\n      tag_172\n      jump\t// in\n    tag_257:\n        /* \"#utility.yul\":3763:3880   */\n    tag_256:\n        /* \"#utility.yul\":3912:3976   */\n      tag_258\n        /* \"#utility.yul\":3968:3975   */\n      dup8\n        /* \"#utility.yul\":3959:3965   */\n      dup3\n        /* \"#utility.yul\":3948:3957   */\n      dup9\n        /* \"#utility.yul\":3944:3966   */\n      add\n        /* \"#utility.yul\":3912:3976   */\n      tag_183\n      jump\t// in\n    tag_258:\n        /* \"#utility.yul\":3894:3976   */\n      swap3\n      pop\n      swap3\n      pop\n        /* \"#utility.yul\":3689:3986   */\n      pop\n        /* \"#utility.yul\":3176:3993   */\n      swap3\n      swap6\n      swap2\n      swap5\n      pop\n      swap3\n      pop\n      jump\t// out\n        /* \"#utility.yul\":3999:4328   */\n    tag_36:\n        /* \"#utility.yul\":4058:4064   */\n      0x00\n        /* \"#utility.yul\":4107:4109   */\n      0x20\n        /* \"#utility.yul\":4095:4104   */\n      dup3\n        /* \"#utility.yul\":4086:4093   */\n      dup5\n        /* \"#utility.yul\":4082:4105   */\n      sub\n        /* \"#utility.yul\":4078:4110   */\n      slt\n        /* \"#utility.yul\":4075:4194   */\n      iszero\n      tag_260\n      jumpi\n        /* \"#utility.yul\":4113:4192   */\n      tag_261\n      tag_171\n      jump\t// in\n    tag_261:\n        /* \"#utility.yul\":4075:4194   */\n    tag_260:\n        /* \"#utility.yul\":4233:4234   */\n      0x00\n        /* \"#utility.yul\":4258:4311   */\n      tag_262\n        /* \"#utility.yul\":4303:4310   */\n      dup5\n        /* \"#utility.yul\":4294:4300   */\n      dup3\n        /* \"#utility.yul\":4283:4292   */\n      dup6\n        /* \"#utility.yul\":4279:4301   */\n      add\n        /* \"#utility.yul\":4258:4311   */\n      tag_179\n      jump\t// in\n    tag_262:\n        /* \"#utility.yul\":4248:4311   */\n      swap2\n      pop\n        /* \"#utility.yul\":4204:4321   */\n      pop\n        /* \"#utility.yul\":3999:4328   */\n      swap3\n      swap2\n      pop\n      pop\n      jump\t// out\n        /* \"#utility.yul\":4334:4424   */\n    tag_184:\n        /* \"#utility.yul\":4368:4375   */\n      0x00\n        /* \"#utility.yul\":4411:4416   */\n      dup2\n        /* \"#utility.yul\":4404:4417   */\n      iszero\n        /* \"#utility.yul\":4397:4418   */\n      iszero\n        /* \"#utility.yul\":4386:4418   */\n      swap1\n      pop\n        /* \"#utility.yul\":4334:4424   */\n      swap2\n      swap1\n      pop\n      jump\t// out\n        /* \"#utility.yul\":4430:4539   */\n    tag_185:\n        /* \"#utility.yul\":4511:4532   */\n      tag_265\n        /* \"#utility.yul\":4526:4531   */\n      dup2\n        /* \"#utility.yul\":4511:4532   */\n      tag_184\n      jump\t// in\n    tag_265:\n        /* \"#utility.yul\":4506:4509   */\n      dup3\n        /* \"#utility.yul\":4499:4533   */\n      mstore\n        /* \"#utility.yul\":4430:4539   */\n      pop\n      pop\n      jump\t// out\n        /* \"#utility.yul\":4545:4755   */\n    tag_39:\n        /* \"#utility.yul\":4632:4636   */\n      0x00\n        /* \"#utility.yul\":4670:4672   */\n      0x20\n        /* \"#utility.yul\":4659:4668   */\n      dup3\n        /* \"#utility.yul\":4655:4673   */\n      add\n        /* \"#utility.yul\":4647:4673   */\n      swap1\n      pop\n        /* \"#utility.yul\":4683:4748   */\n      tag_267\n        /* \"#utility.yul\":4745:4746   */\n      0x00\n        /* \"#utility.yul\":4734:4743   */\n      dup4\n        /* \"#utility.yul\":4730:4747   */\n      add\n        /* \"#utility.yul\":4721:4727   */\n      dup5\n        /* \"#utility.yul\":4683:4748   */\n      tag_185\n      jump\t// in\n    tag_267:\n        /* \"#utility.yul\":4545:4755   */\n      swap3\n      swap2\n      pop\n      pop\n      jump\t// out\n        /* \"#utility.yul\":4761:5235   */\n    tag_43:\n        /* \"#utility.yul\":4829:4835   */\n      0x00\n        /* \"#utility.yul\":4837:4843   */\n      dup1\n        /* \"#utility.yul\":4886:4888   */\n      0x40\n        /* \"#utility.yul\":4874:4883   */\n      dup4\n        /* \"#utility.yul\":4865:4872   */\n      dup6\n        /* \"#utility.yul\":4861:4884   */\n      sub\n        /* \"#utility.yul\":4857:4889   */\n      slt\n        /* \"#utility.yul\":4854:4973   */\n      iszero\n      tag_269\n      jumpi\n        /* \"#utility.yul\":4892:4971   */\n      tag_270\n      tag_171\n      jump\t// in\n    tag_270:\n        /* \"#utility.yul\":4854:4973   */\n    tag_269:\n        /* \"#utility.yul\":5012:5013   */\n      0x00\n        /* \"#utility.yul\":5037:5090   */\n      tag_271\n        /* \"#utility.yul\":5082:5089   */\n      dup6\n        /* \"#utility.yul\":5073:5079   */\n      dup3\n        /* \"#utility.yul\":5062:5071   */\n      dup7\n        /* \"#utility.yul\":5058:5080   */\n      add\n        /* \"#utility.yul\":5037:5090   */\n      tag_174\n      jump\t// in\n    tag_271:\n        /* \"#utility.yul\":5027:5090   */\n      swap3\n      pop\n        /* \"#utility.yul\":4983:5100   */\n      pop\n        /* \"#utility.yul\":5139:5141   */\n      0x20\n        /* \"#utility.yul\":5165:5218   */\n      tag_272\n        /* \"#utility.yul\":5210:5217   */\n      dup6\n        /* \"#utility.yul\":5201:5207   */\n      dup3\n        /* \"#utility.yul\":5190:5199   */\n      dup7\n        /* \"#utility.yul\":5186:5208   */\n      add\n        /* \"#utility.yul\":5165:5218   */\n      tag_179\n      jump\t// in\n    tag_272:\n        /* \"#utility.yul\":5155:5218   */\n      swap2\n      pop\n        /* \"#utility.yul\":5110:5228   */\n      pop\n        /* \"#utility.yul\":4761:5235   */\n      swap3\n      pop\n      swap3\n      swap1\n      pop\n      jump\t// out\n        /* \"#utility.yul\":5241:5339   */\n    tag_186:\n        /* \"#utility.yul\":5292:5298   */\n      0x00\n        /* \"#utility.yul\":5326:5331   */\n      dup2\n        /* \"#utility.yul\":5320:5332   */\n      mload\n        /* \"#utility.yul\":5310:5332   */\n      swap1\n      pop\n        /* \"#utility.yul\":5241:5339   */\n      swap2\n      swap1\n      pop\n      jump\t// out\n        /* \"#utility.yul\":5345:5513   */\n    tag_187:\n        /* \"#utility.yul\":5428:5439   */\n      0x00\n        /* \"#utility.yul\":5462:5468   */\n      dup3\n        /* \"#utility.yul\":5457:5460   */\n      dup3\n        /* \"#utility.yul\":5450:5469   */\n      mstore\n        /* \"#utility.yul\":5502:5506   */\n      0x20\n        /* \"#utility.yul\":5497:5500   */\n      dup3\n        /* \"#utility.yul\":5493:5507   */\n      add\n        /* \"#utility.yul\":5478:5507   */\n      swap1\n      pop\n        /* \"#utility.yul\":5345:5513   */\n      swap3\n      swap2\n      pop\n      pop\n      jump\t// out\n        /* \"#utility.yul\":5519:5826   */\n    tag_188:\n        /* \"#utility.yul\":5587:5588   */\n      0x00\n        /* \"#utility.yul\":5597:5710   */\n    tag_276:\n        /* \"#utility.yul\":5611:5617   */\n      dup4\n        /* \"#utility.yul\":5608:5609   */\n      dup2\n        /* \"#utility.yul\":5605:5618   */\n      lt\n        /* \"#utility.yul\":5597:5710   */\n      iszero\n      tag_278\n      jumpi\n        /* \"#utility.yul\":5696:5697   */\n      dup1\n        /* \"#utility.yul\":5691:5694   */\n      dup3\n        /* \"#utility.yul\":5687:5698   */\n      add\n        /* \"#utility.yul\":5681:5699   */\n      mload\n        /* \"#utility.yul\":5677:5678   */\n      dup2\n        /* \"#utility.yul\":5672:5675   */\n      dup5\n        /* \"#utility.yul\":5668:5679   */\n      add\n        /* \"#utility.yul\":5661:5700   */\n      mstore\n        /* \"#utility.yul\":5633:5635   */\n      0x20\n        /* \"#utility.yul\":5630:5631   */\n      dup2\n        /* \"#utility.yul\":5626:5636   */\n      add\n        /* \"#utility.yul\":5621:5636   */\n      swap1\n      pop\n        /* \"#utility.yul\":5597:5710   */\n      jump(tag_276)\n    tag_278:\n        /* \"#utility.yul\":5728:5734   */\n      dup4\n        /* \"#utility.yul\":5725:5726   */\n      dup2\n        /* \"#utility.yul\":5722:5735   */\n      gt\n        /* \"#utility.yul\":5719:5820   */\n      iszero\n      tag_279\n      jumpi\n        /* \"#utility.yul\":5808:5809   */\n      0x00\n        /* \"#utility.yul\":5799:5805   */\n      dup5\n        /* \"#utility.yul\":5794:5797   */\n      dup5\n        /* \"#utility.yul\":5790:5806   */\n      add\n        /* \"#utility.yul\":5783:5810   */\n      mstore\n        /* \"#utility.yul\":5719:5820   */\n    tag_279:\n        /* \"#utility.yul\":5568:5826   */\n      pop\n        /* \"#utility.yul\":5519:5826   */\n      pop\n      pop\n      pop\n      jump\t// out\n        /* \"#utility.yul\":5832:5934   */\n    tag_189:\n        /* \"#utility.yul\":5873:5879   */\n      0x00\n        /* \"#utility.yul\":5924:5926   */\n      0x1f\n        /* \"#utility.yul\":5920:5927   */\n      not\n        /* \"#utility.yul\":5915:5917   */\n      0x1f\n        /* \"#utility.yul\":5908:5913   */\n      dup4\n        /* \"#utility.yul\":5904:5918   */\n      add\n        /* \"#utility.yul\":5900:5928   */\n      and\n        /* \"#utility.yul\":5890:5928   */\n      swap1\n      pop\n        /* \"#utility.yul\":5832:5934   */\n      swap2\n      swap1\n      pop\n      jump\t// out\n        /* \"#utility.yul\":5940:6300   */\n    tag_190:\n        /* \"#utility.yul\":6026:6029   */\n      0x00\n        /* \"#utility.yul\":6054:6092   */\n      tag_282\n        /* \"#utility.yul\":6086:6091   */\n      dup3\n        /* \"#utility.yul\":6054:6092   */\n      tag_186\n      jump\t// in\n    tag_282:\n        /* \"#utility.yul\":6108:6178   */\n      tag_283\n        /* \"#utility.yul\":6171:6177   */\n      dup2\n        /* \"#utility.yul\":6166:6169   */\n      dup6\n        /* \"#utility.yul\":6108:6178   */\n      tag_187\n      jump\t// in\n    tag_283:\n        /* \"#utility.yul\":6101:6178   */\n      swap4\n      pop\n        /* \"#utility.yul\":6187:6239   */\n      tag_284\n        /* \"#utility.yul\":6232:6238   */\n      dup2\n        /* \"#utility.yul\":6227:6230   */\n      dup6\n        /* \"#utility.yul\":6220:6224   */\n      0x20\n        /* \"#utility.yul\":6213:6218   */\n      dup7\n        /* \"#utility.yul\":6209:6225   */\n      add\n        /* \"#utility.yul\":6187:6239   */\n      tag_188\n      jump\t// in\n    tag_284:\n        /* \"#utility.yul\":6264:6293   */\n      tag_285\n        /* \"#utility.yul\":6286:6292   */\n      dup2\n        /* \"#utility.yul\":6264:6293   */\n      tag_189\n      jump\t// in\n    tag_285:\n        /* \"#utility.yul\":6259:6262   */\n      dup5\n        /* \"#utility.yul\":6255:6294   */\n      add\n        /* \"#utility.yul\":6248:6294   */\n      swap2\n      pop\n        /* \"#utility.yul\":6030:6300   */\n      pop\n        /* \"#utility.yul\":5940:6300   */\n      swap3\n      swap2\n      pop\n      pop\n      jump\t// out\n        /* \"#utility.yul\":6306:6934   */\n    tag_55:\n        /* \"#utility.yul\":6495:6499   */\n      0x00\n        /* \"#utility.yul\":6533:6536   */\n      0x80\n        /* \"#utility.yul\":6522:6531   */\n      dup3\n        /* \"#utility.yul\":6518:6537   */\n      add\n        /* \"#utility.yul\":6510:6537   */\n      swap1\n      pop\n        /* \"#utility.yul\":6547:6618   */\n      tag_287\n        /* \"#utility.yul\":6615:6616   */\n      0x00\n        /* \"#utility.yul\":6604:6613   */\n      dup4\n        /* \"#utility.yul\":6600:6617   */\n      add\n        /* \"#utility.yul\":6591:6597   */\n      dup8\n        /* \"#utility.yul\":6547:6618   */\n      tag_177\n      jump\t// in\n    tag_287:\n        /* \"#utility.yul\":6628:6700   */\n      tag_288\n        /* \"#utility.yul\":6696:6698   */\n      0x20\n        /* \"#utility.yul\":6685:6694   */\n      dup4\n        /* \"#utility.yul\":6681:6699   */\n      add\n        /* \"#utility.yul\":6672:6678   */\n      dup7\n        /* \"#utility.yul\":6628:6700   */\n      tag_169\n      jump\t// in\n    tag_288:\n        /* \"#utility.yul\":6747:6756   */\n      dup2\n        /* \"#utility.yul\":6741:6745   */\n      dup2\n        /* \"#utility.yul\":6737:6757   */\n      sub\n        /* \"#utility.yul\":6732:6734   */\n      0x40\n        /* \"#utility.yul\":6721:6730   */\n      dup4\n        /* \"#utility.yul\":6717:6735   */\n      add\n        /* \"#utility.yul\":6710:6758   */\n      mstore\n        /* \"#utility.yul\":6775:6851   */\n      tag_289\n        /* \"#utility.yul\":6846:6850   */\n      dup2\n        /* \"#utility.yul\":6837:6843   */\n      dup6\n        /* \"#utility.yul\":6775:6851   */\n      tag_190\n      jump\t// in\n    tag_289:\n        /* \"#utility.yul\":6767:6851   */\n      swap1\n      pop\n        /* \"#utility.yul\":6861:6927   */\n      tag_290\n        /* \"#utility.yul\":6923:6925   */\n      0x60\n        /* \"#utility.yul\":6912:6921   */\n      dup4\n        /* \"#utility.yul\":6908:6926   */\n      add\n        /* \"#utility.yul\":6899:6905   */\n      dup5\n        /* \"#utility.yul\":6861:6927   */\n      tag_185\n      jump\t// in\n    tag_290:\n        /* \"#utility.yul\":6306:6934   */\n      swap6\n      swap5\n      pop\n      pop\n      pop\n      pop\n      pop\n      jump\t// out\n        /* \"#utility.yul\":6940:7109   */\n    tag_191:\n        /* \"#utility.yul\":7024:7035   */\n      0x00\n        /* \"#utility.yul\":7058:7064   */\n      dup3\n        /* \"#utility.yul\":7053:7056   */\n      dup3\n        /* \"#utility.yul\":7046:7065   */\n      mstore\n        /* \"#utility.yul\":7098:7102   */\n      0x20\n        /* \"#utility.yul\":7093:7096   */\n      dup3\n        /* \"#utility.yul\":7089:7103   */\n      add\n        /* \"#utility.yul\":7074:7103   */\n      swap1\n      pop\n        /* \"#utility.yul\":6940:7109   */\n      swap3\n      swap2\n      pop\n      pop\n      jump\t// out\n        /* \"#utility.yul\":7115:7274   */\n    tag_192:\n        /* \"#utility.yul\":7255:7266   */\n      0x4e6f74204f776e65720000000000000000000000000000000000000000000000\n        /* \"#utility.yul\":7251:7252   */\n      0x00\n        /* \"#utility.yul\":7243:7249   */\n      dup3\n        /* \"#utility.yul\":7239:7253   */\n      add\n        /* \"#utility.yul\":7232:7267   */\n      mstore\n        /* \"#utility.yul\":7115:7274   */\n      pop\n      jump\t// out\n        /* \"#utility.yul\":7280:7645   */\n    tag_193:\n        /* \"#utility.yul\":7422:7425   */\n      0x00\n        /* \"#utility.yul\":7443:7509   */\n      tag_294\n        /* \"#utility.yul\":7507:7508   */\n      0x09\n        /* \"#utility.yul\":7502:7505   */\n      dup4\n        /* \"#utility.yul\":7443:7509   */\n      tag_191\n      jump\t// in\n    tag_294:\n        /* \"#utility.yul\":7436:7509   */\n      swap2\n      pop\n        /* \"#utility.yul\":7518:7611   */\n      tag_295\n        /* \"#utility.yul\":7607:7610   */\n      dup3\n        /* \"#utility.yul\":7518:7611   */\n      tag_192\n      jump\t// in\n    tag_295:\n        /* \"#utility.yul\":7636:7638   */\n      0x20\n        /* \"#utility.yul\":7631:7634   */\n      dup3\n        /* \"#utility.yul\":7627:7639   */\n      add\n        /* \"#utility.yul\":7620:7639   */\n      swap1\n      pop\n        /* \"#utility.yul\":7280:7645   */\n      swap2\n      swap1\n      pop\n      jump\t// out\n        /* \"#utility.yul\":7651:8070   */\n    tag_69:\n        /* \"#utility.yul\":7817:7821   */\n      0x00\n        /* \"#utility.yul\":7855:7857   */\n      0x20\n        /* \"#utility.yul\":7844:7853   */\n      dup3\n        /* \"#utility.yul\":7840:7858   */\n      add\n        /* \"#utility.yul\":7832:7858   */\n      swap1\n      pop\n        /* \"#utility.yul\":7904:7913   */\n      dup2\n        /* \"#utility.yul\":7898:7902   */\n      dup2\n        /* \"#utility.yul\":7894:7914   */\n      sub\n        /* \"#utility.yul\":7890:7891   */\n      0x00\n        /* \"#utility.yul\":7879:7888   */\n      dup4\n        /* \"#utility.yul\":7875:7892   */\n      add\n        /* \"#utility.yul\":7868:7915   */\n      mstore\n        /* \"#utility.yul\":7932:8063   */\n      tag_297\n        /* \"#utility.yul\":8058:8062   */\n      dup2\n        /* \"#utility.yul\":7932:8063   */\n      tag_193\n      jump\t// in\n    tag_297:\n        /* \"#utility.yul\":7924:8063   */\n      swap1\n      pop\n        /* \"#utility.yul\":7651:8070   */\n      swap2\n      swap1\n      pop\n      jump\t// out\n        /* \"#utility.yul\":8076:8256   */\n    tag_194:\n        /* \"#utility.yul\":8124:8201   */\n      0x4e487b7100000000000000000000000000000000000000000000000000000000\n        /* \"#utility.yul\":8121:8122   */\n      0x00\n        /* \"#utility.yul\":8114:8202   */\n      mstore\n        /* \"#utility.yul\":8221:8225   */\n      0x11\n        /* \"#utility.yul\":8218:8219   */\n      0x04\n        /* \"#utility.yul\":8211:8226   */\n      mstore\n        /* \"#utility.yul\":8245:8249   */\n      0x24\n        /* \"#utility.yul\":8242:8243   */\n      0x00\n        /* \"#utility.yul\":8235:8250   */\n      revert\n        /* \"#utility.yul\":8262:8453   */\n    tag_75:\n        /* \"#utility.yul\":8302:8306   */\n      0x00\n        /* \"#utility.yul\":8322:8342   */\n      tag_300\n        /* \"#utility.yul\":8340:8341   */\n      dup3\n        /* \"#utility.yul\":8322:8342   */\n      tag_168\n      jump\t// in\n    tag_300:\n        /* \"#utility.yul\":8317:8342   */\n      swap2\n      pop\n        /* \"#utility.yul\":8356:8376   */\n      tag_301\n        /* \"#utility.yul\":8374:8375   */\n      dup4\n        /* \"#utility.yul\":8356:8376   */\n      tag_168\n      jump\t// in\n    tag_301:\n        /* \"#utility.yul\":8351:8376   */\n      swap3\n      pop\n        /* \"#utility.yul\":8395:8396   */\n      dup3\n        /* \"#utility.yul\":8392:8393   */\n      dup3\n        /* \"#utility.yul\":8389:8397   */\n      lt\n        /* \"#utility.yul\":8386:8420   */\n      iszero\n      tag_302\n      jumpi\n        /* \"#utility.yul\":8400:8418   */\n      tag_303\n      tag_194\n      jump\t// in\n    tag_303:\n        /* \"#utility.yul\":8386:8420   */\n    tag_302:\n        /* \"#utility.yul\":8445:8446   */\n      dup3\n        /* \"#utility.yul\":8442:8443   */\n      dup3\n        /* \"#utility.yul\":8438:8447   */\n      sub\n        /* \"#utility.yul\":8430:8447   */\n      swap1\n      pop\n        /* \"#utility.yul\":8262:8453   */\n      swap3\n      swap2\n      pop\n      pop\n      jump\t// out\n        /* \"#utility.yul\":8459:8635   */\n    tag_195:\n        /* \"#utility.yul\":8599:8627   */\n      0x5472616e73616374696f6e20646f6573206e6f74206578697374000000000000\n        /* \"#utility.yul\":8595:8596   */\n      0x00\n        /* \"#utility.yul\":8587:8593   */\n      dup3\n        /* \"#utility.yul\":8583:8597   */\n      add\n        /* \"#utility.yul\":8576:8628   */\n      mstore\n        /* \"#utility.yul\":8459:8635   */\n      pop\n      jump\t// out\n        /* \"#utility.yul\":8641:9007   */\n    tag_196:\n        /* \"#utility.yul\":8783:8786   */\n      0x00\n        /* \"#utility.yul\":8804:8871   */\n      tag_306\n        /* \"#utility.yul\":8868:8870   */\n      0x1a\n        /* \"#utility.yul\":8863:8866   */\n      dup4\n        /* \"#utility.yul\":8804:8871   */\n      tag_191\n      jump\t// in\n    tag_306:\n        /* \"#utility.yul\":8797:8871   */\n      swap2\n      pop\n        /* \"#utility.yul\":8880:8973   */\n      tag_307\n        /* \"#utility.yul\":8969:8972   */\n      dup3\n        /* \"#utility.yul\":8880:8973   */\n      tag_195\n      jump\t// in\n    tag_307:\n        /* \"#utility.yul\":8998:9000   */\n      0x20\n        /* \"#utility.yul\":8993:8996   */\n      dup3\n        /* \"#utility.yul\":8989:9001   */\n      add\n        /* \"#utility.yul\":8982:9001   */\n      swap1\n      pop\n        /* \"#utility.yul\":8641:9007   */\n      swap2\n      swap1\n      pop\n      jump\t// out\n        /* \"#utility.yul\":9013:9432   */\n    tag_82:\n        /* \"#utility.yul\":9179:9183   */\n      0x00\n        /* \"#utility.yul\":9217:9219   */\n      0x20\n        /* \"#utility.yul\":9206:9215   */\n      dup3\n        /* \"#utility.yul\":9202:9220   */\n      add\n        /* \"#utility.yul\":9194:9220   */\n      swap1\n      pop\n        /* \"#utility.yul\":9266:9275   */\n      dup2\n        /* \"#utility.yul\":9260:9264   */\n      dup2\n        /* \"#utility.yul\":9256:9276   */\n      sub\n        /* \"#utility.yul\":9252:9253   */\n      0x00\n        /* \"#utility.yul\":9241:9250   */\n      dup4\n        /* \"#utility.yul\":9237:9254   */\n      add\n        /* \"#utility.yul\":9230:9277   */\n      mstore\n        /* \"#utility.yul\":9294:9425   */\n      tag_309\n        /* \"#utility.yul\":9420:9424   */\n      dup2\n        /* \"#utility.yul\":9294:9425   */\n      tag_196\n      jump\t// in\n    tag_309:\n        /* \"#utility.yul\":9286:9425   */\n      swap1\n      pop\n        /* \"#utility.yul\":9013:9432   */\n      swap2\n      swap1\n      pop\n      jump\t// out\n        /* \"#utility.yul\":9438:9618   */\n    tag_86:\n        /* \"#utility.yul\":9486:9563   */\n      0x4e487b7100000000000000000000000000000000000000000000000000000000\n        /* \"#utility.yul\":9483:9484   */\n      0x00\n        /* \"#utility.yul\":9476:9564   */\n      mstore\n        /* \"#utility.yul\":9583:9587   */\n      0x32\n        /* \"#utility.yul\":9580:9581   */\n      0x04\n        /* \"#utility.yul\":9573:9588   */\n      mstore\n        /* \"#utility.yul\":9607:9611   */\n      0x24\n        /* \"#utility.yul\":9604:9605   */\n      0x00\n        /* \"#utility.yul\":9597:9612   */\n      revert\n        /* \"#utility.yul\":9624:9802   */\n    tag_197:\n        /* \"#utility.yul\":9764:9794   */\n      0x5472616e73616374696f6e20616c726561647920657865637574656400000000\n        /* \"#utility.yul\":9760:9761   */\n      0x00\n        /* \"#utility.yul\":9752:9758   */\n      dup3\n        /* \"#utility.yul\":9748:9762   */\n      add\n        /* \"#utility.yul\":9741:9795   */\n      mstore\n        /* \"#utility.yul\":9624:9802   */\n      pop\n      jump\t// out\n        /* \"#utility.yul\":9808:10174   */\n    tag_198:\n        /* \"#utility.yul\":9950:9953   */\n      0x00\n        /* \"#utility.yul\":9971:10038   */\n      tag_313\n        /* \"#utility.yul\":10035:10037   */\n      0x1c\n        /* \"#utility.yul\":10030:10033   */\n      dup4\n        /* \"#utility.yul\":9971:10038   */\n      tag_191\n      jump\t// in\n    tag_313:\n        /* \"#utility.yul\":9964:10038   */\n      swap2\n      pop\n        /* \"#utility.yul\":10047:10140   */\n      tag_314\n        /* \"#utility.yul\":10136:10139   */\n      dup3\n        /* \"#utility.yul\":10047:10140   */\n      tag_197\n      jump\t// in\n    tag_314:\n        /* \"#utility.yul\":10165:10167   */\n      0x20\n        /* \"#utility.yul\":10160:10163   */\n      dup3\n        /* \"#utility.yul\":10156:10168   */\n      add\n        /* \"#utility.yul\":10149:10168   */\n      swap1\n      pop\n        /* \"#utility.yul\":9808:10174   */\n      swap2\n      swap1\n      pop\n      jump\t// out\n        /* \"#utility.yul\":10180:10599   */\n    tag_90:\n        /* \"#utility.yul\":10346:10350   */\n      0x00\n        /* \"#utility.yul\":10384:10386   */\n      0x20\n        /* \"#utility.yul\":10373:10382   */\n      dup3\n        /* \"#utility.yul\":10369:10387   */\n      add\n        /* \"#utility.yul\":10361:10387   */\n      swap1\n      pop\n        /* \"#utility.yul\":10433:10442   */\n      dup2\n        /* \"#utility.yul\":10427:10431   */\n      dup2\n        /* \"#utility.yul\":10423:10443   */\n      sub\n        /* \"#utility.yul\":10419:10420   */\n      0x00\n        /* \"#utility.yul\":10408:10417   */\n      dup4\n        /* \"#utility.yul\":10404:10421   */\n      add\n        /* \"#utility.yul\":10397:10444   */\n      mstore\n        /* \"#utility.yul\":10461:10592   */\n      tag_316\n        /* \"#utility.yul\":10587:10591   */\n      dup2\n        /* \"#utility.yul\":10461:10592   */\n      tag_198\n      jump\t// in\n    tag_316:\n        /* \"#utility.yul\":10453:10592   */\n      swap1\n      pop\n        /* \"#utility.yul\":10180:10599   */\n      swap2\n      swap1\n      pop\n      jump\t// out\n        /* \"#utility.yul\":10605:10779   */\n    tag_199:\n        /* \"#utility.yul\":10745:10771   */\n      0x5472616e73616374696f6e206e6f7420617070726f7665640000000000000000\n        /* \"#utility.yul\":10741:10742   */\n      0x00\n        /* \"#utility.yul\":10733:10739   */\n      dup3\n        /* \"#utility.yul\":10729:10743   */\n      add\n        /* \"#utility.yul\":10722:10772   */\n      mstore\n        /* \"#utility.yul\":10605:10779   */\n      pop\n      jump\t// out\n        /* \"#utility.yul\":10785:11151   */\n    tag_200:\n        /* \"#utility.yul\":10927:10930   */\n      0x00\n        /* \"#utility.yul\":10948:11015   */\n      tag_319\n        /* \"#utility.yul\":11012:11014   */\n      0x18\n        /* \"#utility.yul\":11007:11010   */\n      dup4\n        /* \"#utility.yul\":10948:11015   */\n      tag_191\n      jump\t// in\n    tag_319:\n        /* \"#utility.yul\":10941:11015   */\n      swap2\n      pop\n        /* \"#utility.yul\":11024:11117   */\n      tag_320\n        /* \"#utility.yul\":11113:11116   */\n      dup3\n        /* \"#utility.yul\":11024:11117   */\n      tag_199\n      jump\t// in\n    tag_320:\n        /* \"#utility.yul\":11142:11144   */\n      0x20\n        /* \"#utility.yul\":11137:11140   */\n      dup3\n        /* \"#utility.yul\":11133:11145   */\n      add\n        /* \"#utility.yul\":11126:11145   */\n      swap1\n      pop\n        /* \"#utility.yul\":10785:11151   */\n      swap2\n      swap1\n      pop\n      jump\t// out\n        /* \"#utility.yul\":11157:11576   */\n    tag_94:\n        /* \"#utility.yul\":11323:11327   */\n      0x00\n        /* \"#utility.yul\":11361:11363   */\n      0x20\n        /* \"#utility.yul\":11350:11359   */\n      dup3\n        /* \"#utility.yul\":11346:11364   */\n      add\n        /* \"#utility.yul\":11338:11364   */\n      swap1\n      pop\n        /* \"#utility.yul\":11410:11419   */\n      dup2\n        /* \"#utility.yul\":11404:11408   */\n      dup2\n        /* \"#utility.yul\":11400:11420   */\n      sub\n        /* \"#utility.yul\":11396:11397   */\n      0x00\n        /* \"#utility.yul\":11385:11394   */\n      dup4\n        /* \"#utility.yul\":11381:11398   */\n      add\n        /* \"#utility.yul\":11374:11421   */\n      mstore\n        /* \"#utility.yul\":11438:11569   */\n      tag_322\n        /* \"#utility.yul\":11564:11568   */\n      dup2\n        /* \"#utility.yul\":11438:11569   */\n      tag_200\n      jump\t// in\n    tag_322:\n        /* \"#utility.yul\":11430:11569   */\n      swap1\n      pop\n        /* \"#utility.yul\":11157:11576   */\n      swap2\n      swap1\n      pop\n      jump\t// out\n        /* \"#utility.yul\":11582:11762   */\n    tag_201:\n        /* \"#utility.yul\":11630:11707   */\n      0x4e487b7100000000000000000000000000000000000000000000000000000000\n        /* \"#utility.yul\":11627:11628   */\n      0x00\n        /* \"#utility.yul\":11620:11708   */\n      mstore\n        /* \"#utility.yul\":11727:11731   */\n      0x22\n        /* \"#utility.yul\":11724:11725   */\n      0x04\n        /* \"#utility.yul\":11717:11732   */\n      mstore\n        /* \"#utility.yul\":11751:11755   */\n      0x24\n        /* \"#utility.yul\":11748:11749   */\n      0x00\n        /* \"#utility.yul\":11741:11756   */\n      revert\n        /* \"#utility.yul\":11768:12088   */\n    tag_98:\n        /* \"#utility.yul\":11812:11818   */\n      0x00\n        /* \"#utility.yul\":11849:11850   */\n      0x02\n        /* \"#utility.yul\":11843:11847   */\n      dup3\n        /* \"#utility.yul\":11839:11851   */\n      div\n        /* \"#utility.yul\":11829:11851   */\n      swap1\n      pop\n        /* \"#utility.yul\":11896:11897   */\n      0x01\n        /* \"#utility.yul\":11890:11894   */\n      dup3\n        /* \"#utility.yul\":11886:11898   */\n      and\n        /* \"#utility.yul\":11917:11935   */\n      dup1\n        /* \"#utility.yul\":11907:11988   */\n      tag_325\n      jumpi\n        /* \"#utility.yul\":11973:11977   */\n      0x7f\n        /* \"#utility.yul\":11965:11971   */\n      dup3\n        /* \"#utility.yul\":11961:11978   */\n      and\n        /* \"#utility.yul\":11951:11978   */\n      swap2\n      pop\n        /* \"#utility.yul\":11907:11988   */\n    tag_325:\n        /* \"#utility.yul\":12035:12037   */\n      0x20\n        /* \"#utility.yul\":12027:12033   */\n      dup3\n        /* \"#utility.yul\":12024:12038   */\n      lt\n        /* \"#utility.yul\":12004:12022   */\n      dup2\n        /* \"#utility.yul\":12001:12039   */\n      eq\n        /* \"#utility.yul\":11998:12082   */\n      iszero\n      tag_326\n      jumpi\n        /* \"#utility.yul\":12054:12072   */\n      tag_327\n      tag_201\n      jump\t// in\n    tag_327:\n        /* \"#utility.yul\":11998:12082   */\n    tag_326:\n        /* \"#utility.yul\":11819:12088   */\n      pop\n        /* \"#utility.yul\":11768:12088   */\n      swap2\n      swap1\n      pop\n      jump\t// out\n        /* \"#utility.yul\":12094:12272   */\n    tag_202:\n        /* \"#utility.yul\":12234:12264   */\n      0x5472616e73616374696f6e20616c726561647920617070726f76656400000000\n        /* \"#utility.yul\":12230:12231   */\n      0x00\n        /* \"#utility.yul\":12222:12228   */\n      dup3\n        /* \"#utility.yul\":12218:12232   */\n      add\n        /* \"#utility.yul\":12211:12265   */\n      mstore\n        /* \"#utility.yul\":12094:12272   */\n      pop\n      jump\t// out\n        /* \"#utility.yul\":12278:12644   */\n    tag_203:\n        /* \"#utility.yul\":12420:12423   */\n      0x00\n        /* \"#utility.yul\":12441:12508   */\n      tag_330\n        /* \"#utility.yul\":12505:12507   */\n      0x1c\n        /* \"#utility.yul\":12500:12503   */\n      dup4\n        /* \"#utility.yul\":12441:12508   */\n      tag_191\n      jump\t// in\n    tag_330:\n        /* \"#utility.yul\":12434:12508   */\n      swap2\n      pop\n        /* \"#utility.yul\":12517:12610   */\n      tag_331\n        /* \"#utility.yul\":12606:12609   */\n      dup3\n        /* \"#utility.yul\":12517:12610   */\n      tag_202\n      jump\t// in\n    tag_331:\n        /* \"#utility.yul\":12635:12637   */\n      0x20\n        /* \"#utility.yul\":12630:12633   */\n      dup3\n        /* \"#utility.yul\":12626:12638   */\n      add\n        /* \"#utility.yul\":12619:12638   */\n      swap1\n      pop\n        /* \"#utility.yul\":12278:12644   */\n      swap2\n      swap1\n      pop\n      jump\t// out\n        /* \"#utility.yul\":12650:13069   */\n    tag_112:\n        /* \"#utility.yul\":12816:12820   */\n      0x00\n        /* \"#utility.yul\":12854:12856   */\n      0x20\n        /* \"#utility.yul\":12843:12852   */\n      dup3\n        /* \"#utility.yul\":12839:12857   */\n      add\n        /* \"#utility.yul\":12831:12857   */\n      swap1\n      pop\n        /* \"#utility.yul\":12903:12912   */\n      dup2\n        /* \"#utility.yul\":12897:12901   */\n      dup2\n        /* \"#utility.yul\":12893:12913   */\n      sub\n        /* \"#utility.yul\":12889:12890   */\n      0x00\n        /* \"#utility.yul\":12878:12887   */\n      dup4\n        /* \"#utility.yul\":12874:12891   */\n      add\n        /* \"#utility.yul\":12867:12914   */\n      mstore\n        /* \"#utility.yul\":12931:13062   */\n      tag_333\n        /* \"#utility.yul\":13057:13061   */\n      dup2\n        /* \"#utility.yul\":12931:13062   */\n      tag_203\n      jump\t// in\n    tag_333:\n        /* \"#utility.yul\":12923:13062   */\n      swap1\n      pop\n        /* \"#utility.yul\":12650:13069   */\n      swap2\n      swap1\n      pop\n      jump\t// out\n        /* \"#utility.yul\":13075:13256   */\n    tag_204:\n        /* \"#utility.yul\":13215:13248   */\n      0x617070726f76616c7320617265206e6f74206d6f7265207468616e2036302500\n        /* \"#utility.yul\":13211:13212   */\n      0x00\n        /* \"#utility.yul\":13203:13209   */\n      dup3\n        /* \"#utility.yul\":13199:13213   */\n      add\n        /* \"#utility.yul\":13192:13249   */\n      mstore\n        /* \"#utility.yul\":13075:13256   */\n      pop\n      jump\t// out\n        /* \"#utility.yul\":13262:13628   */\n    tag_205:\n        /* \"#utility.yul\":13404:13407   */\n      0x00\n        /* \"#utility.yul\":13425:13492   */\n      tag_336\n        /* \"#utility.yul\":13489:13491   */\n      0x1f\n        /* \"#utility.yul\":13484:13487   */\n      dup4\n        /* \"#utility.yul\":13425:13492   */\n      tag_191\n      jump\t// in\n    tag_336:\n        /* \"#utility.yul\":13418:13492   */\n      swap2\n      pop\n        /* \"#utility.yul\":13501:13594   */\n      tag_337\n        /* \"#utility.yul\":13590:13593   */\n      dup3\n        /* \"#utility.yul\":13501:13594   */\n      tag_204\n      jump\t// in\n    tag_337:\n        /* \"#utility.yul\":13619:13621   */\n      0x20\n        /* \"#utility.yul\":13614:13617   */\n      dup3\n        /* \"#utility.yul\":13610:13622   */\n      add\n        /* \"#utility.yul\":13603:13622   */\n      swap1\n      pop\n        /* \"#utility.yul\":13262:13628   */\n      swap2\n      swap1\n      pop\n      jump\t// out\n        /* \"#utility.yul\":13634:14053   */\n    tag_134:\n        /* \"#utility.yul\":13800:13804   */\n      0x00\n        /* \"#utility.yul\":13838:13840   */\n      0x20\n        /* \"#utility.yul\":13827:13836   */\n      dup3\n        /* \"#utility.yul\":13823:13841   */\n      add\n        /* \"#utility.yul\":13815:13841   */\n      swap1\n      pop\n        /* \"#utility.yul\":13887:13896   */\n      dup2\n        /* \"#utility.yul\":13881:13885   */\n      dup2\n        /* \"#utility.yul\":13877:13897   */\n      sub\n        /* \"#utility.yul\":13873:13874   */\n      0x00\n        /* \"#utility.yul\":13862:13871   */\n      dup4\n        /* \"#utility.yul\":13858:13875   */\n      add\n        /* \"#utility.yul\":13851:13898   */\n      mstore\n        /* \"#utility.yul\":13915:14046   */\n      tag_339\n        /* \"#utility.yul\":14041:14045   */\n      dup2\n        /* \"#utility.yul\":13915:14046   */\n      tag_205\n      jump\t// in\n    tag_339:\n        /* \"#utility.yul\":13907:14046   */\n      swap1\n      pop\n        /* \"#utility.yul\":13634:14053   */\n      swap2\n      swap1\n      pop\n      jump\t// out\n        /* \"#utility.yul\":14059:14206   */\n    tag_206:\n        /* \"#utility.yul\":14160:14171   */\n      0x00\n        /* \"#utility.yul\":14197:14200   */\n      dup2\n        /* \"#utility.yul\":14182:14200   */\n      swap1\n      pop\n        /* \"#utility.yul\":14059:14206   */\n      swap3\n      swap2\n      pop\n      pop\n      jump\t// out\n        /* \"#utility.yul\":14212:14352   */\n    tag_207:\n        /* \"#utility.yul\":14260:14264   */\n      0x00\n        /* \"#utility.yul\":14283:14286   */\n      dup2\n        /* \"#utility.yul\":14275:14286   */\n      swap1\n      pop\n        /* \"#utility.yul\":14306:14309   */\n      dup2\n        /* \"#utility.yul\":14303:14304   */\n      0x00\n        /* \"#utility.yul\":14296:14310   */\n      mstore\n        /* \"#utility.yul\":14340:14344   */\n      0x20\n        /* \"#utility.yul\":14337:14338   */\n      0x00\n        /* \"#utility.yul\":14327:14345   */\n      keccak256\n        /* \"#utility.yul\":14319:14345   */\n      swap1\n      pop\n        /* \"#utility.yul\":14212:14352   */\n      swap2\n      swap1\n      pop\n      jump\t// out\n        /* \"#utility.yul\":14380:15221   */\n    tag_208:\n        /* \"#utility.yul\":14481:14484   */\n      0x00\n        /* \"#utility.yul\":14518:14523   */\n      dup2\n        /* \"#utility.yul\":14512:14524   */\n      sload\n        /* \"#utility.yul\":14547:14583   */\n      tag_343\n        /* \"#utility.yul\":14573:14582   */\n      dup2\n        /* \"#utility.yul\":14547:14583   */\n      tag_98\n      jump\t// in\n    tag_343:\n        /* \"#utility.yul\":14599:14687   */\n      tag_344\n        /* \"#utility.yul\":14680:14686   */\n      dup2\n        /* \"#utility.yul\":14675:14678   */\n      dup7\n        /* \"#utility.yul\":14599:14687   */\n      tag_206\n      jump\t// in\n    tag_344:\n        /* \"#utility.yul\":14592:14687   */\n      swap5\n      pop\n        /* \"#utility.yul\":14718:14719   */\n      0x01\n        /* \"#utility.yul\":14707:14716   */\n      dup3\n        /* \"#utility.yul\":14703:14720   */\n      and\n        /* \"#utility.yul\":14734:14735   */\n      0x00\n        /* \"#utility.yul\":14729:14866   */\n      dup2\n      eq\n      tag_346\n      jumpi\n        /* \"#utility.yul\":14880:14881   */\n      0x01\n        /* \"#utility.yul\":14875:15215   */\n      dup2\n      eq\n      tag_347\n      jumpi\n        /* \"#utility.yul\":14696:15215   */\n      jump(tag_345)\n        /* \"#utility.yul\":14729:14866   */\n    tag_346:\n        /* \"#utility.yul\":14813:14817   */\n      0xff\n        /* \"#utility.yul\":14809:14818   */\n      not\n        /* \"#utility.yul\":14798:14807   */\n      dup4\n        /* \"#utility.yul\":14794:14819   */\n      and\n        /* \"#utility.yul\":14789:14792   */\n      dup7\n        /* \"#utility.yul\":14782:14820   */\n      mstore\n        /* \"#utility.yul\":14849:14855   */\n      dup2\n        /* \"#utility.yul\":14844:14847   */\n      dup7\n        /* \"#utility.yul\":14840:14856   */\n      add\n        /* \"#utility.yul\":14833:14856   */\n      swap4\n      pop\n        /* \"#utility.yul\":14729:14866   */\n      jump(tag_345)\n        /* \"#utility.yul\":14875:15215   */\n    tag_347:\n        /* \"#utility.yul\":14942:14979   */\n      tag_348\n        /* \"#utility.yul\":14973:14978   */\n      dup6\n        /* \"#utility.yul\":14942:14979   */\n      tag_207\n      jump\t// in\n    tag_348:\n        /* \"#utility.yul\":15001:15002   */\n      0x00\n        /* \"#utility.yul\":15015:15169   */\n    tag_349:\n        /* \"#utility.yul\":15029:15035   */\n      dup4\n        /* \"#utility.yul\":15026:15027   */\n      dup2\n        /* \"#utility.yul\":15023:15036   */\n      lt\n        /* \"#utility.yul\":15015:15169   */\n      iszero\n      tag_351\n      jumpi\n        /* \"#utility.yul\":15103:15110   */\n      dup2\n        /* \"#utility.yul\":15097:15111   */\n      sload\n        /* \"#utility.yul\":15093:15094   */\n      dup2\n        /* \"#utility.yul\":15088:15091   */\n      dup10\n        /* \"#utility.yul\":15084:15095   */\n      add\n        /* \"#utility.yul\":15077:15112   */\n      mstore\n        /* \"#utility.yul\":15153:15154   */\n      0x01\n        /* \"#utility.yul\":15144:15151   */\n      dup3\n        /* \"#utility.yul\":15140:15155   */\n      add\n        /* \"#utility.yul\":15129:15155   */\n      swap2\n      pop\n        /* \"#utility.yul\":15051:15055   */\n      0x20\n        /* \"#utility.yul\":15048:15049   */\n      dup2\n        /* \"#utility.yul\":15044:15056   */\n      add\n        /* \"#utility.yul\":15039:15056   */\n      swap1\n      pop\n        /* \"#utility.yul\":15015:15169   */\n      jump(tag_349)\n    tag_351:\n        /* \"#utility.yul\":15198:15204   */\n      dup4\n        /* \"#utility.yul\":15193:15196   */\n      dup9\n        /* \"#utility.yul\":15189:15205   */\n      add\n        /* \"#utility.yul\":15182:15205   */\n      swap6\n      pop\n        /* \"#utility.yul\":14882:15215   */\n      pop\n      pop\n        /* \"#utility.yul\":14696:15215   */\n    tag_345:\n      pop\n        /* \"#utility.yul\":14485:15221   */\n      pop\n      pop\n        /* \"#utility.yul\":14380:15221   */\n      swap3\n      swap2\n      pop\n      pop\n      jump\t// out\n        /* \"#utility.yul\":15227:15492   */\n    tag_139:\n        /* \"#utility.yul\":15354:15357   */\n      0x00\n        /* \"#utility.yul\":15376:15466   */\n      tag_353\n        /* \"#utility.yul\":15462:15465   */\n      dup3\n        /* \"#utility.yul\":15453:15459   */\n      dup5\n        /* \"#utility.yul\":15376:15466   */\n      tag_208\n      jump\t// in\n    tag_353:\n        /* \"#utility.yul\":15369:15466   */\n      swap2\n      pop\n        /* \"#utility.yul\":15483:15486   */\n      dup2\n        /* \"#utility.yul\":15476:15486   */\n      swap1\n      pop\n        /* \"#utility.yul\":15227:15492   */\n      swap3\n      swap2\n      pop\n      pop\n      jump\t// out\n        /* \"#utility.yul\":15498:15666   */\n    tag_209:\n        /* \"#utility.yul\":15638:15658   */\n      0x5472616e73616374696f6e206661696c65640000000000000000000000000000\n        /* \"#utility.yul\":15634:15635   */\n      0x00\n        /* \"#utility.yul\":15626:15632   */\n      dup3\n        /* \"#utility.yul\":15622:15636   */\n      add\n        /* \"#utility.yul\":15615:15659   */\n      mstore\n        /* \"#utility.yul\":15498:15666   */\n      pop\n      jump\t// out\n        /* \"#utility.yul\":15672:16038   */\n    tag_210:\n        /* \"#utility.yul\":15814:15817   */\n      0x00\n        /* \"#utility.yul\":15835:15902   */\n      tag_356\n        /* \"#utility.yul\":15899:15901   */\n      0x12\n        /* \"#utility.yul\":15894:15897   */\n      dup4\n        /* \"#utility.yul\":15835:15902   */\n      tag_191\n      jump\t// in\n    tag_356:\n        /* \"#utility.yul\":15828:15902   */\n      swap2\n      pop\n        /* \"#utility.yul\":15911:16004   */\n      tag_357\n        /* \"#utility.yul\":16000:16003   */\n      dup3\n        /* \"#utility.yul\":15911:16004   */\n      tag_209\n      jump\t// in\n    tag_357:\n        /* \"#utility.yul\":16029:16031   */\n      0x20\n        /* \"#utility.yul\":16024:16027   */\n      dup3\n        /* \"#utility.yul\":16020:16032   */\n      add\n        /* \"#utility.yul\":16013:16032   */\n      swap1\n      pop\n        /* \"#utility.yul\":15672:16038   */\n      swap2\n      swap1\n      pop\n      jump\t// out\n        /* \"#utility.yul\":16044:16463   */\n    tag_145:\n        /* \"#utility.yul\":16210:16214   */\n      0x00\n        /* \"#utility.yul\":16248:16250   */\n      0x20\n        /* \"#utility.yul\":16237:16246   */\n      dup3\n        /* \"#utility.yul\":16233:16251   */\n      add\n        /* \"#utility.yul\":16225:16251   */\n      swap1\n      pop\n        /* \"#utility.yul\":16297:16306   */\n      dup2\n        /* \"#utility.yul\":16291:16295   */\n      dup2\n        /* \"#utility.yul\":16287:16307   */\n      sub\n        /* \"#utility.yul\":16283:16284   */\n      0x00\n        /* \"#utility.yul\":16272:16281   */\n      dup4\n        /* \"#utility.yul\":16268:16285   */\n      add\n        /* \"#utility.yul\":16261:16308   */\n      mstore\n        /* \"#utility.yul\":16325:16456   */\n      tag_359\n        /* \"#utility.yul\":16451:16455   */\n      dup2\n        /* \"#utility.yul\":16325:16456   */\n      tag_210\n      jump\t// in\n    tag_359:\n        /* \"#utility.yul\":16317:16456   */\n      swap1\n      pop\n        /* \"#utility.yul\":16044:16463   */\n      swap2\n      swap1\n      pop\n      jump\t// out\n        /* \"#utility.yul\":16469:16774   */\n    tag_155:\n        /* \"#utility.yul\":16509:16512   */\n      0x00\n        /* \"#utility.yul\":16528:16548   */\n      tag_361\n        /* \"#utility.yul\":16546:16547   */\n      dup3\n        /* \"#utility.yul\":16528:16548   */\n      tag_168\n      jump\t// in\n    tag_361:\n        /* \"#utility.yul\":16523:16548   */\n      swap2\n      pop\n        /* \"#utility.yul\":16562:16582   */\n      tag_362\n        /* \"#utility.yul\":16580:16581   */\n      dup4\n        /* \"#utility.yul\":16562:16582   */\n      tag_168\n      jump\t// in\n    tag_362:\n        /* \"#utility.yul\":16557:16582   */\n      swap3\n      pop\n        /* \"#utility.yul\":16716:16717   */\n      dup3\n        /* \"#utility.yul\":16648:16714   */\n      0xffffffffffffffffffffffffffffffffffffffffffffffffffffffffffffffff\n        /* \"#utility.yul\":16644:16718   */\n      sub\n        /* \"#utility.yul\":16641:16642   */\n      dup3\n        /* \"#utility.yul\":16638:16719   */\n      gt\n        /* \"#utility.yul\":16635:16742   */\n      iszero\n      tag_363\n      jumpi\n        /* \"#utility.yul\":16722:16740   */\n      tag_364\n      tag_194\n      jump\t// in\n    tag_364:\n        /* \"#utility.yul\":16635:16742   */\n    tag_363:\n        /* \"#utility.yul\":16766:16767   */\n      dup3\n        /* \"#utility.yul\":16763:16764   */\n      dup3\n        /* \"#utility.yul\":16759:16768   */\n      add\n        /* \"#utility.yul\":16752:16768   */\n      swap1\n      pop\n        /* \"#utility.yul\":16469:16774   */\n      swap3\n      swap2\n      pop\n      pop\n      jump\t// out\n        /* \"#utility.yul\":16780:17013   */\n    tag_157:\n        /* \"#utility.yul\":16819:16822   */\n      0x00\n        /* \"#utility.yul\":16842:16866   */\n      tag_366\n        /* \"#utility.yul\":16860:16865   */\n      dup3\n        /* \"#utility.yul\":16842:16866   */\n      tag_168\n      jump\t// in\n    tag_366:\n        /* \"#utility.yul\":16833:16866   */\n      swap2\n      pop\n        /* \"#utility.yul\":16888:16954   */\n      0xffffffffffffffffffffffffffffffffffffffffffffffffffffffffffffffff\n        /* \"#utility.yul\":16881:16886   */\n      dup3\n        /* \"#utility.yul\":16878:16955   */\n      eq\n        /* \"#utility.yul\":16875:16978   */\n      iszero\n      tag_367\n      jumpi\n        /* \"#utility.yul\":16958:16976   */\n      tag_368\n      tag_194\n      jump\t// in\n    tag_368:\n        /* \"#utility.yul\":16875:16978   */\n    tag_367:\n        /* \"#utility.yul\":17005:17006   */\n      0x01\n        /* \"#utility.yul\":16998:17003   */\n      dup3\n        /* \"#utility.yul\":16994:17007   */\n      add\n        /* \"#utility.yul\":16987:17007   */\n      swap1\n      pop\n        /* \"#utility.yul\":16780:17013   */\n      swap2\n      swap1\n      pop\n      jump\t// out\n\n    auxdata: 0xa2646970667358221220a1abee9230b54298271d6db7618d2d387031039427ae9c10f2a8c9ad9e2a443464736f6c634300080a0033\n}\n",
				"bytecode": {
					"linkReferences": {},
					"object": "60806040523480156200001157600080fd5b506040516200205838038062002058833981810160405281019062000037919062000510565b60008251116200007e576040517f08c379a00000000000000000000000000000000000000000000000000000000081526004016200007590620005d7565b60405180910390fd5b600254811015801562000092575081518111155b620000d4576040517f08c379a0000000000000000000000000000000000000000000000000000000008152600401620000cb9062000649565b60405180910390fd5b60005b8251811015620002d7576000838281518110620000f957620000f86200066b565b5b60200260200101519050600073ffffffffffffffffffffffffffffffffffffffff168173ffffffffffffffffffffffffffffffffffffffff16141562000176576040517f08c379a00000000000000000000000000000000000000000000000000000000081526004016200016d90620006ea565b60405180910390fd5b600160008273ffffffffffffffffffffffffffffffffffffffff1673ffffffffffffffffffffffffffffffffffffffff16815260200190815260200160002060009054906101000a900460ff161562000206576040517f08c379a0000000000000000000000000000000000000000000000000000000008152600401620001fd906200075c565b60405180910390fd5b60018060008373ffffffffffffffffffffffffffffffffffffffff1673ffffffffffffffffffffffffffffffffffffffff16815260200190815260200160002060006101000a81548160ff0219169083151502179055506000819080600181540180825580915050600190039060005260206000200160009091909190916101000a81548173ffffffffffffffffffffffffffffffffffffffff021916908373ffffffffffffffffffffffffffffffffffffffff160217905550508080620002ce90620007ad565b915050620000d7565b50806002819055505050620007fb565b6000604051905090565b600080fd5b600080fd5b600080fd5b6000601f19601f8301169050919050565b7f4e487b7100000000000000000000000000000000000000000000000000000000600052604160045260246000fd5b6200034b8262000300565b810181811067ffffffffffffffff821117156200036d576200036c62000311565b5b80604052505050565b600062000382620002e7565b905062000390828262000340565b919050565b600067ffffffffffffffff821115620003b357620003b262000311565b5b602082029050602081019050919050565b600080fd5b600073ffffffffffffffffffffffffffffffffffffffff82169050919050565b6000620003f682620003c9565b9050919050565b6200040881620003e9565b81146200041457600080fd5b50565b6000815190506200042881620003fd565b92915050565b6000620004456200043f8462000395565b62000376565b905080838252602082019050602084028301858111156200046b576200046a620003c4565b5b835b8181101562000498578062000483888262000417565b8452602084019350506020810190506200046d565b5050509392505050565b600082601f830112620004ba57620004b9620002fb565b5b8151620004cc8482602086016200042e565b91505092915050565b6000819050919050565b620004ea81620004d5565b8114620004f657600080fd5b50565b6000815190506200050a81620004df565b92915050565b600080604083850312156200052a5762000529620002f1565b5b600083015167ffffffffffffffff8111156200054b576200054a620002f6565b5b6200055985828601620004a2565b92505060206200056c85828601620004f9565b9150509250929050565b600082825260208201905092915050565b7f4e6f204f776e6572730000000000000000000000000000000000000000000000600082015250565b6000620005bf60098362000576565b9150620005cc8262000587565b602082019050919050565b60006020820190508181036000830152620005f281620005b0565b9050919050565b7f4e6f7420417574686f72697a6564202100000000000000000000000000000000600082015250565b60006200063160108362000576565b91506200063e82620005f9565b602082019050919050565b60006020820190508181036000830152620006648162000622565b9050919050565b7f4e487b7100000000000000000000000000000000000000000000000000000000600052603260045260246000fd5b7f4e6f74206f776e65720000000000000000000000000000000000000000000000600082015250565b6000620006d260098362000576565b9150620006df826200069a565b602082019050919050565b600060208201905081810360008301526200070581620006c3565b9050919050565b7f4f776e65727320616c726561647920696e20746865206c697374000000000000600082015250565b600062000744601a8362000576565b915062000751826200070c565b602082019050919050565b60006020820190508181036000830152620007778162000735565b9050919050565b7f4e487b7100000000000000000000000000000000000000000000000000000000600052601160045260246000fd5b6000620007ba82620004d5565b91507fffffffffffffffffffffffffffffffffffffffffffffffffffffffffffffffff821415620007f057620007ef6200077e565b5b600182019050919050565b61184d806200080b6000396000f3fe60806040526004361061008a5760003560e01c80638253951a116100595780638253951a146101b05780638c97f558146101ed5780639ace38c214610218578063b759f95414610258578063fe0d94c114610281576100df565b8063025e7c27146100e457806314de327f1461012157806320c5429b1461014a5780632f54bf6e14610173576100df565b366100df573373ffffffffffffffffffffffffffffffffffffffff167fe1fffcc4923d04b559f4d29a8bfc6cda04eb5b0d3c460751c2402c5c5cc9109c346040516100d59190610f63565b60405180910390a2005b600080fd5b3480156100f057600080fd5b5061010b60048036038101906101069190610fb4565b6102aa565b6040516101189190611022565b60405180910390f35b34801561012d57600080fd5b50610148600480360381019061014391906110ce565b6102e9565b005b34801561015657600080fd5b50610171600480360381019061016c9190610fb4565b6104f2565b005b34801561017f57600080fd5b5061019a60048036038101906101959190611142565b610789565b6040516101a7919061118a565b60405180910390f35b3480156101bc57600080fd5b506101d760048036038101906101d291906111a5565b6107a9565b6040516101e4919061118a565b60405180910390f35b3480156101f957600080fd5b506102026107d8565b60405161020f9190610f63565b60405180910390f35b34801561022457600080fd5b5061023f600480360381019061023a9190610fb4565b6107de565b60405161024f949392919061127e565b60405180910390f35b34801561026457600080fd5b5061027f600480360381019061027a9190610fb4565b6108d3565b005b34801561028d57600080fd5b506102a860048036038101906102a39190610fb4565b610b6d565b005b600081815481106102ba57600080fd5b906000526020600020016000915054906101000a900473ffffffffffffffffffffffffffffffffffffffff1681565b600160003373ffffffffffffffffffffffffffffffffffffffff1673ffffffffffffffffffffffffffffffffffffffff16815260200190815260200160002060009054906101000a900460ff16610375576040517f08c379a000000000000000000000000000000000000000000000000000000000815260040161036c90611327565b60405180910390fd5b600360405180608001604052808673ffffffffffffffffffffffffffffffffffffffff16815260200185815260200184848080601f016020809104026020016040519081016040528093929190818152602001838380828437600081840152601f19601f82011690508083019250505050505050815260200160001515815250908060018154018082558091505060019003906000526020600020906004020160009091909190915060008201518160000160006101000a81548173ffffffffffffffffffffffffffffffffffffffff021916908373ffffffffffffffffffffffffffffffffffffffff16021790555060208201518160010155604082015181600201908051906020019061048b929190610ea7565b5060608201518160030160006101000a81548160ff021916908315150217905550505060016003805490506104c09190611376565b7f08324b3d745b914e3abd4ffbfead91e3b78391a98c173202129215ab933adfbe60405160405180910390a250505050565b600160003373ffffffffffffffffffffffffffffffffffffffff1673ffffffffffffffffffffffffffffffffffffffff16815260200190815260200160002060009054906101000a900460ff1661057e576040517f08c379a000000000000000000000000000000000000000000000000000000000815260040161057590611327565b60405180910390fd5b8060038054905081106105c6576040517f08c379a00000000000000000000000000000000000000000000000000000000081526004016105bd906113f6565b60405180910390fd5b81600381815481106105db576105da611416565b5b906000526020600020906004020160030160009054906101000a900460ff161561063a576040517f08c379a000000000000000000000000000000000000000000000000000000000815260040161063190611491565b60405180910390fd5b6004600084815260200190815260200160002060003373ffffffffffffffffffffffffffffffffffffffff1673ffffffffffffffffffffffffffffffffffffffff16815260200190815260200160002060009054906101000a900460ff166106d7576040517f08c379a00000000000000000000000000000000000000000000000000000000081526004016106ce906114fd565b60405180910390fd5b60006004600085815260200190815260200160002060003373ffffffffffffffffffffffffffffffffffffffff1673ffffffffffffffffffffffffffffffffffffffff16815260200190815260200160002060006101000a81548160ff021916908315150217905550823373ffffffffffffffffffffffffffffffffffffffff167fec9ab91322523c899ede7830ec9bfc992b5981cdcc27b91162fb23de5791117b60405160405180910390a3505050565b60016020528060005260406000206000915054906101000a900460ff1681565b60046020528160005260406000206020528060005260406000206000915091509054906101000a900460ff1681565b60025481565b600381815481106107ee57600080fd5b90600052602060002090600402016000915090508060000160009054906101000a900473ffffffffffffffffffffffffffffffffffffffff169080600101549080600201805461083d9061154c565b80601f01602080910402602001604051908101604052809291908181526020018280546108699061154c565b80156108b65780601f1061088b576101008083540402835291602001916108b6565b820191906000526020600020905b81548152906001019060200180831161089957829003601f168201915b5050505050908060030160009054906101000a900460ff16905084565b600160003373ffffffffffffffffffffffffffffffffffffffff1673ffffffffffffffffffffffffffffffffffffffff16815260200190815260200160002060009054906101000a900460ff1661095f576040517f08c379a000000000000000000000000000000000000000000000000000000000815260040161095690611327565b60405180910390fd5b8060038054905081106109a7576040517f08c379a000000000000000000000000000000000000000000000000000000000815260040161099e906113f6565b60405180910390fd5b816004600082815260200190815260200160002060003373ffffffffffffffffffffffffffffffffffffffff1673ffffffffffffffffffffffffffffffffffffffff16815260200190815260200160002060009054906101000a900460ff1615610a46576040517f08c379a0000000000000000000000000000000000000000000000000000000008152600401610a3d906115ca565b60405180910390fd5b8260038181548110610a5b57610a5a611416565b5b906000526020600020906004020160030160009054906101000a900460ff1615610aba576040517f08c379a0000000000000000000000000000000000000000000000000000000008152600401610ab190611491565b60405180910390fd5b60016004600086815260200190815260200160002060003373ffffffffffffffffffffffffffffffffffffffff1673ffffffffffffffffffffffffffffffffffffffff16815260200190815260200160002060006101000a81548160ff021916908315150217905550833373ffffffffffffffffffffffffffffffffffffffff167f90ec57f18fa7b15c6b8d5e4d1deb90796c74b2ff23d4d0cecad0cb42a96b312860405160405180910390a350505050565b806003805490508110610bb5576040517f08c379a0000000000000000000000000000000000000000000000000000000008152600401610bac906113f6565b60405180910390fd5b8160038181548110610bca57610bc9611416565b5b906000526020600020906004020160030160009054906101000a900460ff1615610c29576040517f08c379a0000000000000000000000000000000000000000000000000000000008152600401610c2090611491565b60405180910390fd5b600254610c3584610dc6565b1015610c76576040517f08c379a0000000000000000000000000000000000000000000000000000000008152600401610c6d90611636565b60405180910390fd5b600060038481548110610c8c57610c8b611416565b5b9060005260206000209060040201905060018160030160006101000a81548160ff02191690831515021790555060008160000160009054906101000a900473ffffffffffffffffffffffffffffffffffffffff1673ffffffffffffffffffffffffffffffffffffffff16826001015483600201604051610d0c91906116f5565b60006040518083038185875af1925050503d8060008114610d49576040519150601f19603f3d011682016040523d82523d6000602084013e610d4e565b606091505b5050905080610d92576040517f08c379a0000000000000000000000000000000000000000000000000000000008152600401610d8990611758565b60405180910390fd5b847fddb556f1d2c1ec821e910b019d3685b229db152a0ecd517ca7e24b8bd713928960405160405180910390a25050505050565b6000806000905060005b600080549050811015610ea057600460008581526020019081526020016000206000808381548110610e0557610e04611416565b5b9060005260206000200160009054906101000a900473ffffffffffffffffffffffffffffffffffffffff1673ffffffffffffffffffffffffffffffffffffffff1673ffffffffffffffffffffffffffffffffffffffff16815260200190815260200160002060009054906101000a900460ff1615610e8d57600182610e8a9190611778565b91505b8080610e98906117ce565b915050610dd0565b5050919050565b828054610eb39061154c565b90600052602060002090601f016020900481019282610ed55760008555610f1c565b82601f10610eee57805160ff1916838001178555610f1c565b82800160010185558215610f1c579182015b82811115610f1b578251825591602001919060010190610f00565b5b509050610f299190610f2d565b5090565b5b80821115610f46576000816000905550600101610f2e565b5090565b6000819050919050565b610f5d81610f4a565b82525050565b6000602082019050610f786000830184610f54565b92915050565b600080fd5b600080fd5b610f9181610f4a565b8114610f9c57600080fd5b50565b600081359050610fae81610f88565b92915050565b600060208284031215610fca57610fc9610f7e565b5b6000610fd884828501610f9f565b91505092915050565b600073ffffffffffffffffffffffffffffffffffffffff82169050919050565b600061100c82610fe1565b9050919050565b61101c81611001565b82525050565b60006020820190506110376000830184611013565b92915050565b61104681611001565b811461105157600080fd5b50565b6000813590506110638161103d565b92915050565b600080fd5b600080fd5b600080fd5b60008083601f84011261108e5761108d611069565b5b8235905067ffffffffffffffff8111156110ab576110aa61106e565b5b6020830191508360018202830111156110c7576110c6611073565b5b9250929050565b600080600080606085870312156110e8576110e7610f7e565b5b60006110f687828801611054565b945050602061110787828801610f9f565b935050604085013567ffffffffffffffff81111561112857611127610f83565b5b61113487828801611078565b925092505092959194509250565b60006020828403121561115857611157610f7e565b5b600061116684828501611054565b91505092915050565b60008115159050919050565b6111848161116f565b82525050565b600060208201905061119f600083018461117b565b92915050565b600080604083850312156111bc576111bb610f7e565b5b60006111ca85828601610f9f565b92505060206111db85828601611054565b9150509250929050565b600081519050919050565b600082825260208201905092915050565b60005b8381101561121f578082015181840152602081019050611204565b8381111561122e576000848401525b50505050565b6000601f19601f8301169050919050565b6000611250826111e5565b61125a81856111f0565b935061126a818560208601611201565b61127381611234565b840191505092915050565b60006080820190506112936000830187611013565b6112a06020830186610f54565b81810360408301526112b28185611245565b90506112c1606083018461117b565b95945050505050565b600082825260208201905092915050565b7f4e6f74204f776e65720000000000000000000000000000000000000000000000600082015250565b60006113116009836112ca565b915061131c826112db565b602082019050919050565b6000602082019050818103600083015261134081611304565b9050919050565b7f4e487b7100000000000000000000000000000000000000000000000000000000600052601160045260246000fd5b600061138182610f4a565b915061138c83610f4a565b92508282101561139f5761139e611347565b5b828203905092915050565b7f5472616e73616374696f6e20646f6573206e6f74206578697374000000000000600082015250565b60006113e0601a836112ca565b91506113eb826113aa565b602082019050919050565b6000602082019050818103600083015261140f816113d3565b9050919050565b7f4e487b7100000000000000000000000000000000000000000000000000000000600052603260045260246000fd5b7f5472616e73616374696f6e20616c726561647920657865637574656400000000600082015250565b600061147b601c836112ca565b915061148682611445565b602082019050919050565b600060208201905081810360008301526114aa8161146e565b9050919050565b7f5472616e73616374696f6e206e6f7420617070726f7665640000000000000000600082015250565b60006114e76018836112ca565b91506114f2826114b1565b602082019050919050565b60006020820190508181036000830152611516816114da565b9050919050565b7f4e487b7100000000000000000000000000000000000000000000000000000000600052602260045260246000fd5b6000600282049050600182168061156457607f821691505b602082108114156115785761157761151d565b5b50919050565b7f5472616e73616374696f6e20616c726561647920617070726f76656400000000600082015250565b60006115b4601c836112ca565b91506115bf8261157e565b602082019050919050565b600060208201905081810360008301526115e3816115a7565b9050919050565b7f617070726f76616c7320617265206e6f74206d6f7265207468616e2036302500600082015250565b6000611620601f836112ca565b915061162b826115ea565b602082019050919050565b6000602082019050818103600083015261164f81611613565b9050919050565b600081905092915050565b60008190508160005260206000209050919050565b600081546116838161154c565b61168d8186611656565b945060018216600081146116a857600181146116b9576116ec565b60ff198316865281860193506116ec565b6116c285611661565b60005b838110156116e4578154818901526001820191506020810190506116c5565b838801955050505b50505092915050565b60006117018284611676565b915081905092915050565b7f5472616e73616374696f6e206661696c65640000000000000000000000000000600082015250565b60006117426012836112ca565b915061174d8261170c565b602082019050919050565b6000602082019050818103600083015261177181611735565b9050919050565b600061178382610f4a565b915061178e83610f4a565b9250827fffffffffffffffffffffffffffffffffffffffffffffffffffffffffffffffff038211156117c3576117c2611347565b5b828201905092915050565b60006117d982610f4a565b91507fffffffffffffffffffffffffffffffffffffffffffffffffffffffffffffffff82141561180c5761180b611347565b5b60018201905091905056fea2646970667358221220a1abee9230b54298271d6db7618d2d387031039427ae9c10f2a8c9ad9e2a443464736f6c634300080a0033",
					"opcodes": "PUSH1 0x80 PUSH1 0x40 MSTORE CALLVALUE DUP1 ISZERO PUSH3 0x11 JUMPI PUSH1 0x0 DUP1 REVERT JUMPDEST POP PUSH1 0x40 MLOAD PUSH3 0x2058 CODESIZE SUB DUP1 PUSH3 0x2058 DUP4 CODECOPY DUP2 DUP2 ADD PUSH1 0x40 MSTORE DUP2 ADD SWAP1 PUSH3 0x37 SWAP2 SWAP1 PUSH3 0x510 JUMP JUMPDEST PUSH1 0x0 DUP3 MLOAD GT PUSH3 0x7E JUMPI PUSH1 0x40 MLOAD PUSH32 0x8C379A000000000000000000000000000000000000000000000000000000000 DUP2 MSTORE PUSH1 0x4 ADD PUSH3 0x75 SWAP1 PUSH3 0x5D7 JUMP JUMPDEST PUSH1 0x40 MLOAD DUP1 SWAP2 SUB SWAP1 REVERT JUMPDEST PUSH1 0x2 SLOAD DUP2 LT ISZERO DUP1 ISZERO PUSH3 0x92 JUMPI POP DUP2 MLOAD DUP2 GT ISZERO JUMPDEST PUSH3 0xD4 JUMPI PUSH1 0x40 MLOAD PUSH32 0x8C379A000000000000000000000000000000000000000000000000000000000 DUP2 MSTORE PUSH1 0x4 ADD PUSH3 0xCB SWAP1 PUSH3 0x649 JUMP JUMPDEST PUSH1 0x40 MLOAD DUP1 SWAP2 SUB SWAP1 REVERT JUMPDEST PUSH1 0x0 JUMPDEST DUP3 MLOAD DUP2 LT ISZERO PUSH3 0x2D7 JUMPI PUSH1 0x0 DUP4 DUP3 DUP2 MLOAD DUP2 LT PUSH3 0xF9 JUMPI PUSH3 0xF8 PUSH3 0x66B JUMP JUMPDEST JUMPDEST PUSH1 0x20 MUL PUSH1 0x20 ADD ADD MLOAD SWAP1 POP PUSH1 0x0 PUSH20 0xFFFFFFFFFFFFFFFFFFFFFFFFFFFFFFFFFFFFFFFF AND DUP2 PUSH20 0xFFFFFFFFFFFFFFFFFFFFFFFFFFFFFFFFFFFFFFFF AND EQ ISZERO PUSH3 0x176 JUMPI PUSH1 0x40 MLOAD PUSH32 0x8C379A000000000000000000000000000000000000000000000000000000000 DUP2 MSTORE PUSH1 0x4 ADD PUSH3 0x16D SWAP1 PUSH3 0x6EA JUMP JUMPDEST PUSH1 0x40 MLOAD DUP1 SWAP2 SUB SWAP1 REVERT JUMPDEST PUSH1 0x1 PUSH1 0x0 DUP3 PUSH20 0xFFFFFFFFFFFFFFFFFFFFFFFFFFFFFFFFFFFFFFFF AND PUSH20 0xFFFFFFFFFFFFFFFFFFFFFFFFFFFFFFFFFFFFFFFF AND DUP2 MSTORE PUSH1 0x20 ADD SWAP1 DUP2 MSTORE PUSH1 0x20 ADD PUSH1 0x0 KECCAK256 PUSH1 0x0 SWAP1 SLOAD SWAP1 PUSH2 0x100 EXP SWAP1 DIV PUSH1 0xFF AND ISZERO PUSH3 0x206 JUMPI PUSH1 0x40 MLOAD PUSH32 0x8C379A000000000000000000000000000000000000000000000000000000000 DUP2 MSTORE PUSH1 0x4 ADD PUSH3 0x1FD SWAP1 PUSH3 0x75C JUMP JUMPDEST PUSH1 0x40 MLOAD DUP1 SWAP2 SUB SWAP1 REVERT JUMPDEST PUSH1 0x1 DUP1 PUSH1 0x0 DUP4 PUSH20 0xFFFFFFFFFFFFFFFFFFFFFFFFFFFFFFFFFFFFFFFF AND PUSH20 0xFFFFFFFFFFFFFFFFFFFFFFFFFFFFFFFFFFFFFFFF AND DUP2 MSTORE PUSH1 0x20 ADD SWAP1 DUP2 MSTORE PUSH1 0x20 ADD PUSH1 0x0 KECCAK256 PUSH1 0x0 PUSH2 0x100 EXP DUP2 SLOAD DUP2 PUSH1 0xFF MUL NOT AND SWAP1 DUP4 ISZERO ISZERO MUL OR SWAP1 SSTORE POP PUSH1 0x0 DUP2 SWAP1 DUP1 PUSH1 0x1 DUP2 SLOAD ADD DUP1 DUP3 SSTORE DUP1 SWAP2 POP POP PUSH1 0x1 SWAP1 SUB SWAP1 PUSH1 0x0 MSTORE PUSH1 0x20 PUSH1 0x0 KECCAK256 ADD PUSH1 0x0 SWAP1 SWAP2 SWAP1 SWAP2 SWAP1 SWAP2 PUSH2 0x100 EXP DUP2 SLOAD DUP2 PUSH20 0xFFFFFFFFFFFFFFFFFFFFFFFFFFFFFFFFFFFFFFFF MUL NOT AND SWAP1 DUP4 PUSH20 0xFFFFFFFFFFFFFFFFFFFFFFFFFFFFFFFFFFFFFFFF AND MUL OR SWAP1 SSTORE POP POP DUP1 DUP1 PUSH3 0x2CE SWAP1 PUSH3 0x7AD JUMP JUMPDEST SWAP2 POP POP PUSH3 0xD7 JUMP JUMPDEST POP DUP1 PUSH1 0x2 DUP2 SWAP1 SSTORE POP POP POP PUSH3 0x7FB JUMP JUMPDEST PUSH1 0x0 PUSH1 0x40 MLOAD SWAP1 POP SWAP1 JUMP JUMPDEST PUSH1 0x0 DUP1 REVERT JUMPDEST PUSH1 0x0 DUP1 REVERT JUMPDEST PUSH1 0x0 DUP1 REVERT JUMPDEST PUSH1 0x0 PUSH1 0x1F NOT PUSH1 0x1F DUP4 ADD AND SWAP1 POP SWAP2 SWAP1 POP JUMP JUMPDEST PUSH32 0x4E487B7100000000000000000000000000000000000000000000000000000000 PUSH1 0x0 MSTORE PUSH1 0x41 PUSH1 0x4 MSTORE PUSH1 0x24 PUSH1 0x0 REVERT JUMPDEST PUSH3 0x34B DUP3 PUSH3 0x300 JUMP JUMPDEST DUP2 ADD DUP2 DUP2 LT PUSH8 0xFFFFFFFFFFFFFFFF DUP3 GT OR ISZERO PUSH3 0x36D JUMPI PUSH3 0x36C PUSH3 0x311 JUMP JUMPDEST JUMPDEST DUP1 PUSH1 0x40 MSTORE POP POP POP JUMP JUMPDEST PUSH1 0x0 PUSH3 0x382 PUSH3 0x2E7 JUMP JUMPDEST SWAP1 POP PUSH3 0x390 DUP3 DUP3 PUSH3 0x340 JUMP JUMPDEST SWAP2 SWAP1 POP JUMP JUMPDEST PUSH1 0x0 PUSH8 0xFFFFFFFFFFFFFFFF DUP3 GT ISZERO PUSH3 0x3B3 JUMPI PUSH3 0x3B2 PUSH3 0x311 JUMP JUMPDEST JUMPDEST PUSH1 0x20 DUP3 MUL SWAP1 POP PUSH1 0x20 DUP2 ADD SWAP1 POP SWAP2 SWAP1 POP JUMP JUMPDEST PUSH1 0x0 DUP1 REVERT JUMPDEST PUSH1 0x0 PUSH20 0xFFFFFFFFFFFFFFFFFFFFFFFFFFFFFFFFFFFFFFFF DUP3 AND SWAP1 POP SWAP2 SWAP1 POP JUMP JUMPDEST PUSH1 0x0 PUSH3 0x3F6 DUP3 PUSH3 0x3C9 JUMP JUMPDEST SWAP1 POP SWAP2 SWAP1 POP JUMP JUMPDEST PUSH3 0x408 DUP2 PUSH3 0x3E9 JUMP JUMPDEST DUP2 EQ PUSH3 0x414 JUMPI PUSH1 0x0 DUP1 REVERT JUMPDEST POP JUMP JUMPDEST PUSH1 0x0 DUP2 MLOAD SWAP1 POP PUSH3 0x428 DUP2 PUSH3 0x3FD JUMP JUMPDEST SWAP3 SWAP2 POP POP JUMP JUMPDEST PUSH1 0x0 PUSH3 0x445 PUSH3 0x43F DUP5 PUSH3 0x395 JUMP JUMPDEST PUSH3 0x376 JUMP JUMPDEST SWAP1 POP DUP1 DUP4 DUP3 MSTORE PUSH1 0x20 DUP3 ADD SWAP1 POP PUSH1 0x20 DUP5 MUL DUP4 ADD DUP6 DUP2 GT ISZERO PUSH3 0x46B JUMPI PUSH3 0x46A PUSH3 0x3C4 JUMP JUMPDEST JUMPDEST DUP4 JUMPDEST DUP2 DUP2 LT ISZERO PUSH3 0x498 JUMPI DUP1 PUSH3 0x483 DUP9 DUP3 PUSH3 0x417 JUMP JUMPDEST DUP5 MSTORE PUSH1 0x20 DUP5 ADD SWAP4 POP POP PUSH1 0x20 DUP2 ADD SWAP1 POP PUSH3 0x46D JUMP JUMPDEST POP POP POP SWAP4 SWAP3 POP POP POP JUMP JUMPDEST PUSH1 0x0 DUP3 PUSH1 0x1F DUP4 ADD SLT PUSH3 0x4BA JUMPI PUSH3 0x4B9 PUSH3 0x2FB JUMP JUMPDEST JUMPDEST DUP2 MLOAD PUSH3 0x4CC DUP5 DUP3 PUSH1 0x20 DUP7 ADD PUSH3 0x42E JUMP JUMPDEST SWAP2 POP POP SWAP3 SWAP2 POP POP JUMP JUMPDEST PUSH1 0x0 DUP2 SWAP1 POP SWAP2 SWAP1 POP JUMP JUMPDEST PUSH3 0x4EA DUP2 PUSH3 0x4D5 JUMP JUMPDEST DUP2 EQ PUSH3 0x4F6 JUMPI PUSH1 0x0 DUP1 REVERT JUMPDEST POP JUMP JUMPDEST PUSH1 0x0 DUP2 MLOAD SWAP1 POP PUSH3 0x50A DUP2 PUSH3 0x4DF JUMP JUMPDEST SWAP3 SWAP2 POP POP JUMP JUMPDEST PUSH1 0x0 DUP1 PUSH1 0x40 DUP4 DUP6 SUB SLT ISZERO PUSH3 0x52A JUMPI PUSH3 0x529 PUSH3 0x2F1 JUMP JUMPDEST JUMPDEST PUSH1 0x0 DUP4 ADD MLOAD PUSH8 0xFFFFFFFFFFFFFFFF DUP2 GT ISZERO PUSH3 0x54B JUMPI PUSH3 0x54A PUSH3 0x2F6 JUMP JUMPDEST JUMPDEST PUSH3 0x559 DUP6 DUP3 DUP7 ADD PUSH3 0x4A2 JUMP JUMPDEST SWAP3 POP POP PUSH1 0x20 PUSH3 0x56C DUP6 DUP3 DUP7 ADD PUSH3 0x4F9 JUMP JUMPDEST SWAP2 POP POP SWAP3 POP SWAP3 SWAP1 POP JUMP JUMPDEST PUSH1 0x0 DUP3 DUP3 MSTORE PUSH1 0x20 DUP3 ADD SWAP1 POP SWAP3 SWAP2 POP POP JUMP JUMPDEST PUSH32 0x4E6F204F776E6572730000000000000000000000000000000000000000000000 PUSH1 0x0 DUP3 ADD MSTORE POP JUMP JUMPDEST PUSH1 0x0 PUSH3 0x5BF PUSH1 0x9 DUP4 PUSH3 0x576 JUMP JUMPDEST SWAP2 POP PUSH3 0x5CC DUP3 PUSH3 0x587 JUMP JUMPDEST PUSH1 0x20 DUP3 ADD SWAP1 POP SWAP2 SWAP1 POP JUMP JUMPDEST PUSH1 0x0 PUSH1 0x20 DUP3 ADD SWAP1 POP DUP2 DUP2 SUB PUSH1 0x0 DUP4 ADD MSTORE PUSH3 0x5F2 DUP2 PUSH3 0x5B0 JUMP JUMPDEST SWAP1 POP SWAP2 SWAP1 POP JUMP JUMPDEST PUSH32 0x4E6F7420417574686F72697A6564202100000000000000000000000000000000 PUSH1 0x0 DUP3 ADD MSTORE POP JUMP JUMPDEST PUSH1 0x0 PUSH3 0x631 PUSH1 0x10 DUP4 PUSH3 0x576 JUMP JUMPDEST SWAP2 POP PUSH3 0x63E DUP3 PUSH3 0x5F9 JUMP JUMPDEST PUSH1 0x20 DUP3 ADD SWAP1 POP SWAP2 SWAP1 POP JUMP JUMPDEST PUSH1 0x0 PUSH1 0x20 DUP3 ADD SWAP1 POP DUP2 DUP2 SUB PUSH1 0x0 DUP4 ADD MSTORE PUSH3 0x664 DUP2 PUSH3 0x622 JUMP JUMPDEST SWAP1 POP SWAP2 SWAP1 POP JUMP JUMPDEST PUSH32 0x4E487B7100000000000000000000000000000000000000000000000000000000 PUSH1 0x0 MSTORE PUSH1 0x32 PUSH1 0x4 MSTORE PUSH1 0x24 PUSH1 0x0 REVERT JUMPDEST PUSH32 0x4E6F74206F776E65720000000000000000000000000000000000000000000000 PUSH1 0x0 DUP3 ADD MSTORE POP JUMP JUMPDEST PUSH1 0x0 PUSH3 0x6D2 PUSH1 0x9 DUP4 PUSH3 0x576 JUMP JUMPDEST SWAP2 POP PUSH3 0x6DF DUP3 PUSH3 0x69A JUMP JUMPDEST PUSH1 0x20 DUP3 ADD SWAP1 POP SWAP2 SWAP1 POP JUMP JUMPDEST PUSH1 0x0 PUSH1 0x20 DUP3 ADD SWAP1 POP DUP2 DUP2 SUB PUSH1 0x0 DUP4 ADD MSTORE PUSH3 0x705 DUP2 PUSH3 0x6C3 JUMP JUMPDEST SWAP1 POP SWAP2 SWAP1 POP JUMP JUMPDEST PUSH32 0x4F776E65727320616C726561647920696E20746865206C697374000000000000 PUSH1 0x0 DUP3 ADD MSTORE POP JUMP JUMPDEST PUSH1 0x0 PUSH3 0x744 PUSH1 0x1A DUP4 PUSH3 0x576 JUMP JUMPDEST SWAP2 POP PUSH3 0x751 DUP3 PUSH3 0x70C JUMP JUMPDEST PUSH1 0x20 DUP3 ADD SWAP1 POP SWAP2 SWAP1 POP JUMP JUMPDEST PUSH1 0x0 PUSH1 0x20 DUP3 ADD SWAP1 POP DUP2 DUP2 SUB PUSH1 0x0 DUP4 ADD MSTORE PUSH3 0x777 DUP2 PUSH3 0x735 JUMP JUMPDEST SWAP1 POP SWAP2 SWAP1 POP JUMP JUMPDEST PUSH32 0x4E487B7100000000000000000000000000000000000000000000000000000000 PUSH1 0x0 MSTORE PUSH1 0x11 PUSH1 0x4 MSTORE PUSH1 0x24 PUSH1 0x0 REVERT JUMPDEST PUSH1 0x0 PUSH3 0x7BA DUP3 PUSH3 0x4D5 JUMP JUMPDEST SWAP2 POP PUSH32 0xFFFFFFFFFFFFFFFFFFFFFFFFFFFFFFFFFFFFFFFFFFFFFFFFFFFFFFFFFFFFFFFF DUP3 EQ ISZERO PUSH3 0x7F0 JUMPI PUSH3 0x7EF PUSH3 0x77E JUMP JUMPDEST JUMPDEST PUSH1 0x1 DUP3 ADD SWAP1 POP SWAP2 SWAP1 POP JUMP JUMPDEST PUSH2 0x184D DUP1 PUSH3 0x80B PUSH1 0x0 CODECOPY PUSH1 0x0 RETURN INVALID PUSH1 0x80 PUSH1 0x40 MSTORE PUSH1 0x4 CALLDATASIZE LT PUSH2 0x8A JUMPI PUSH1 0x0 CALLDATALOAD PUSH1 0xE0 SHR DUP1 PUSH4 0x8253951A GT PUSH2 0x59 JUMPI DUP1 PUSH4 0x8253951A EQ PUSH2 0x1B0 JUMPI DUP1 PUSH4 0x8C97F558 EQ PUSH2 0x1ED JUMPI DUP1 PUSH4 0x9ACE38C2 EQ PUSH2 0x218 JUMPI DUP1 PUSH4 0xB759F954 EQ PUSH2 0x258 JUMPI DUP1 PUSH4 0xFE0D94C1 EQ PUSH2 0x281 JUMPI PUSH2 0xDF JUMP JUMPDEST DUP1 PUSH4 0x25E7C27 EQ PUSH2 0xE4 JUMPI DUP1 PUSH4 0x14DE327F EQ PUSH2 0x121 JUMPI DUP1 PUSH4 0x20C5429B EQ PUSH2 0x14A JUMPI DUP1 PUSH4 0x2F54BF6E EQ PUSH2 0x173 JUMPI PUSH2 0xDF JUMP JUMPDEST CALLDATASIZE PUSH2 0xDF JUMPI CALLER PUSH20 0xFFFFFFFFFFFFFFFFFFFFFFFFFFFFFFFFFFFFFFFF AND PUSH32 0xE1FFFCC4923D04B559F4D29A8BFC6CDA04EB5B0D3C460751C2402C5C5CC9109C CALLVALUE PUSH1 0x40 MLOAD PUSH2 0xD5 SWAP2 SWAP1 PUSH2 0xF63 JUMP JUMPDEST PUSH1 0x40 MLOAD DUP1 SWAP2 SUB SWAP1 LOG2 STOP JUMPDEST PUSH1 0x0 DUP1 REVERT JUMPDEST CALLVALUE DUP1 ISZERO PUSH2 0xF0 JUMPI PUSH1 0x0 DUP1 REVERT JUMPDEST POP PUSH2 0x10B PUSH1 0x4 DUP1 CALLDATASIZE SUB DUP2 ADD SWAP1 PUSH2 0x106 SWAP2 SWAP1 PUSH2 0xFB4 JUMP JUMPDEST PUSH2 0x2AA JUMP JUMPDEST PUSH1 0x40 MLOAD PUSH2 0x118 SWAP2 SWAP1 PUSH2 0x1022 JUMP JUMPDEST PUSH1 0x40 MLOAD DUP1 SWAP2 SUB SWAP1 RETURN JUMPDEST CALLVALUE DUP1 ISZERO PUSH2 0x12D JUMPI PUSH1 0x0 DUP1 REVERT JUMPDEST POP PUSH2 0x148 PUSH1 0x4 DUP1 CALLDATASIZE SUB DUP2 ADD SWAP1 PUSH2 0x143 SWAP2 SWAP1 PUSH2 0x10CE JUMP JUMPDEST PUSH2 0x2E9 JUMP JUMPDEST STOP JUMPDEST CALLVALUE DUP1 ISZERO PUSH2 0x156 JUMPI PUSH1 0x0 DUP1 REVERT JUMPDEST POP PUSH2 0x171 PUSH1 0x4 DUP1 CALLDATASIZE SUB DUP2 ADD SWAP1 PUSH2 0x16C SWAP2 SWAP1 PUSH2 0xFB4 JUMP JUMPDEST PUSH2 0x4F2 JUMP JUMPDEST STOP JUMPDEST CALLVALUE DUP1 ISZERO PUSH2 0x17F JUMPI PUSH1 0x0 DUP1 REVERT JUMPDEST POP PUSH2 0x19A PUSH1 0x4 DUP1 CALLDATASIZE SUB DUP2 ADD SWAP1 PUSH2 0x195 SWAP2 SWAP1 PUSH2 0x1142 JUMP JUMPDEST PUSH2 0x789 JUMP JUMPDEST PUSH1 0x40 MLOAD PUSH2 0x1A7 SWAP2 SWAP1 PUSH2 0x118A JUMP JUMPDEST PUSH1 0x40 MLOAD DUP1 SWAP2 SUB SWAP1 RETURN JUMPDEST CALLVALUE DUP1 ISZERO PUSH2 0x1BC JUMPI PUSH1 0x0 DUP1 REVERT JUMPDEST POP PUSH2 0x1D7 PUSH1 0x4 DUP1 CALLDATASIZE SUB DUP2 ADD SWAP1 PUSH2 0x1D2 SWAP2 SWAP1 PUSH2 0x11A5 JUMP JUMPDEST PUSH2 0x7A9 JUMP JUMPDEST PUSH1 0x40 MLOAD PUSH2 0x1E4 SWAP2 SWAP1 PUSH2 0x118A JUMP JUMPDEST PUSH1 0x40 MLOAD DUP1 SWAP2 SUB SWAP1 RETURN JUMPDEST CALLVALUE DUP1 ISZERO PUSH2 0x1F9 JUMPI PUSH1 0x0 DUP1 REVERT JUMPDEST POP PUSH2 0x202 PUSH2 0x7D8 JUMP JUMPDEST PUSH1 0x40 MLOAD PUSH2 0x20F SWAP2 SWAP1 PUSH2 0xF63 JUMP JUMPDEST PUSH1 0x40 MLOAD DUP1 SWAP2 SUB SWAP1 RETURN JUMPDEST CALLVALUE DUP1 ISZERO PUSH2 0x224 JUMPI PUSH1 0x0 DUP1 REVERT JUMPDEST POP PUSH2 0x23F PUSH1 0x4 DUP1 CALLDATASIZE SUB DUP2 ADD SWAP1 PUSH2 0x23A SWAP2 SWAP1 PUSH2 0xFB4 JUMP JUMPDEST PUSH2 0x7DE JUMP JUMPDEST PUSH1 0x40 MLOAD PUSH2 0x24F SWAP5 SWAP4 SWAP3 SWAP2 SWAP1 PUSH2 0x127E JUMP JUMPDEST PUSH1 0x40 MLOAD DUP1 SWAP2 SUB SWAP1 RETURN JUMPDEST CALLVALUE DUP1 ISZERO PUSH2 0x264 JUMPI PUSH1 0x0 DUP1 REVERT JUMPDEST POP PUSH2 0x27F PUSH1 0x4 DUP1 CALLDATASIZE SUB DUP2 ADD SWAP1 PUSH2 0x27A SWAP2 SWAP1 PUSH2 0xFB4 JUMP JUMPDEST PUSH2 0x8D3 JUMP JUMPDEST STOP JUMPDEST CALLVALUE DUP1 ISZERO PUSH2 0x28D JUMPI PUSH1 0x0 DUP1 REVERT JUMPDEST POP PUSH2 0x2A8 PUSH1 0x4 DUP1 CALLDATASIZE SUB DUP2 ADD SWAP1 PUSH2 0x2A3 SWAP2 SWAP1 PUSH2 0xFB4 JUMP JUMPDEST PUSH2 0xB6D JUMP JUMPDEST STOP JUMPDEST PUSH1 0x0 DUP2 DUP2 SLOAD DUP2 LT PUSH2 0x2BA JUMPI PUSH1 0x0 DUP1 REVERT JUMPDEST SWAP1 PUSH1 0x0 MSTORE PUSH1 0x20 PUSH1 0x0 KECCAK256 ADD PUSH1 0x0 SWAP2 POP SLOAD SWAP1 PUSH2 0x100 EXP SWAP1 DIV PUSH20 0xFFFFFFFFFFFFFFFFFFFFFFFFFFFFFFFFFFFFFFFF AND DUP2 JUMP JUMPDEST PUSH1 0x1 PUSH1 0x0 CALLER PUSH20 0xFFFFFFFFFFFFFFFFFFFFFFFFFFFFFFFFFFFFFFFF AND PUSH20 0xFFFFFFFFFFFFFFFFFFFFFFFFFFFFFFFFFFFFFFFF AND DUP2 MSTORE PUSH1 0x20 ADD SWAP1 DUP2 MSTORE PUSH1 0x20 ADD PUSH1 0x0 KECCAK256 PUSH1 0x0 SWAP1 SLOAD SWAP1 PUSH2 0x100 EXP SWAP1 DIV PUSH1 0xFF AND PUSH2 0x375 JUMPI PUSH1 0x40 MLOAD PUSH32 0x8C379A000000000000000000000000000000000000000000000000000000000 DUP2 MSTORE PUSH1 0x4 ADD PUSH2 0x36C SWAP1 PUSH2 0x1327 JUMP JUMPDEST PUSH1 0x40 MLOAD DUP1 SWAP2 SUB SWAP1 REVERT JUMPDEST PUSH1 0x3 PUSH1 0x40 MLOAD DUP1 PUSH1 0x80 ADD PUSH1 0x40 MSTORE DUP1 DUP7 PUSH20 0xFFFFFFFFFFFFFFFFFFFFFFFFFFFFFFFFFFFFFFFF AND DUP2 MSTORE PUSH1 0x20 ADD DUP6 DUP2 MSTORE PUSH1 0x20 ADD DUP5 DUP5 DUP1 DUP1 PUSH1 0x1F ADD PUSH1 0x20 DUP1 SWAP2 DIV MUL PUSH1 0x20 ADD PUSH1 0x40 MLOAD SWAP1 DUP2 ADD PUSH1 0x40 MSTORE DUP1 SWAP4 SWAP3 SWAP2 SWAP1 DUP2 DUP2 MSTORE PUSH1 0x20 ADD DUP4 DUP4 DUP1 DUP3 DUP5 CALLDATACOPY PUSH1 0x0 DUP2 DUP5 ADD MSTORE PUSH1 0x1F NOT PUSH1 0x1F DUP3 ADD AND SWAP1 POP DUP1 DUP4 ADD SWAP3 POP POP POP POP POP POP POP DUP2 MSTORE PUSH1 0x20 ADD PUSH1 0x0 ISZERO ISZERO DUP2 MSTORE POP SWAP1 DUP1 PUSH1 0x1 DUP2 SLOAD ADD DUP1 DUP3 SSTORE DUP1 SWAP2 POP POP PUSH1 0x1 SWAP1 SUB SWAP1 PUSH1 0x0 MSTORE PUSH1 0x20 PUSH1 0x0 KECCAK256 SWAP1 PUSH1 0x4 MUL ADD PUSH1 0x0 SWAP1 SWAP2 SWAP1 SWAP2 SWAP1 SWAP2 POP PUSH1 0x0 DUP3 ADD MLOAD DUP2 PUSH1 0x0 ADD PUSH1 0x0 PUSH2 0x100 EXP DUP2 SLOAD DUP2 PUSH20 0xFFFFFFFFFFFFFFFFFFFFFFFFFFFFFFFFFFFFFFFF MUL NOT AND SWAP1 DUP4 PUSH20 0xFFFFFFFFFFFFFFFFFFFFFFFFFFFFFFFFFFFFFFFF AND MUL OR SWAP1 SSTORE POP PUSH1 0x20 DUP3 ADD MLOAD DUP2 PUSH1 0x1 ADD SSTORE PUSH1 0x40 DUP3 ADD MLOAD DUP2 PUSH1 0x2 ADD SWAP1 DUP1 MLOAD SWAP1 PUSH1 0x20 ADD SWAP1 PUSH2 0x48B SWAP3 SWAP2 SWAP1 PUSH2 0xEA7 JUMP JUMPDEST POP PUSH1 0x60 DUP3 ADD MLOAD DUP2 PUSH1 0x3 ADD PUSH1 0x0 PUSH2 0x100 EXP DUP2 SLOAD DUP2 PUSH1 0xFF MUL NOT AND SWAP1 DUP4 ISZERO ISZERO MUL OR SWAP1 SSTORE POP POP POP PUSH1 0x1 PUSH1 0x3 DUP1 SLOAD SWAP1 POP PUSH2 0x4C0 SWAP2 SWAP1 PUSH2 0x1376 JUMP JUMPDEST PUSH32 0x8324B3D745B914E3ABD4FFBFEAD91E3B78391A98C173202129215AB933ADFBE PUSH1 0x40 MLOAD PUSH1 0x40 MLOAD DUP1 SWAP2 SUB SWAP1 LOG2 POP POP POP POP JUMP JUMPDEST PUSH1 0x1 PUSH1 0x0 CALLER PUSH20 0xFFFFFFFFFFFFFFFFFFFFFFFFFFFFFFFFFFFFFFFF AND PUSH20 0xFFFFFFFFFFFFFFFFFFFFFFFFFFFFFFFFFFFFFFFF AND DUP2 MSTORE PUSH1 0x20 ADD SWAP1 DUP2 MSTORE PUSH1 0x20 ADD PUSH1 0x0 KECCAK256 PUSH1 0x0 SWAP1 SLOAD SWAP1 PUSH2 0x100 EXP SWAP1 DIV PUSH1 0xFF AND PUSH2 0x57E JUMPI PUSH1 0x40 MLOAD PUSH32 0x8C379A000000000000000000000000000000000000000000000000000000000 DUP2 MSTORE PUSH1 0x4 ADD PUSH2 0x575 SWAP1 PUSH2 0x1327 JUMP JUMPDEST PUSH1 0x40 MLOAD DUP1 SWAP2 SUB SWAP1 REVERT JUMPDEST DUP1 PUSH1 0x3 DUP1 SLOAD SWAP1 POP DUP2 LT PUSH2 0x5C6 JUMPI PUSH1 0x40 MLOAD PUSH32 0x8C379A000000000000000000000000000000000000000000000000000000000 DUP2 MSTORE PUSH1 0x4 ADD PUSH2 0x5BD SWAP1 PUSH2 0x13F6 JUMP JUMPDEST PUSH1 0x40 MLOAD DUP1 SWAP2 SUB SWAP1 REVERT JUMPDEST DUP2 PUSH1 0x3 DUP2 DUP2 SLOAD DUP2 LT PUSH2 0x5DB JUMPI PUSH2 0x5DA PUSH2 0x1416 JUMP JUMPDEST JUMPDEST SWAP1 PUSH1 0x0 MSTORE PUSH1 0x20 PUSH1 0x0 KECCAK256 SWAP1 PUSH1 0x4 MUL ADD PUSH1 0x3 ADD PUSH1 0x0 SWAP1 SLOAD SWAP1 PUSH2 0x100 EXP SWAP1 DIV PUSH1 0xFF AND ISZERO PUSH2 0x63A JUMPI PUSH1 0x40 MLOAD PUSH32 0x8C379A000000000000000000000000000000000000000000000000000000000 DUP2 MSTORE PUSH1 0x4 ADD PUSH2 0x631 SWAP1 PUSH2 0x1491 JUMP JUMPDEST PUSH1 0x40 MLOAD DUP1 SWAP2 SUB SWAP1 REVERT JUMPDEST PUSH1 0x4 PUSH1 0x0 DUP5 DUP2 MSTORE PUSH1 0x20 ADD SWAP1 DUP2 MSTORE PUSH1 0x20 ADD PUSH1 0x0 KECCAK256 PUSH1 0x0 CALLER PUSH20 0xFFFFFFFFFFFFFFFFFFFFFFFFFFFFFFFFFFFFFFFF AND PUSH20 0xFFFFFFFFFFFFFFFFFFFFFFFFFFFFFFFFFFFFFFFF AND DUP2 MSTORE PUSH1 0x20 ADD SWAP1 DUP2 MSTORE PUSH1 0x20 ADD PUSH1 0x0 KECCAK256 PUSH1 0x0 SWAP1 SLOAD SWAP1 PUSH2 0x100 EXP SWAP1 DIV PUSH1 0xFF AND PUSH2 0x6D7 JUMPI PUSH1 0x40 MLOAD PUSH32 0x8C379A000000000000000000000000000000000000000000000000000000000 DUP2 MSTORE PUSH1 0x4 ADD PUSH2 0x6CE SWAP1 PUSH2 0x14FD JUMP JUMPDEST PUSH1 0x40 MLOAD DUP1 SWAP2 SUB SWAP1 REVERT JUMPDEST PUSH1 0x0 PUSH1 0x4 PUSH1 0x0 DUP6 DUP2 MSTORE PUSH1 0x20 ADD SWAP1 DUP2 MSTORE PUSH1 0x20 ADD PUSH1 0x0 KECCAK256 PUSH1 0x0 CALLER PUSH20 0xFFFFFFFFFFFFFFFFFFFFFFFFFFFFFFFFFFFFFFFF AND PUSH20 0xFFFFFFFFFFFFFFFFFFFFFFFFFFFFFFFFFFFFFFFF AND DUP2 MSTORE PUSH1 0x20 ADD SWAP1 DUP2 MSTORE PUSH1 0x20 ADD PUSH1 0x0 KECCAK256 PUSH1 0x0 PUSH2 0x100 EXP DUP2 SLOAD DUP2 PUSH1 0xFF MUL NOT AND SWAP1 DUP4 ISZERO ISZERO MUL OR SWAP1 SSTORE POP DUP3 CALLER PUSH20 0xFFFFFFFFFFFFFFFFFFFFFFFFFFFFFFFFFFFFFFFF AND PUSH32 0xEC9AB91322523C899EDE7830EC9BFC992B5981CDCC27B91162FB23DE5791117B PUSH1 0x40 MLOAD PUSH1 0x40 MLOAD DUP1 SWAP2 SUB SWAP1 LOG3 POP POP POP JUMP JUMPDEST PUSH1 0x1 PUSH1 0x20 MSTORE DUP1 PUSH1 0x0 MSTORE PUSH1 0x40 PUSH1 0x0 KECCAK256 PUSH1 0x0 SWAP2 POP SLOAD SWAP1 PUSH2 0x100 EXP SWAP1 DIV PUSH1 0xFF AND DUP2 JUMP JUMPDEST PUSH1 0x4 PUSH1 0x20 MSTORE DUP2 PUSH1 0x0 MSTORE PUSH1 0x40 PUSH1 0x0 KECCAK256 PUSH1 0x20 MSTORE DUP1 PUSH1 0x0 MSTORE PUSH1 0x40 PUSH1 0x0 KECCAK256 PUSH1 0x0 SWAP2 POP SWAP2 POP SWAP1 SLOAD SWAP1 PUSH2 0x100 EXP SWAP1 DIV PUSH1 0xFF AND DUP2 JUMP JUMPDEST PUSH1 0x2 SLOAD DUP2 JUMP JUMPDEST PUSH1 0x3 DUP2 DUP2 SLOAD DUP2 LT PUSH2 0x7EE JUMPI PUSH1 0x0 DUP1 REVERT JUMPDEST SWAP1 PUSH1 0x0 MSTORE PUSH1 0x20 PUSH1 0x0 KECCAK256 SWAP1 PUSH1 0x4 MUL ADD PUSH1 0x0 SWAP2 POP SWAP1 POP DUP1 PUSH1 0x0 ADD PUSH1 0x0 SWAP1 SLOAD SWAP1 PUSH2 0x100 EXP SWAP1 DIV PUSH20 0xFFFFFFFFFFFFFFFFFFFFFFFFFFFFFFFFFFFFFFFF AND SWAP1 DUP1 PUSH1 0x1 ADD SLOAD SWAP1 DUP1 PUSH1 0x2 ADD DUP1 SLOAD PUSH2 0x83D SWAP1 PUSH2 0x154C JUMP JUMPDEST DUP1 PUSH1 0x1F ADD PUSH1 0x20 DUP1 SWAP2 DIV MUL PUSH1 0x20 ADD PUSH1 0x40 MLOAD SWAP1 DUP2 ADD PUSH1 0x40 MSTORE DUP1 SWAP3 SWAP2 SWAP1 DUP2 DUP2 MSTORE PUSH1 0x20 ADD DUP3 DUP1 SLOAD PUSH2 0x869 SWAP1 PUSH2 0x154C JUMP JUMPDEST DUP1 ISZERO PUSH2 0x8B6 JUMPI DUP1 PUSH1 0x1F LT PUSH2 0x88B JUMPI PUSH2 0x100 DUP1 DUP4 SLOAD DIV MUL DUP4 MSTORE SWAP2 PUSH1 0x20 ADD SWAP2 PUSH2 0x8B6 JUMP JUMPDEST DUP3 ADD SWAP2 SWAP1 PUSH1 0x0 MSTORE PUSH1 0x20 PUSH1 0x0 KECCAK256 SWAP1 JUMPDEST DUP2 SLOAD DUP2 MSTORE SWAP1 PUSH1 0x1 ADD SWAP1 PUSH1 0x20 ADD DUP1 DUP4 GT PUSH2 0x899 JUMPI DUP3 SWAP1 SUB PUSH1 0x1F AND DUP3 ADD SWAP2 JUMPDEST POP POP POP POP POP SWAP1 DUP1 PUSH1 0x3 ADD PUSH1 0x0 SWAP1 SLOAD SWAP1 PUSH2 0x100 EXP SWAP1 DIV PUSH1 0xFF AND SWAP1 POP DUP5 JUMP JUMPDEST PUSH1 0x1 PUSH1 0x0 CALLER PUSH20 0xFFFFFFFFFFFFFFFFFFFFFFFFFFFFFFFFFFFFFFFF AND PUSH20 0xFFFFFFFFFFFFFFFFFFFFFFFFFFFFFFFFFFFFFFFF AND DUP2 MSTORE PUSH1 0x20 ADD SWAP1 DUP2 MSTORE PUSH1 0x20 ADD PUSH1 0x0 KECCAK256 PUSH1 0x0 SWAP1 SLOAD SWAP1 PUSH2 0x100 EXP SWAP1 DIV PUSH1 0xFF AND PUSH2 0x95F JUMPI PUSH1 0x40 MLOAD PUSH32 0x8C379A000000000000000000000000000000000000000000000000000000000 DUP2 MSTORE PUSH1 0x4 ADD PUSH2 0x956 SWAP1 PUSH2 0x1327 JUMP JUMPDEST PUSH1 0x40 MLOAD DUP1 SWAP2 SUB SWAP1 REVERT JUMPDEST DUP1 PUSH1 0x3 DUP1 SLOAD SWAP1 POP DUP2 LT PUSH2 0x9A7 JUMPI PUSH1 0x40 MLOAD PUSH32 0x8C379A000000000000000000000000000000000000000000000000000000000 DUP2 MSTORE PUSH1 0x4 ADD PUSH2 0x99E SWAP1 PUSH2 0x13F6 JUMP JUMPDEST PUSH1 0x40 MLOAD DUP1 SWAP2 SUB SWAP1 REVERT JUMPDEST DUP2 PUSH1 0x4 PUSH1 0x0 DUP3 DUP2 MSTORE PUSH1 0x20 ADD SWAP1 DUP2 MSTORE PUSH1 0x20 ADD PUSH1 0x0 KECCAK256 PUSH1 0x0 CALLER PUSH20 0xFFFFFFFFFFFFFFFFFFFFFFFFFFFFFFFFFFFFFFFF AND PUSH20 0xFFFFFFFFFFFFFFFFFFFFFFFFFFFFFFFFFFFFFFFF AND DUP2 MSTORE PUSH1 0x20 ADD SWAP1 DUP2 MSTORE PUSH1 0x20 ADD PUSH1 0x0 KECCAK256 PUSH1 0x0 SWAP1 SLOAD SWAP1 PUSH2 0x100 EXP SWAP1 DIV PUSH1 0xFF AND ISZERO PUSH2 0xA46 JUMPI PUSH1 0x40 MLOAD PUSH32 0x8C379A000000000000000000000000000000000000000000000000000000000 DUP2 MSTORE PUSH1 0x4 ADD PUSH2 0xA3D SWAP1 PUSH2 0x15CA JUMP JUMPDEST PUSH1 0x40 MLOAD DUP1 SWAP2 SUB SWAP1 REVERT JUMPDEST DUP3 PUSH1 0x3 DUP2 DUP2 SLOAD DUP2 LT PUSH2 0xA5B JUMPI PUSH2 0xA5A PUSH2 0x1416 JUMP JUMPDEST JUMPDEST SWAP1 PUSH1 0x0 MSTORE PUSH1 0x20 PUSH1 0x0 KECCAK256 SWAP1 PUSH1 0x4 MUL ADD PUSH1 0x3 ADD PUSH1 0x0 SWAP1 SLOAD SWAP1 PUSH2 0x100 EXP SWAP1 DIV PUSH1 0xFF AND ISZERO PUSH2 0xABA JUMPI PUSH1 0x40 MLOAD PUSH32 0x8C379A000000000000000000000000000000000000000000000000000000000 DUP2 MSTORE PUSH1 0x4 ADD PUSH2 0xAB1 SWAP1 PUSH2 0x1491 JUMP JUMPDEST PUSH1 0x40 MLOAD DUP1 SWAP2 SUB SWAP1 REVERT JUMPDEST PUSH1 0x1 PUSH1 0x4 PUSH1 0x0 DUP7 DUP2 MSTORE PUSH1 0x20 ADD SWAP1 DUP2 MSTORE PUSH1 0x20 ADD PUSH1 0x0 KECCAK256 PUSH1 0x0 CALLER PUSH20 0xFFFFFFFFFFFFFFFFFFFFFFFFFFFFFFFFFFFFFFFF AND PUSH20 0xFFFFFFFFFFFFFFFFFFFFFFFFFFFFFFFFFFFFFFFF AND DUP2 MSTORE PUSH1 0x20 ADD SWAP1 DUP2 MSTORE PUSH1 0x20 ADD PUSH1 0x0 KECCAK256 PUSH1 0x0 PUSH2 0x100 EXP DUP2 SLOAD DUP2 PUSH1 0xFF MUL NOT AND SWAP1 DUP4 ISZERO ISZERO MUL OR SWAP1 SSTORE POP DUP4 CALLER PUSH20 0xFFFFFFFFFFFFFFFFFFFFFFFFFFFFFFFFFFFFFFFF AND PUSH32 0x90EC57F18FA7B15C6B8D5E4D1DEB90796C74B2FF23D4D0CECAD0CB42A96B3128 PUSH1 0x40 MLOAD PUSH1 0x40 MLOAD DUP1 SWAP2 SUB SWAP1 LOG3 POP POP POP POP JUMP JUMPDEST DUP1 PUSH1 0x3 DUP1 SLOAD SWAP1 POP DUP2 LT PUSH2 0xBB5 JUMPI PUSH1 0x40 MLOAD PUSH32 0x8C379A000000000000000000000000000000000000000000000000000000000 DUP2 MSTORE PUSH1 0x4 ADD PUSH2 0xBAC SWAP1 PUSH2 0x13F6 JUMP JUMPDEST PUSH1 0x40 MLOAD DUP1 SWAP2 SUB SWAP1 REVERT JUMPDEST DUP2 PUSH1 0x3 DUP2 DUP2 SLOAD DUP2 LT PUSH2 0xBCA JUMPI PUSH2 0xBC9 PUSH2 0x1416 JUMP JUMPDEST JUMPDEST SWAP1 PUSH1 0x0 MSTORE PUSH1 0x20 PUSH1 0x0 KECCAK256 SWAP1 PUSH1 0x4 MUL ADD PUSH1 0x3 ADD PUSH1 0x0 SWAP1 SLOAD SWAP1 PUSH2 0x100 EXP SWAP1 DIV PUSH1 0xFF AND ISZERO PUSH2 0xC29 JUMPI PUSH1 0x40 MLOAD PUSH32 0x8C379A000000000000000000000000000000000000000000000000000000000 DUP2 MSTORE PUSH1 0x4 ADD PUSH2 0xC20 SWAP1 PUSH2 0x1491 JUMP JUMPDEST PUSH1 0x40 MLOAD DUP1 SWAP2 SUB SWAP1 REVERT JUMPDEST PUSH1 0x2 SLOAD PUSH2 0xC35 DUP5 PUSH2 0xDC6 JUMP JUMPDEST LT ISZERO PUSH2 0xC76 JUMPI PUSH1 0x40 MLOAD PUSH32 0x8C379A000000000000000000000000000000000000000000000000000000000 DUP2 MSTORE PUSH1 0x4 ADD PUSH2 0xC6D SWAP1 PUSH2 0x1636 JUMP JUMPDEST PUSH1 0x40 MLOAD DUP1 SWAP2 SUB SWAP1 REVERT JUMPDEST PUSH1 0x0 PUSH1 0x3 DUP5 DUP2 SLOAD DUP2 LT PUSH2 0xC8C JUMPI PUSH2 0xC8B PUSH2 0x1416 JUMP JUMPDEST JUMPDEST SWAP1 PUSH1 0x0 MSTORE PUSH1 0x20 PUSH1 0x0 KECCAK256 SWAP1 PUSH1 0x4 MUL ADD SWAP1 POP PUSH1 0x1 DUP2 PUSH1 0x3 ADD PUSH1 0x0 PUSH2 0x100 EXP DUP2 SLOAD DUP2 PUSH1 0xFF MUL NOT AND SWAP1 DUP4 ISZERO ISZERO MUL OR SWAP1 SSTORE POP PUSH1 0x0 DUP2 PUSH1 0x0 ADD PUSH1 0x0 SWAP1 SLOAD SWAP1 PUSH2 0x100 EXP SWAP1 DIV PUSH20 0xFFFFFFFFFFFFFFFFFFFFFFFFFFFFFFFFFFFFFFFF AND PUSH20 0xFFFFFFFFFFFFFFFFFFFFFFFFFFFFFFFFFFFFFFFF AND DUP3 PUSH1 0x1 ADD SLOAD DUP4 PUSH1 0x2 ADD PUSH1 0x40 MLOAD PUSH2 0xD0C SWAP2 SWAP1 PUSH2 0x16F5 JUMP JUMPDEST PUSH1 0x0 PUSH1 0x40 MLOAD DUP1 DUP4 SUB DUP2 DUP6 DUP8 GAS CALL SWAP3 POP POP POP RETURNDATASIZE DUP1 PUSH1 0x0 DUP2 EQ PUSH2 0xD49 JUMPI PUSH1 0x40 MLOAD SWAP2 POP PUSH1 0x1F NOT PUSH1 0x3F RETURNDATASIZE ADD AND DUP3 ADD PUSH1 0x40 MSTORE RETURNDATASIZE DUP3 MSTORE RETURNDATASIZE PUSH1 0x0 PUSH1 0x20 DUP5 ADD RETURNDATACOPY PUSH2 0xD4E JUMP JUMPDEST PUSH1 0x60 SWAP2 POP JUMPDEST POP POP SWAP1 POP DUP1 PUSH2 0xD92 JUMPI PUSH1 0x40 MLOAD PUSH32 0x8C379A000000000000000000000000000000000000000000000000000000000 DUP2 MSTORE PUSH1 0x4 ADD PUSH2 0xD89 SWAP1 PUSH2 0x1758 JUMP JUMPDEST PUSH1 0x40 MLOAD DUP1 SWAP2 SUB SWAP1 REVERT JUMPDEST DUP5 PUSH32 0xDDB556F1D2C1EC821E910B019D3685B229DB152A0ECD517CA7E24B8BD7139289 PUSH1 0x40 MLOAD PUSH1 0x40 MLOAD DUP1 SWAP2 SUB SWAP1 LOG2 POP POP POP POP POP JUMP JUMPDEST PUSH1 0x0 DUP1 PUSH1 0x0 SWAP1 POP PUSH1 0x0 JUMPDEST PUSH1 0x0 DUP1 SLOAD SWAP1 POP DUP2 LT ISZERO PUSH2 0xEA0 JUMPI PUSH1 0x4 PUSH1 0x0 DUP6 DUP2 MSTORE PUSH1 0x20 ADD SWAP1 DUP2 MSTORE PUSH1 0x20 ADD PUSH1 0x0 KECCAK256 PUSH1 0x0 DUP1 DUP4 DUP2 SLOAD DUP2 LT PUSH2 0xE05 JUMPI PUSH2 0xE04 PUSH2 0x1416 JUMP JUMPDEST JUMPDEST SWAP1 PUSH1 0x0 MSTORE PUSH1 0x20 PUSH1 0x0 KECCAK256 ADD PUSH1 0x0 SWAP1 SLOAD SWAP1 PUSH2 0x100 EXP SWAP1 DIV PUSH20 0xFFFFFFFFFFFFFFFFFFFFFFFFFFFFFFFFFFFFFFFF AND PUSH20 0xFFFFFFFFFFFFFFFFFFFFFFFFFFFFFFFFFFFFFFFF AND PUSH20 0xFFFFFFFFFFFFFFFFFFFFFFFFFFFFFFFFFFFFFFFF AND DUP2 MSTORE PUSH1 0x20 ADD SWAP1 DUP2 MSTORE PUSH1 0x20 ADD PUSH1 0x0 KECCAK256 PUSH1 0x0 SWAP1 SLOAD SWAP1 PUSH2 0x100 EXP SWAP1 DIV PUSH1 0xFF AND ISZERO PUSH2 0xE8D JUMPI PUSH1 0x1 DUP3 PUSH2 0xE8A SWAP2 SWAP1 PUSH2 0x1778 JUMP JUMPDEST SWAP2 POP JUMPDEST DUP1 DUP1 PUSH2 0xE98 SWAP1 PUSH2 0x17CE JUMP JUMPDEST SWAP2 POP POP PUSH2 0xDD0 JUMP JUMPDEST POP POP SWAP2 SWAP1 POP JUMP JUMPDEST DUP3 DUP1 SLOAD PUSH2 0xEB3 SWAP1 PUSH2 0x154C JUMP JUMPDEST SWAP1 PUSH1 0x0 MSTORE PUSH1 0x20 PUSH1 0x0 KECCAK256 SWAP1 PUSH1 0x1F ADD PUSH1 0x20 SWAP1 DIV DUP2 ADD SWAP3 DUP3 PUSH2 0xED5 JUMPI PUSH1 0x0 DUP6 SSTORE PUSH2 0xF1C JUMP JUMPDEST DUP3 PUSH1 0x1F LT PUSH2 0xEEE JUMPI DUP1 MLOAD PUSH1 0xFF NOT AND DUP4 DUP1 ADD OR DUP6 SSTORE PUSH2 0xF1C JUMP JUMPDEST DUP3 DUP1 ADD PUSH1 0x1 ADD DUP6 SSTORE DUP3 ISZERO PUSH2 0xF1C JUMPI SWAP2 DUP3 ADD JUMPDEST DUP3 DUP2 GT ISZERO PUSH2 0xF1B JUMPI DUP3 MLOAD DUP3 SSTORE SWAP2 PUSH1 0x20 ADD SWAP2 SWAP1 PUSH1 0x1 ADD SWAP1 PUSH2 0xF00 JUMP JUMPDEST JUMPDEST POP SWAP1 POP PUSH2 0xF29 SWAP2 SWAP1 PUSH2 0xF2D JUMP JUMPDEST POP SWAP1 JUMP JUMPDEST JUMPDEST DUP1 DUP3 GT ISZERO PUSH2 0xF46 JUMPI PUSH1 0x0 DUP2 PUSH1 0x0 SWAP1 SSTORE POP PUSH1 0x1 ADD PUSH2 0xF2E JUMP JUMPDEST POP SWAP1 JUMP JUMPDEST PUSH1 0x0 DUP2 SWAP1 POP SWAP2 SWAP1 POP JUMP JUMPDEST PUSH2 0xF5D DUP2 PUSH2 0xF4A JUMP JUMPDEST DUP3 MSTORE POP POP JUMP JUMPDEST PUSH1 0x0 PUSH1 0x20 DUP3 ADD SWAP1 POP PUSH2 0xF78 PUSH1 0x0 DUP4 ADD DUP5 PUSH2 0xF54 JUMP JUMPDEST SWAP3 SWAP2 POP POP JUMP JUMPDEST PUSH1 0x0 DUP1 REVERT JUMPDEST PUSH1 0x0 DUP1 REVERT JUMPDEST PUSH2 0xF91 DUP2 PUSH2 0xF4A JUMP JUMPDEST DUP2 EQ PUSH2 0xF9C JUMPI PUSH1 0x0 DUP1 REVERT JUMPDEST POP JUMP JUMPDEST PUSH1 0x0 DUP2 CALLDATALOAD SWAP1 POP PUSH2 0xFAE DUP2 PUSH2 0xF88 JUMP JUMPDEST SWAP3 SWAP2 POP POP JUMP JUMPDEST PUSH1 0x0 PUSH1 0x20 DUP3 DUP5 SUB SLT ISZERO PUSH2 0xFCA JUMPI PUSH2 0xFC9 PUSH2 0xF7E JUMP JUMPDEST JUMPDEST PUSH1 0x0 PUSH2 0xFD8 DUP5 DUP3 DUP6 ADD PUSH2 0xF9F JUMP JUMPDEST SWAP2 POP POP SWAP3 SWAP2 POP POP JUMP JUMPDEST PUSH1 0x0 PUSH20 0xFFFFFFFFFFFFFFFFFFFFFFFFFFFFFFFFFFFFFFFF DUP3 AND SWAP1 POP SWAP2 SWAP1 POP JUMP JUMPDEST PUSH1 0x0 PUSH2 0x100C DUP3 PUSH2 0xFE1 JUMP JUMPDEST SWAP1 POP SWAP2 SWAP1 POP JUMP JUMPDEST PUSH2 0x101C DUP2 PUSH2 0x1001 JUMP JUMPDEST DUP3 MSTORE POP POP JUMP JUMPDEST PUSH1 0x0 PUSH1 0x20 DUP3 ADD SWAP1 POP PUSH2 0x1037 PUSH1 0x0 DUP4 ADD DUP5 PUSH2 0x1013 JUMP JUMPDEST SWAP3 SWAP2 POP POP JUMP JUMPDEST PUSH2 0x1046 DUP2 PUSH2 0x1001 JUMP JUMPDEST DUP2 EQ PUSH2 0x1051 JUMPI PUSH1 0x0 DUP1 REVERT JUMPDEST POP JUMP JUMPDEST PUSH1 0x0 DUP2 CALLDATALOAD SWAP1 POP PUSH2 0x1063 DUP2 PUSH2 0x103D JUMP JUMPDEST SWAP3 SWAP2 POP POP JUMP JUMPDEST PUSH1 0x0 DUP1 REVERT JUMPDEST PUSH1 0x0 DUP1 REVERT JUMPDEST PUSH1 0x0 DUP1 REVERT JUMPDEST PUSH1 0x0 DUP1 DUP4 PUSH1 0x1F DUP5 ADD SLT PUSH2 0x108E JUMPI PUSH2 0x108D PUSH2 0x1069 JUMP JUMPDEST JUMPDEST DUP3 CALLDATALOAD SWAP1 POP PUSH8 0xFFFFFFFFFFFFFFFF DUP2 GT ISZERO PUSH2 0x10AB JUMPI PUSH2 0x10AA PUSH2 0x106E JUMP JUMPDEST JUMPDEST PUSH1 0x20 DUP4 ADD SWAP2 POP DUP4 PUSH1 0x1 DUP3 MUL DUP4 ADD GT ISZERO PUSH2 0x10C7 JUMPI PUSH2 0x10C6 PUSH2 0x1073 JUMP JUMPDEST JUMPDEST SWAP3 POP SWAP3 SWAP1 POP JUMP JUMPDEST PUSH1 0x0 DUP1 PUSH1 0x0 DUP1 PUSH1 0x60 DUP6 DUP8 SUB SLT ISZERO PUSH2 0x10E8 JUMPI PUSH2 0x10E7 PUSH2 0xF7E JUMP JUMPDEST JUMPDEST PUSH1 0x0 PUSH2 0x10F6 DUP8 DUP3 DUP9 ADD PUSH2 0x1054 JUMP JUMPDEST SWAP5 POP POP PUSH1 0x20 PUSH2 0x1107 DUP8 DUP3 DUP9 ADD PUSH2 0xF9F JUMP JUMPDEST SWAP4 POP POP PUSH1 0x40 DUP6 ADD CALLDATALOAD PUSH8 0xFFFFFFFFFFFFFFFF DUP2 GT ISZERO PUSH2 0x1128 JUMPI PUSH2 0x1127 PUSH2 0xF83 JUMP JUMPDEST JUMPDEST PUSH2 0x1134 DUP8 DUP3 DUP9 ADD PUSH2 0x1078 JUMP JUMPDEST SWAP3 POP SWAP3 POP POP SWAP3 SWAP6 SWAP2 SWAP5 POP SWAP3 POP JUMP JUMPDEST PUSH1 0x0 PUSH1 0x20 DUP3 DUP5 SUB SLT ISZERO PUSH2 0x1158 JUMPI PUSH2 0x1157 PUSH2 0xF7E JUMP JUMPDEST JUMPDEST PUSH1 0x0 PUSH2 0x1166 DUP5 DUP3 DUP6 ADD PUSH2 0x1054 JUMP JUMPDEST SWAP2 POP POP SWAP3 SWAP2 POP POP JUMP JUMPDEST PUSH1 0x0 DUP2 ISZERO ISZERO SWAP1 POP SWAP2 SWAP1 POP JUMP JUMPDEST PUSH2 0x1184 DUP2 PUSH2 0x116F JUMP JUMPDEST DUP3 MSTORE POP POP JUMP JUMPDEST PUSH1 0x0 PUSH1 0x20 DUP3 ADD SWAP1 POP PUSH2 0x119F PUSH1 0x0 DUP4 ADD DUP5 PUSH2 0x117B JUMP JUMPDEST SWAP3 SWAP2 POP POP JUMP JUMPDEST PUSH1 0x0 DUP1 PUSH1 0x40 DUP4 DUP6 SUB SLT ISZERO PUSH2 0x11BC JUMPI PUSH2 0x11BB PUSH2 0xF7E JUMP JUMPDEST JUMPDEST PUSH1 0x0 PUSH2 0x11CA DUP6 DUP3 DUP7 ADD PUSH2 0xF9F JUMP JUMPDEST SWAP3 POP POP PUSH1 0x20 PUSH2 0x11DB DUP6 DUP3 DUP7 ADD PUSH2 0x1054 JUMP JUMPDEST SWAP2 POP POP SWAP3 POP SWAP3 SWAP1 POP JUMP JUMPDEST PUSH1 0x0 DUP2 MLOAD SWAP1 POP SWAP2 SWAP1 POP JUMP JUMPDEST PUSH1 0x0 DUP3 DUP3 MSTORE PUSH1 0x20 DUP3 ADD SWAP1 POP SWAP3 SWAP2 POP POP JUMP JUMPDEST PUSH1 0x0 JUMPDEST DUP4 DUP2 LT ISZERO PUSH2 0x121F JUMPI DUP1 DUP3 ADD MLOAD DUP2 DUP5 ADD MSTORE PUSH1 0x20 DUP2 ADD SWAP1 POP PUSH2 0x1204 JUMP JUMPDEST DUP4 DUP2 GT ISZERO PUSH2 0x122E JUMPI PUSH1 0x0 DUP5 DUP5 ADD MSTORE JUMPDEST POP POP POP POP JUMP JUMPDEST PUSH1 0x0 PUSH1 0x1F NOT PUSH1 0x1F DUP4 ADD AND SWAP1 POP SWAP2 SWAP1 POP JUMP JUMPDEST PUSH1 0x0 PUSH2 0x1250 DUP3 PUSH2 0x11E5 JUMP JUMPDEST PUSH2 0x125A DUP2 DUP6 PUSH2 0x11F0 JUMP JUMPDEST SWAP4 POP PUSH2 0x126A DUP2 DUP6 PUSH1 0x20 DUP7 ADD PUSH2 0x1201 JUMP JUMPDEST PUSH2 0x1273 DUP2 PUSH2 0x1234 JUMP JUMPDEST DUP5 ADD SWAP2 POP POP SWAP3 SWAP2 POP POP JUMP JUMPDEST PUSH1 0x0 PUSH1 0x80 DUP3 ADD SWAP1 POP PUSH2 0x1293 PUSH1 0x0 DUP4 ADD DUP8 PUSH2 0x1013 JUMP JUMPDEST PUSH2 0x12A0 PUSH1 0x20 DUP4 ADD DUP7 PUSH2 0xF54 JUMP JUMPDEST DUP2 DUP2 SUB PUSH1 0x40 DUP4 ADD MSTORE PUSH2 0x12B2 DUP2 DUP6 PUSH2 0x1245 JUMP JUMPDEST SWAP1 POP PUSH2 0x12C1 PUSH1 0x60 DUP4 ADD DUP5 PUSH2 0x117B JUMP JUMPDEST SWAP6 SWAP5 POP POP POP POP POP JUMP JUMPDEST PUSH1 0x0 DUP3 DUP3 MSTORE PUSH1 0x20 DUP3 ADD SWAP1 POP SWAP3 SWAP2 POP POP JUMP JUMPDEST PUSH32 0x4E6F74204F776E65720000000000000000000000000000000000000000000000 PUSH1 0x0 DUP3 ADD MSTORE POP JUMP JUMPDEST PUSH1 0x0 PUSH2 0x1311 PUSH1 0x9 DUP4 PUSH2 0x12CA JUMP JUMPDEST SWAP2 POP PUSH2 0x131C DUP3 PUSH2 0x12DB JUMP JUMPDEST PUSH1 0x20 DUP3 ADD SWAP1 POP SWAP2 SWAP1 POP JUMP JUMPDEST PUSH1 0x0 PUSH1 0x20 DUP3 ADD SWAP1 POP DUP2 DUP2 SUB PUSH1 0x0 DUP4 ADD MSTORE PUSH2 0x1340 DUP2 PUSH2 0x1304 JUMP JUMPDEST SWAP1 POP SWAP2 SWAP1 POP JUMP JUMPDEST PUSH32 0x4E487B7100000000000000000000000000000000000000000000000000000000 PUSH1 0x0 MSTORE PUSH1 0x11 PUSH1 0x4 MSTORE PUSH1 0x24 PUSH1 0x0 REVERT JUMPDEST PUSH1 0x0 PUSH2 0x1381 DUP3 PUSH2 0xF4A JUMP JUMPDEST SWAP2 POP PUSH2 0x138C DUP4 PUSH2 0xF4A JUMP JUMPDEST SWAP3 POP DUP3 DUP3 LT ISZERO PUSH2 0x139F JUMPI PUSH2 0x139E PUSH2 0x1347 JUMP JUMPDEST JUMPDEST DUP3 DUP3 SUB SWAP1 POP SWAP3 SWAP2 POP POP JUMP JUMPDEST PUSH32 0x5472616E73616374696F6E20646F6573206E6F74206578697374000000000000 PUSH1 0x0 DUP3 ADD MSTORE POP JUMP JUMPDEST PUSH1 0x0 PUSH2 0x13E0 PUSH1 0x1A DUP4 PUSH2 0x12CA JUMP JUMPDEST SWAP2 POP PUSH2 0x13EB DUP3 PUSH2 0x13AA JUMP JUMPDEST PUSH1 0x20 DUP3 ADD SWAP1 POP SWAP2 SWAP1 POP JUMP JUMPDEST PUSH1 0x0 PUSH1 0x20 DUP3 ADD SWAP1 POP DUP2 DUP2 SUB PUSH1 0x0 DUP4 ADD MSTORE PUSH2 0x140F DUP2 PUSH2 0x13D3 JUMP JUMPDEST SWAP1 POP SWAP2 SWAP1 POP JUMP JUMPDEST PUSH32 0x4E487B7100000000000000000000000000000000000000000000000000000000 PUSH1 0x0 MSTORE PUSH1 0x32 PUSH1 0x4 MSTORE PUSH1 0x24 PUSH1 0x0 REVERT JUMPDEST PUSH32 0x5472616E73616374696F6E20616C726561647920657865637574656400000000 PUSH1 0x0 DUP3 ADD MSTORE POP JUMP JUMPDEST PUSH1 0x0 PUSH2 0x147B PUSH1 0x1C DUP4 PUSH2 0x12CA JUMP JUMPDEST SWAP2 POP PUSH2 0x1486 DUP3 PUSH2 0x1445 JUMP JUMPDEST PUSH1 0x20 DUP3 ADD SWAP1 POP SWAP2 SWAP1 POP JUMP JUMPDEST PUSH1 0x0 PUSH1 0x20 DUP3 ADD SWAP1 POP DUP2 DUP2 SUB PUSH1 0x0 DUP4 ADD MSTORE PUSH2 0x14AA DUP2 PUSH2 0x146E JUMP JUMPDEST SWAP1 POP SWAP2 SWAP1 POP JUMP JUMPDEST PUSH32 0x5472616E73616374696F6E206E6F7420617070726F7665640000000000000000 PUSH1 0x0 DUP3 ADD MSTORE POP JUMP JUMPDEST PUSH1 0x0 PUSH2 0x14E7 PUSH1 0x18 DUP4 PUSH2 0x12CA JUMP JUMPDEST SWAP2 POP PUSH2 0x14F2 DUP3 PUSH2 0x14B1 JUMP JUMPDEST PUSH1 0x20 DUP3 ADD SWAP1 POP SWAP2 SWAP1 POP JUMP JUMPDEST PUSH1 0x0 PUSH1 0x20 DUP3 ADD SWAP1 POP DUP2 DUP2 SUB PUSH1 0x0 DUP4 ADD MSTORE PUSH2 0x1516 DUP2 PUSH2 0x14DA JUMP JUMPDEST SWAP1 POP SWAP2 SWAP1 POP JUMP JUMPDEST PUSH32 0x4E487B7100000000000000000000000000000000000000000000000000000000 PUSH1 0x0 MSTORE PUSH1 0x22 PUSH1 0x4 MSTORE PUSH1 0x24 PUSH1 0x0 REVERT JUMPDEST PUSH1 0x0 PUSH1 0x2 DUP3 DIV SWAP1 POP PUSH1 0x1 DUP3 AND DUP1 PUSH2 0x1564 JUMPI PUSH1 0x7F DUP3 AND SWAP2 POP JUMPDEST PUSH1 0x20 DUP3 LT DUP2 EQ ISZERO PUSH2 0x1578 JUMPI PUSH2 0x1577 PUSH2 0x151D JUMP JUMPDEST JUMPDEST POP SWAP2 SWAP1 POP JUMP JUMPDEST PUSH32 0x5472616E73616374696F6E20616C726561647920617070726F76656400000000 PUSH1 0x0 DUP3 ADD MSTORE POP JUMP JUMPDEST PUSH1 0x0 PUSH2 0x15B4 PUSH1 0x1C DUP4 PUSH2 0x12CA JUMP JUMPDEST SWAP2 POP PUSH2 0x15BF DUP3 PUSH2 0x157E JUMP JUMPDEST PUSH1 0x20 DUP3 ADD SWAP1 POP SWAP2 SWAP1 POP JUMP JUMPDEST PUSH1 0x0 PUSH1 0x20 DUP3 ADD SWAP1 POP DUP2 DUP2 SUB PUSH1 0x0 DUP4 ADD MSTORE PUSH2 0x15E3 DUP2 PUSH2 0x15A7 JUMP JUMPDEST SWAP1 POP SWAP2 SWAP1 POP JUMP JUMPDEST PUSH32 0x617070726F76616C7320617265206E6F74206D6F7265207468616E2036302500 PUSH1 0x0 DUP3 ADD MSTORE POP JUMP JUMPDEST PUSH1 0x0 PUSH2 0x1620 PUSH1 0x1F DUP4 PUSH2 0x12CA JUMP JUMPDEST SWAP2 POP PUSH2 0x162B DUP3 PUSH2 0x15EA JUMP JUMPDEST PUSH1 0x20 DUP3 ADD SWAP1 POP SWAP2 SWAP1 POP JUMP JUMPDEST PUSH1 0x0 PUSH1 0x20 DUP3 ADD SWAP1 POP DUP2 DUP2 SUB PUSH1 0x0 DUP4 ADD MSTORE PUSH2 0x164F DUP2 PUSH2 0x1613 JUMP JUMPDEST SWAP1 POP SWAP2 SWAP1 POP JUMP JUMPDEST PUSH1 0x0 DUP2 SWAP1 POP SWAP3 SWAP2 POP POP JUMP JUMPDEST PUSH1 0x0 DUP2 SWAP1 POP DUP2 PUSH1 0x0 MSTORE PUSH1 0x20 PUSH1 0x0 KECCAK256 SWAP1 POP SWAP2 SWAP1 POP JUMP JUMPDEST PUSH1 0x0 DUP2 SLOAD PUSH2 0x1683 DUP2 PUSH2 0x154C JUMP JUMPDEST PUSH2 0x168D DUP2 DUP7 PUSH2 0x1656 JUMP JUMPDEST SWAP5 POP PUSH1 0x1 DUP3 AND PUSH1 0x0 DUP2 EQ PUSH2 0x16A8 JUMPI PUSH1 0x1 DUP2 EQ PUSH2 0x16B9 JUMPI PUSH2 0x16EC JUMP JUMPDEST PUSH1 0xFF NOT DUP4 AND DUP7 MSTORE DUP2 DUP7 ADD SWAP4 POP PUSH2 0x16EC JUMP JUMPDEST PUSH2 0x16C2 DUP6 PUSH2 0x1661 JUMP JUMPDEST PUSH1 0x0 JUMPDEST DUP4 DUP2 LT ISZERO PUSH2 0x16E4 JUMPI DUP2 SLOAD DUP2 DUP10 ADD MSTORE PUSH1 0x1 DUP3 ADD SWAP2 POP PUSH1 0x20 DUP2 ADD SWAP1 POP PUSH2 0x16C5 JUMP JUMPDEST DUP4 DUP9 ADD SWAP6 POP POP POP JUMPDEST POP POP POP SWAP3 SWAP2 POP POP JUMP JUMPDEST PUSH1 0x0 PUSH2 0x1701 DUP3 DUP5 PUSH2 0x1676 JUMP JUMPDEST SWAP2 POP DUP2 SWAP1 POP SWAP3 SWAP2 POP POP JUMP JUMPDEST PUSH32 0x5472616E73616374696F6E206661696C65640000000000000000000000000000 PUSH1 0x0 DUP3 ADD MSTORE POP JUMP JUMPDEST PUSH1 0x0 PUSH2 0x1742 PUSH1 0x12 DUP4 PUSH2 0x12CA JUMP JUMPDEST SWAP2 POP PUSH2 0x174D DUP3 PUSH2 0x170C JUMP JUMPDEST PUSH1 0x20 DUP3 ADD SWAP1 POP SWAP2 SWAP1 POP JUMP JUMPDEST PUSH1 0x0 PUSH1 0x20 DUP3 ADD SWAP1 POP DUP2 DUP2 SUB PUSH1 0x0 DUP4 ADD MSTORE PUSH2 0x1771 DUP2 PUSH2 0x1735 JUMP JUMPDEST SWAP1 POP SWAP2 SWAP1 POP JUMP JUMPDEST PUSH1 0x0 PUSH2 0x1783 DUP3 PUSH2 0xF4A JUMP JUMPDEST SWAP2 POP PUSH2 0x178E DUP4 PUSH2 0xF4A JUMP JUMPDEST SWAP3 POP DUP3 PUSH32 0xFFFFFFFFFFFFFFFFFFFFFFFFFFFFFFFFFFFFFFFFFFFFFFFFFFFFFFFFFFFFFFFF SUB DUP3 GT ISZERO PUSH2 0x17C3 JUMPI PUSH2 0x17C2 PUSH2 0x1347 JUMP JUMPDEST JUMPDEST DUP3 DUP3 ADD SWAP1 POP SWAP3 SWAP2 POP POP JUMP JUMPDEST PUSH1 0x0 PUSH2 0x17D9 DUP3 PUSH2 0xF4A JUMP JUMPDEST SWAP2 POP PUSH32 0xFFFFFFFFFFFFFFFFFFFFFFFFFFFFFFFFFFFFFFFFFFFFFFFFFFFFFFFFFFFFFFFF DUP3 EQ ISZERO PUSH2 0x180C JUMPI PUSH2 0x180B PUSH2 0x1347 JUMP JUMPDEST JUMPDEST PUSH1 0x1 DUP3 ADD SWAP1 POP SWAP2 SWAP1 POP JUMP INVALID LOG2 PUSH5 0x6970667358 0x22 SLT KECCAK256 LOG1 0xAB 0xEE SWAP3 ADDRESS 0xB5 TIMESTAMP SWAP9 0x27 SAR PUSH14 0xB7618D2D387031039427AE9C10F2 0xA8 0xC9 0xAD SWAP15 0x2A DIFFICULTY CALLVALUE PUSH5 0x736F6C6343 STOP ADDMOD EXP STOP CALLER "
				},
				"gasEstimates": {
					"creation": {
						"codeDepositCost": "1244200",
						"executionCost": "infinite",
						"totalCost": "infinite"
					},
					"external": {
						"approve(uint256)": "37508",
						"approved(uint256,address)": "3087",
						"execute(uint256)": "infinite",
						"isOwner(address)": "2912",
						"minAuthorization()": "2451",
						"owners(uint256)": "4957",
						"revoke(uint256)": "37479",
						"submit(address,uint256,bytes)": "infinite",
						"transactions(uint256)": "infinite"
					},
					"internal": {
						"ApproveCount(uint256)": "infinite"
					}
				},
				"methodIdentifiers": {
					"approve(uint256)": "b759f954",
					"approved(uint256,address)": "8253951a",
					"execute(uint256)": "fe0d94c1",
					"isOwner(address)": "2f54bf6e",
					"minAuthorization()": "8c97f558",
					"owners(uint256)": "025e7c27",
					"revoke(uint256)": "20c5429b",
					"submit(address,uint256,bytes)": "14de327f",
					"transactions(uint256)": "9ace38c2"
				}
			},
			"storageLayout": {
				"storage": [
					{
						"astId": 39,
						"contract": "contracts/multiSig.sol:MultisigWallet",
						"label": "owners",
						"offset": 0,
						"slot": "0",
						"type": "t_array(t_address)dyn_storage"
					},
					{
						"astId": 43,
						"contract": "contracts/multiSig.sol:MultisigWallet",
						"label": "isOwner",
						"offset": 0,
						"slot": "1",
						"type": "t_mapping(t_address,t_bool)"
					},
					{
						"astId": 45,
						"contract": "contracts/multiSig.sol:MultisigWallet",
						"label": "minAuthorization",
						"offset": 0,
						"slot": "2",
						"type": "t_uint256"
					},
					{
						"astId": 49,
						"contract": "contracts/multiSig.sol:MultisigWallet",
						"label": "transactions",
						"offset": 0,
						"slot": "3",
						"type": "t_array(t_struct(Transaction)36_storage)dyn_storage"
					},
					{
						"astId": 55,
						"contract": "contracts/multiSig.sol:MultisigWallet",
						"label": "approved",
						"offset": 0,
						"slot": "4",
						"type": "t_mapping(t_uint256,t_mapping(t_address,t_bool))"
					}
				],
				"types": {
					"t_address": {
						"encoding": "inplace",
						"label": "address",
						"numberOfBytes": "20"
					},
					"t_array(t_address)dyn_storage": {
						"base": "t_address",
						"encoding": "dynamic_array",
						"label": "address[]",
						"numberOfBytes": "32"
					},
					"t_array(t_struct(Transaction)36_storage)dyn_storage": {
						"base": "t_struct(Transaction)36_storage",
						"encoding": "dynamic_array",
						"label": "struct MultisigWallet.Transaction[]",
						"numberOfBytes": "32"
					},
					"t_bool": {
						"encoding": "inplace",
						"label": "bool",
						"numberOfBytes": "1"
					},
					"t_bytes_storage": {
						"encoding": "bytes",
						"label": "bytes",
						"numberOfBytes": "32"
					},
					"t_mapping(t_address,t_bool)": {
						"encoding": "mapping",
						"key": "t_address",
						"label": "mapping(address => bool)",
						"numberOfBytes": "32",
						"value": "t_bool"
					},
					"t_mapping(t_uint256,t_mapping(t_address,t_bool))": {
						"encoding": "mapping",
						"key": "t_uint256",
						"label": "mapping(uint256 => mapping(address => bool))",
						"numberOfBytes": "32",
						"value": "t_mapping(t_address,t_bool)"
					},
					"t_struct(Transaction)36_storage": {
						"encoding": "inplace",
						"label": "struct MultisigWallet.Transaction",
						"members": [
							{
								"astId": 29,
								"contract": "contracts/multiSig.sol:MultisigWallet",
								"label": "to",
								"offset": 0,
								"slot": "0",
								"type": "t_address"
							},
							{
								"astId": 31,
								"contract": "contracts/multiSig.sol:MultisigWallet",
								"label": "value",
								"offset": 0,
								"slot": "1",
								"type": "t_uint256"
							},
							{
								"astId": 33,
								"contract": "contracts/multiSig.sol:MultisigWallet",
								"label": "data",
								"offset": 0,
								"slot": "2",
								"type": "t_bytes_storage"
							},
							{
								"astId": 35,
								"contract": "contracts/multiSig.sol:MultisigWallet",
								"label": "executed",
								"offset": 0,
								"slot": "3",
								"type": "t_bool"
							}
						],
						"numberOfBytes": "128"
					},
					"t_uint256": {
						"encoding": "inplace",
						"label": "uint256",
						"numberOfBytes": "32"
					}
				}
			},
			"userdoc": {
				"kind": "user",
				"methods": {},
				"version": 1
			}
		}
	}
}